{
	"contracts/AccessControl/Calculator.sol": {
		"Calculator": {
			"abi": [
				{
					"anonymous": false,
					"inputs": [
						{
							"indexed": false,
							"internalType": "uint256",
							"name": "R_id",
							"type": "uint256"
						}
					],
					"name": "Del_R_id",
					"type": "event"
				},
				{
					"anonymous": false,
					"inputs": [
						{
							"indexed": false,
							"internalType": "uint256",
							"name": "R_id",
							"type": "uint256"
						}
					],
					"name": "GetPer_idByR_id",
					"type": "event"
				},
				{
					"anonymous": false,
					"inputs": [
						{
							"indexed": false,
							"internalType": "uint256",
							"name": "R_id",
							"type": "uint256"
						},
						{
							"indexed": false,
							"internalType": "uint256",
							"name": "Per_id",
							"type": "uint256"
						}
					],
					"name": "Mod_Per_id",
					"type": "event"
				},
				{
					"constant": false,
					"inputs": [
						{
							"internalType": "uint256",
							"name": "R_id",
							"type": "uint256"
						},
						{
							"internalType": "uint256",
							"name": "Per_id",
							"type": "uint256"
						}
					],
					"name": "Table_add",
					"outputs": [
						{
							"internalType": "bool",
							"name": "",
							"type": "bool"
						}
					],
					"payable": false,
					"stateMutability": "nonpayable",
					"type": "function"
				},
				{
					"constant": false,
					"inputs": [
						{
							"internalType": "uint256",
							"name": "R_id",
							"type": "uint256"
						}
					],
					"name": "del_R_id",
					"outputs": [
						{
							"internalType": "bool",
							"name": "",
							"type": "bool"
						}
					],
					"payable": false,
					"stateMutability": "nonpayable",
					"type": "function"
				},
				{
					"constant": false,
					"inputs": [
						{
							"internalType": "uint256",
							"name": "R_id",
							"type": "uint256"
						}
					],
					"name": "getPer_idByR_id",
					"outputs": [
						{
							"internalType": "uint256",
							"name": "",
							"type": "uint256"
						}
					],
					"payable": false,
					"stateMutability": "nonpayable",
					"type": "function"
				},
				{
					"constant": false,
					"inputs": [
						{
							"internalType": "uint256",
							"name": "R_id",
							"type": "uint256"
						},
						{
							"internalType": "uint256",
							"name": "Per_id",
							"type": "uint256"
						}
					],
					"name": "mod_Per_id",
					"outputs": [
						{
							"internalType": "bool",
							"name": "",
							"type": "bool"
						}
					],
					"payable": false,
					"stateMutability": "nonpayable",
					"type": "function"
				},
				{
					"constant": true,
					"inputs": [
						{
							"internalType": "uint256",
							"name": "",
							"type": "uint256"
						}
					],
					"name": "rt",
					"outputs": [
						{
							"internalType": "uint256",
							"name": "R_id",
							"type": "uint256"
						},
						{
							"internalType": "uint256",
							"name": "Per_id",
							"type": "uint256"
						}
					],
					"payable": false,
					"stateMutability": "view",
					"type": "function"
				},
				{
					"constant": true,
					"inputs": [],
					"name": "user",
					"outputs": [
						{
							"internalType": "address",
							"name": "",
							"type": "address"
						}
					],
					"payable": false,
					"stateMutability": "view",
					"type": "function"
				}
			],
			"devdoc": {
				"methods": {}
			},
			"evm": {
				"assembly": "    /* \"contracts/AccessControl/Calculator.sol\":58:1363  contract Calculator {... */\n  mstore(0x40, 0x80)\n  callvalue\n    /* \"--CODEGEN--\":8:17   */\n  dup1\n    /* \"--CODEGEN--\":5:7   */\n  iszero\n  tag_1\n  jumpi\n    /* \"--CODEGEN--\":30:31   */\n  0x00\n    /* \"--CODEGEN--\":27:28   */\n  dup1\n    /* \"--CODEGEN--\":20:32   */\n  revert\n    /* \"--CODEGEN--\":5:7   */\ntag_1:\n    /* \"contracts/AccessControl/Calculator.sol\":58:1363  contract Calculator {... */\n  pop\n  dataSize(sub_0)\n  dup1\n  dataOffset(sub_0)\n  0x00\n  codecopy\n  0x00\n  return\nstop\n\nsub_0: assembly {\n        /* \"contracts/AccessControl/Calculator.sol\":58:1363  contract Calculator {... */\n      mstore(0x40, 0x80)\n      callvalue\n        /* \"--CODEGEN--\":8:17   */\n      dup1\n        /* \"--CODEGEN--\":5:7   */\n      iszero\n      tag_1\n      jumpi\n        /* \"--CODEGEN--\":30:31   */\n      0x00\n        /* \"--CODEGEN--\":27:28   */\n      dup1\n        /* \"--CODEGEN--\":20:32   */\n      revert\n        /* \"--CODEGEN--\":5:7   */\n    tag_1:\n        /* \"contracts/AccessControl/Calculator.sol\":58:1363  contract Calculator {... */\n      pop\n      jumpi(tag_2, lt(calldatasize, 0x04))\n      shr(0xe0, calldataload(0x00))\n      dup1\n      0x22454f78\n      eq\n      tag_3\n      jumpi\n      dup1\n      0x4f8632ba\n      eq\n      tag_4\n      jumpi\n      dup1\n      0x876c2436\n      eq\n      tag_5\n      jumpi\n      dup1\n      0xcd767372\n      eq\n      tag_6\n      jumpi\n      dup1\n      0xe3952292\n      eq\n      tag_7\n      jumpi\n      dup1\n      0xf338230c\n      eq\n      tag_8\n      jumpi\n    tag_2:\n      0x00\n      dup1\n      revert\n        /* \"contracts/AccessControl/Calculator.sol\":493:719  function Table_add(uint256 R_id, uint256 Per_id) public returns(bool){... */\n    tag_3:\n      tag_9\n      0x04\n      dup1\n      calldatasize\n      sub\n      tag_10\n      swap2\n      swap1\n      dup2\n      add\n      swap1\n      jump(tag_11)\n    tag_10:\n      tag_12\n      jump\t// in\n    tag_9:\n      mload(0x40)\n      tag_13\n      swap2\n      swap1\n      jump(tag_14)\n    tag_13:\n      mload(0x40)\n      dup1\n      swap2\n      sub\n      swap1\n      return\n        /* \"contracts/AccessControl/Calculator.sol\":85:104  address public user */\n    tag_4:\n      tag_15\n      tag_16\n      jump\t// in\n    tag_15:\n      mload(0x40)\n      tag_17\n      swap2\n      swap1\n      jump(tag_18)\n    tag_17:\n      mload(0x40)\n      dup1\n      swap2\n      sub\n      swap1\n      return\n        /* \"contracts/AccessControl/Calculator.sol\":725:972  function getPer_idByR_id(uint256 R_id) public returns(uint256){... */\n    tag_5:\n      tag_19\n      0x04\n      dup1\n      calldatasize\n      sub\n      tag_20\n      swap2\n      swap1\n      dup2\n      add\n      swap1\n      jump(tag_21)\n    tag_20:\n      tag_22\n      jump\t// in\n    tag_19:\n      mload(0x40)\n      tag_23\n      swap2\n      swap1\n      jump(tag_24)\n    tag_23:\n      mload(0x40)\n      dup1\n      swap2\n      sub\n      swap1\n      return\n        /* \"contracts/AccessControl/Calculator.sol\":1167:1361  function mod_Per_id(uint256 R_id, uint Per_id)public returns(bool){... */\n    tag_6:\n      tag_25\n      0x04\n      dup1\n      calldatasize\n      sub\n      tag_26\n      swap2\n      swap1\n      dup2\n      add\n      swap1\n      jump(tag_11)\n    tag_26:\n      tag_27\n      jump\t// in\n    tag_25:\n      mload(0x40)\n      tag_28\n      swap2\n      swap1\n      jump(tag_14)\n    tag_28:\n      mload(0x40)\n      dup1\n      swap2\n      sub\n      swap1\n      return\n        /* \"contracts/AccessControl/Calculator.sol\":320:358  mapping(uint256=>Role_table) public rt */\n    tag_7:\n      tag_29\n      0x04\n      dup1\n      calldatasize\n      sub\n      tag_30\n      swap2\n      swap1\n      dup2\n      add\n      swap1\n      jump(tag_21)\n    tag_30:\n      tag_31\n      jump\t// in\n    tag_29:\n      mload(0x40)\n      tag_32\n      swap3\n      swap2\n      swap1\n      jump(tag_33)\n    tag_32:\n      mload(0x40)\n      dup1\n      swap2\n      sub\n      swap1\n      return\n        /* \"contracts/AccessControl/Calculator.sol\":978:1161  function del_R_id(uint256 R_id)public returns(bool){... */\n    tag_8:\n      tag_34\n      0x04\n      dup1\n      calldatasize\n      sub\n      tag_35\n      swap2\n      swap1\n      dup2\n      add\n      swap1\n      jump(tag_21)\n    tag_35:\n      tag_36\n      jump\t// in\n    tag_34:\n      mload(0x40)\n      tag_37\n      swap2\n      swap1\n      jump(tag_14)\n    tag_37:\n      mload(0x40)\n      dup1\n      swap2\n      sub\n      swap1\n      return\n        /* \"contracts/AccessControl/Calculator.sol\":493:719  function Table_add(uint256 R_id, uint256 Per_id) public returns(bool){... */\n    tag_12:\n        /* \"contracts/AccessControl/Calculator.sol\":557:561  bool */\n      0x00\n        /* \"contracts/AccessControl/Calculator.sol\":628:632  R_id */\n      dup3\n        /* \"contracts/AccessControl/Calculator.sol\":614:616  rt */\n      0x01\n        /* \"contracts/AccessControl/Calculator.sol\":614:622  rt[R_id] */\n      0x00\n        /* \"contracts/AccessControl/Calculator.sol\":617:621  R_id */\n      dup6\n        /* \"contracts/AccessControl/Calculator.sol\":614:622  rt[R_id] */\n      dup2\n      mstore\n      0x20\n      add\n      swap1\n      dup2\n      mstore\n      0x20\n      add\n      0x00\n      keccak256\n        /* \"contracts/AccessControl/Calculator.sol\":614:627  rt[R_id].R_id */\n      0x00\n      add\n        /* \"contracts/AccessControl/Calculator.sol\":614:632  rt[R_id].R_id=R_id */\n      dup2\n      swap1\n      sstore\n      pop\n        /* \"contracts/AccessControl/Calculator.sol\":658:664  Per_id */\n      dup2\n        /* \"contracts/AccessControl/Calculator.sol\":642:644  rt */\n      0x01\n        /* \"contracts/AccessControl/Calculator.sol\":642:650  rt[R_id] */\n      0x00\n        /* \"contracts/AccessControl/Calculator.sol\":645:649  R_id */\n      dup6\n        /* \"contracts/AccessControl/Calculator.sol\":642:650  rt[R_id] */\n      dup2\n      mstore\n      0x20\n      add\n      swap1\n      dup2\n      mstore\n      0x20\n      add\n      0x00\n      keccak256\n        /* \"contracts/AccessControl/Calculator.sol\":642:657  rt[R_id].Per_id */\n      0x01\n      add\n        /* \"contracts/AccessControl/Calculator.sol\":642:664  rt[R_id].Per_id=Per_id */\n      dup2\n      swap1\n      sstore\n      pop\n        /* \"contracts/AccessControl/Calculator.sol\":681:691  msg.sender */\n      caller\n        /* \"contracts/AccessControl/Calculator.sol\":674:678  user */\n      0x00\n      dup1\n        /* \"contracts/AccessControl/Calculator.sol\":674:691  user = msg.sender */\n      0x0100\n      exp\n      dup2\n      sload\n      dup2\n      0xffffffffffffffffffffffffffffffffffffffff\n      mul\n      not\n      and\n      swap1\n      dup4\n      0xffffffffffffffffffffffffffffffffffffffff\n      and\n      mul\n      or\n      swap1\n      sstore\n      pop\n        /* \"contracts/AccessControl/Calculator.sol\":708:712  true */\n      0x01\n        /* \"contracts/AccessControl/Calculator.sol\":701:712  return true */\n      swap1\n      pop\n        /* \"contracts/AccessControl/Calculator.sol\":493:719  function Table_add(uint256 R_id, uint256 Per_id) public returns(bool){... */\n      swap3\n      swap2\n      pop\n      pop\n      jump\t// out\n        /* \"contracts/AccessControl/Calculator.sol\":85:104  address public user */\n    tag_16:\n      0x00\n      dup1\n      swap1\n      sload\n      swap1\n      0x0100\n      exp\n      swap1\n      div\n      0xffffffffffffffffffffffffffffffffffffffff\n      and\n      dup2\n      jump\t// out\n        /* \"contracts/AccessControl/Calculator.sol\":725:972  function getPer_idByR_id(uint256 R_id) public returns(uint256){... */\n    tag_22:\n        /* \"contracts/AccessControl/Calculator.sol\":779:786  uint256 */\n      0x00\n        /* \"contracts/AccessControl/Calculator.sol\":884:905  GetPer_idByR_id(R_id) */\n      0x19ea98c6f20f70158da8303367ba856381aff5f6e7d5843651b7ca8103e9379b\n        /* \"contracts/AccessControl/Calculator.sol\":900:904  R_id */\n      dup3\n        /* \"contracts/AccessControl/Calculator.sol\":884:905  GetPer_idByR_id(R_id) */\n      mload(0x40)\n      tag_40\n      swap2\n      swap1\n      jump(tag_24)\n    tag_40:\n      mload(0x40)\n      dup1\n      swap2\n      sub\n      swap1\n      log1\n        /* \"contracts/AccessControl/Calculator.sol\":922:932  msg.sender */\n      caller\n        /* \"contracts/AccessControl/Calculator.sol\":915:919  user */\n      0x00\n      dup1\n        /* \"contracts/AccessControl/Calculator.sol\":915:932  user = msg.sender */\n      0x0100\n      exp\n      dup2\n      sload\n      dup2\n      0xffffffffffffffffffffffffffffffffffffffff\n      mul\n      not\n      and\n      swap1\n      dup4\n      0xffffffffffffffffffffffffffffffffffffffff\n      and\n      mul\n      or\n      swap1\n      sstore\n      pop\n        /* \"contracts/AccessControl/Calculator.sol\":950:952  rt */\n      0x01\n        /* \"contracts/AccessControl/Calculator.sol\":950:958  rt[R_id] */\n      0x00\n        /* \"contracts/AccessControl/Calculator.sol\":953:957  R_id */\n      dup4\n        /* \"contracts/AccessControl/Calculator.sol\":950:958  rt[R_id] */\n      dup2\n      mstore\n      0x20\n      add\n      swap1\n      dup2\n      mstore\n      0x20\n      add\n      0x00\n      keccak256\n        /* \"contracts/AccessControl/Calculator.sol\":950:965  rt[R_id].Per_id */\n      0x01\n      add\n      sload\n        /* \"contracts/AccessControl/Calculator.sol\":943:965  return rt[R_id].Per_id */\n      swap1\n      pop\n        /* \"contracts/AccessControl/Calculator.sol\":725:972  function getPer_idByR_id(uint256 R_id) public returns(uint256){... */\n      swap2\n      swap1\n      pop\n      jump\t// out\n        /* \"contracts/AccessControl/Calculator.sol\":1167:1361  function mod_Per_id(uint256 R_id, uint Per_id)public returns(bool){... */\n    tag_27:\n        /* \"contracts/AccessControl/Calculator.sol\":1228:1232  bool */\n      0x00\n        /* \"contracts/AccessControl/Calculator.sol\":1282:1288  Per_id */\n      dup2\n        /* \"contracts/AccessControl/Calculator.sol\":1264:1266  rt */\n      0x01\n        /* \"contracts/AccessControl/Calculator.sol\":1264:1272  rt[R_id] */\n      0x00\n        /* \"contracts/AccessControl/Calculator.sol\":1267:1271  R_id */\n      dup6\n        /* \"contracts/AccessControl/Calculator.sol\":1264:1272  rt[R_id] */\n      dup2\n      mstore\n      0x20\n      add\n      swap1\n      dup2\n      mstore\n      0x20\n      add\n      0x00\n      keccak256\n        /* \"contracts/AccessControl/Calculator.sol\":1264:1279  rt[R_id].Per_id */\n      0x01\n      add\n        /* \"contracts/AccessControl/Calculator.sol\":1264:1288  rt[R_id].Per_id = Per_id */\n      dup2\n      swap1\n      sstore\n      pop\n        /* \"contracts/AccessControl/Calculator.sol\":1303:1327  Mod_Per_id(R_id, Per_id) */\n      0xd600e6a6ef2866d9f5713a46a9a5decb57849d8da2f943806d93333a8a0ff695\n        /* \"contracts/AccessControl/Calculator.sol\":1314:1318  R_id */\n      dup4\n        /* \"contracts/AccessControl/Calculator.sol\":1320:1326  Per_id */\n      dup4\n        /* \"contracts/AccessControl/Calculator.sol\":1303:1327  Mod_Per_id(R_id, Per_id) */\n      mload(0x40)\n      tag_42\n      swap3\n      swap2\n      swap1\n      jump(tag_33)\n    tag_42:\n      mload(0x40)\n      dup1\n      swap2\n      sub\n      swap1\n      log1\n        /* \"contracts/AccessControl/Calculator.sol\":1344:1354  msg.sender */\n      caller\n        /* \"contracts/AccessControl/Calculator.sol\":1337:1341  user */\n      0x00\n      dup1\n        /* \"contracts/AccessControl/Calculator.sol\":1337:1354  user = msg.sender */\n      0x0100\n      exp\n      dup2\n      sload\n      dup2\n      0xffffffffffffffffffffffffffffffffffffffff\n      mul\n      not\n      and\n      swap1\n      dup4\n      0xffffffffffffffffffffffffffffffffffffffff\n      and\n      mul\n      or\n      swap1\n      sstore\n      pop\n        /* \"contracts/AccessControl/Calculator.sol\":1167:1361  function mod_Per_id(uint256 R_id, uint Per_id)public returns(bool){... */\n      swap3\n      swap2\n      pop\n      pop\n      jump\t// out\n        /* \"contracts/AccessControl/Calculator.sol\":320:358  mapping(uint256=>Role_table) public rt */\n    tag_31:\n      mstore(0x20, 0x01)\n      dup1\n      0x00\n      mstore\n      keccak256(0x00, 0x40)\n      0x00\n      swap2\n      pop\n      swap1\n      pop\n      dup1\n      0x00\n      add\n      sload\n      swap1\n      dup1\n      0x01\n      add\n      sload\n      swap1\n      pop\n      dup3\n      jump\t// out\n        /* \"contracts/AccessControl/Calculator.sol\":978:1161  function del_R_id(uint256 R_id)public returns(bool){... */\n    tag_36:\n        /* \"contracts/AccessControl/Calculator.sol\":1024:1028  bool */\n      0x00\n        /* \"contracts/AccessControl/Calculator.sol\":1069:1071  rt */\n      0x01\n        /* \"contracts/AccessControl/Calculator.sol\":1069:1077  rt[R_id] */\n      0x00\n        /* \"contracts/AccessControl/Calculator.sol\":1072:1076  R_id */\n      dup4\n        /* \"contracts/AccessControl/Calculator.sol\":1069:1077  rt[R_id] */\n      dup2\n      mstore\n      0x20\n      add\n      swap1\n      dup2\n      mstore\n      0x20\n      add\n      0x00\n      keccak256\n      0x00\n        /* \"contracts/AccessControl/Calculator.sol\":1062:1077  delete rt[R_id] */\n      dup1\n      dup3\n      add\n      0x00\n      swap1\n      sstore\n      0x01\n      dup3\n      add\n      0x00\n      swap1\n      sstore\n      pop\n      pop\n        /* \"contracts/AccessControl/Calculator.sol\":1092:1106  Del_R_id(R_id) */\n      0x190aa48b69992e0709d7a8bec37a15bb8551e1455c2c20553a1c7a1b5bc7d022\n        /* \"contracts/AccessControl/Calculator.sol\":1101:1105  R_id */\n      dup3\n        /* \"contracts/AccessControl/Calculator.sol\":1092:1106  Del_R_id(R_id) */\n      mload(0x40)\n      tag_44\n      swap2\n      swap1\n      jump(tag_24)\n    tag_44:\n      mload(0x40)\n      dup1\n      swap2\n      sub\n      swap1\n      log1\n        /* \"contracts/AccessControl/Calculator.sol\":1123:1133  msg.sender */\n      caller\n        /* \"contracts/AccessControl/Calculator.sol\":1116:1120  user */\n      0x00\n      dup1\n        /* \"contracts/AccessControl/Calculator.sol\":1116:1133  user = msg.sender */\n      0x0100\n      exp\n      dup2\n      sload\n      dup2\n      0xffffffffffffffffffffffffffffffffffffffff\n      mul\n      not\n      and\n      swap1\n      dup4\n      0xffffffffffffffffffffffffffffffffffffffff\n      and\n      mul\n      or\n      swap1\n      sstore\n      pop\n        /* \"contracts/AccessControl/Calculator.sol\":1150:1154  true */\n      0x01\n        /* \"contracts/AccessControl/Calculator.sol\":1143:1154  return true */\n      swap1\n      pop\n        /* \"contracts/AccessControl/Calculator.sol\":978:1161  function del_R_id(uint256 R_id)public returns(bool){... */\n      swap2\n      swap1\n      pop\n      jump\t// out\n        /* \"--CODEGEN--\":5:135   */\n    tag_46:\n      0x00\n        /* \"--CODEGEN--\":85:91   */\n      dup2\n        /* \"--CODEGEN--\":72:92   */\n      calldataload\n        /* \"--CODEGEN--\":63:92   */\n      swap1\n      pop\n        /* \"--CODEGEN--\":97:130   */\n      tag_47\n        /* \"--CODEGEN--\":124:129   */\n      dup2\n        /* \"--CODEGEN--\":97:130   */\n      jump(tag_48)\n    tag_47:\n        /* \"--CODEGEN--\":57:135   */\n      swap3\n      swap2\n      pop\n      pop\n      jump\n        /* \"--CODEGEN--\":142:383   */\n    tag_21:\n      0x00\n        /* \"--CODEGEN--\":246:248   */\n      0x20\n        /* \"--CODEGEN--\":234:243   */\n      dup3\n        /* \"--CODEGEN--\":225:232   */\n      dup5\n        /* \"--CODEGEN--\":221:244   */\n      sub\n        /* \"--CODEGEN--\":217:249   */\n      slt\n        /* \"--CODEGEN--\":214:216   */\n      iszero\n      tag_49\n      jumpi\n        /* \"--CODEGEN--\":262:263   */\n      0x00\n        /* \"--CODEGEN--\":259:260   */\n      dup1\n        /* \"--CODEGEN--\":252:264   */\n      revert\n        /* \"--CODEGEN--\":214:216   */\n    tag_49:\n        /* \"--CODEGEN--\":297:298   */\n      0x00\n        /* \"--CODEGEN--\":314:367   */\n      tag_50\n        /* \"--CODEGEN--\":359:366   */\n      dup5\n        /* \"--CODEGEN--\":350:356   */\n      dup3\n        /* \"--CODEGEN--\":339:348   */\n      dup6\n        /* \"--CODEGEN--\":335:357   */\n      add\n        /* \"--CODEGEN--\":314:367   */\n      jump(tag_46)\n    tag_50:\n        /* \"--CODEGEN--\":304:367   */\n      swap2\n      pop\n        /* \"--CODEGEN--\":276:373   */\n      pop\n        /* \"--CODEGEN--\":208:383   */\n      swap3\n      swap2\n      pop\n      pop\n      jump\n        /* \"--CODEGEN--\":390:756   */\n    tag_11:\n      0x00\n      dup1\n        /* \"--CODEGEN--\":511:513   */\n      0x40\n        /* \"--CODEGEN--\":499:508   */\n      dup4\n        /* \"--CODEGEN--\":490:497   */\n      dup6\n        /* \"--CODEGEN--\":486:509   */\n      sub\n        /* \"--CODEGEN--\":482:514   */\n      slt\n        /* \"--CODEGEN--\":479:481   */\n      iszero\n      tag_51\n      jumpi\n        /* \"--CODEGEN--\":527:528   */\n      0x00\n        /* \"--CODEGEN--\":524:525   */\n      dup1\n        /* \"--CODEGEN--\":517:529   */\n      revert\n        /* \"--CODEGEN--\":479:481   */\n    tag_51:\n        /* \"--CODEGEN--\":562:563   */\n      0x00\n        /* \"--CODEGEN--\":579:632   */\n      tag_52\n        /* \"--CODEGEN--\":624:631   */\n      dup6\n        /* \"--CODEGEN--\":615:621   */\n      dup3\n        /* \"--CODEGEN--\":604:613   */\n      dup7\n        /* \"--CODEGEN--\":600:622   */\n      add\n        /* \"--CODEGEN--\":579:632   */\n      jump(tag_46)\n    tag_52:\n        /* \"--CODEGEN--\":569:632   */\n      swap3\n      pop\n        /* \"--CODEGEN--\":541:638   */\n      pop\n        /* \"--CODEGEN--\":669:671   */\n      0x20\n        /* \"--CODEGEN--\":687:740   */\n      tag_53\n        /* \"--CODEGEN--\":732:739   */\n      dup6\n        /* \"--CODEGEN--\":723:729   */\n      dup3\n        /* \"--CODEGEN--\":712:721   */\n      dup7\n        /* \"--CODEGEN--\":708:730   */\n      add\n        /* \"--CODEGEN--\":687:740   */\n      jump(tag_46)\n    tag_53:\n        /* \"--CODEGEN--\":677:740   */\n      swap2\n      pop\n        /* \"--CODEGEN--\":648:746   */\n      pop\n        /* \"--CODEGEN--\":473:756   */\n      swap3\n      pop\n      swap3\n      swap1\n      pop\n      jump\n        /* \"--CODEGEN--\":763:876   */\n    tag_54:\n        /* \"--CODEGEN--\":846:870   */\n      tag_55\n        /* \"--CODEGEN--\":864:869   */\n      dup2\n        /* \"--CODEGEN--\":846:870   */\n      jump(tag_56)\n    tag_55:\n        /* \"--CODEGEN--\":841:844   */\n      dup3\n        /* \"--CODEGEN--\":834:871   */\n      mstore\n        /* \"--CODEGEN--\":828:876   */\n      pop\n      pop\n      jump\n        /* \"--CODEGEN--\":883:987   */\n    tag_57:\n        /* \"--CODEGEN--\":960:981   */\n      tag_58\n        /* \"--CODEGEN--\":975:980   */\n      dup2\n        /* \"--CODEGEN--\":960:981   */\n      jump(tag_59)\n    tag_58:\n        /* \"--CODEGEN--\":955:958   */\n      dup3\n        /* \"--CODEGEN--\":948:982   */\n      mstore\n        /* \"--CODEGEN--\":942:987   */\n      pop\n      pop\n      jump\n        /* \"--CODEGEN--\":994:1107   */\n    tag_60:\n        /* \"--CODEGEN--\":1077:1101   */\n      tag_61\n        /* \"--CODEGEN--\":1095:1100   */\n      dup2\n        /* \"--CODEGEN--\":1077:1101   */\n      jump(tag_62)\n    tag_61:\n        /* \"--CODEGEN--\":1072:1075   */\n      dup3\n        /* \"--CODEGEN--\":1065:1102   */\n      mstore\n        /* \"--CODEGEN--\":1059:1107   */\n      pop\n      pop\n      jump\n        /* \"--CODEGEN--\":1114:1327   */\n    tag_18:\n      0x00\n        /* \"--CODEGEN--\":1232:1234   */\n      0x20\n        /* \"--CODEGEN--\":1221:1230   */\n      dup3\n        /* \"--CODEGEN--\":1217:1235   */\n      add\n        /* \"--CODEGEN--\":1209:1235   */\n      swap1\n      pop\n        /* \"--CODEGEN--\":1246:1317   */\n      tag_63\n        /* \"--CODEGEN--\":1314:1315   */\n      0x00\n        /* \"--CODEGEN--\":1303:1312   */\n      dup4\n        /* \"--CODEGEN--\":1299:1316   */\n      add\n        /* \"--CODEGEN--\":1290:1296   */\n      dup5\n        /* \"--CODEGEN--\":1246:1317   */\n      jump(tag_54)\n    tag_63:\n        /* \"--CODEGEN--\":1203:1327   */\n      swap3\n      swap2\n      pop\n      pop\n      jump\n        /* \"--CODEGEN--\":1334:1535   */\n    tag_14:\n      0x00\n        /* \"--CODEGEN--\":1446:1448   */\n      0x20\n        /* \"--CODEGEN--\":1435:1444   */\n      dup3\n        /* \"--CODEGEN--\":1431:1449   */\n      add\n        /* \"--CODEGEN--\":1423:1449   */\n      swap1\n      pop\n        /* \"--CODEGEN--\":1460:1525   */\n      tag_64\n        /* \"--CODEGEN--\":1522:1523   */\n      0x00\n        /* \"--CODEGEN--\":1511:1520   */\n      dup4\n        /* \"--CODEGEN--\":1507:1524   */\n      add\n        /* \"--CODEGEN--\":1498:1504   */\n      dup5\n        /* \"--CODEGEN--\":1460:1525   */\n      jump(tag_57)\n    tag_64:\n        /* \"--CODEGEN--\":1417:1535   */\n      swap3\n      swap2\n      pop\n      pop\n      jump\n        /* \"--CODEGEN--\":1542:1755   */\n    tag_24:\n      0x00\n        /* \"--CODEGEN--\":1660:1662   */\n      0x20\n        /* \"--CODEGEN--\":1649:1658   */\n      dup3\n        /* \"--CODEGEN--\":1645:1663   */\n      add\n        /* \"--CODEGEN--\":1637:1663   */\n      swap1\n      pop\n        /* \"--CODEGEN--\":1674:1745   */\n      tag_65\n        /* \"--CODEGEN--\":1742:1743   */\n      0x00\n        /* \"--CODEGEN--\":1731:1740   */\n      dup4\n        /* \"--CODEGEN--\":1727:1744   */\n      add\n        /* \"--CODEGEN--\":1718:1724   */\n      dup5\n        /* \"--CODEGEN--\":1674:1745   */\n      jump(tag_60)\n    tag_65:\n        /* \"--CODEGEN--\":1631:1755   */\n      swap3\n      swap2\n      pop\n      pop\n      jump\n        /* \"--CODEGEN--\":1762:2086   */\n    tag_33:\n      0x00\n        /* \"--CODEGEN--\":1908:1910   */\n      0x40\n        /* \"--CODEGEN--\":1897:1906   */\n      dup3\n        /* \"--CODEGEN--\":1893:1911   */\n      add\n        /* \"--CODEGEN--\":1885:1911   */\n      swap1\n      pop\n        /* \"--CODEGEN--\":1922:1993   */\n      tag_66\n        /* \"--CODEGEN--\":1990:1991   */\n      0x00\n        /* \"--CODEGEN--\":1979:1988   */\n      dup4\n        /* \"--CODEGEN--\":1975:1992   */\n      add\n        /* \"--CODEGEN--\":1966:1972   */\n      dup6\n        /* \"--CODEGEN--\":1922:1993   */\n      jump(tag_60)\n    tag_66:\n        /* \"--CODEGEN--\":2004:2076   */\n      tag_67\n        /* \"--CODEGEN--\":2072:2074   */\n      0x20\n        /* \"--CODEGEN--\":2061:2070   */\n      dup4\n        /* \"--CODEGEN--\":2057:2075   */\n      add\n        /* \"--CODEGEN--\":2048:2054   */\n      dup5\n        /* \"--CODEGEN--\":2004:2076   */\n      jump(tag_60)\n    tag_67:\n        /* \"--CODEGEN--\":1879:2086   */\n      swap4\n      swap3\n      pop\n      pop\n      pop\n      jump\n        /* \"--CODEGEN--\":2093:2184   */\n    tag_56:\n      0x00\n        /* \"--CODEGEN--\":2155:2179   */\n      tag_68\n        /* \"--CODEGEN--\":2173:2178   */\n      dup3\n        /* \"--CODEGEN--\":2155:2179   */\n      jump(tag_69)\n    tag_68:\n        /* \"--CODEGEN--\":2144:2179   */\n      swap1\n      pop\n        /* \"--CODEGEN--\":2138:2184   */\n      swap2\n      swap1\n      pop\n      jump\n        /* \"--CODEGEN--\":2191:2276   */\n    tag_59:\n      0x00\n        /* \"--CODEGEN--\":2264:2269   */\n      dup2\n        /* \"--CODEGEN--\":2257:2270   */\n      iszero\n        /* \"--CODEGEN--\":2250:2271   */\n      iszero\n        /* \"--CODEGEN--\":2239:2271   */\n      swap1\n      pop\n        /* \"--CODEGEN--\":2233:2276   */\n      swap2\n      swap1\n      pop\n      jump\n        /* \"--CODEGEN--\":2283:2404   */\n    tag_69:\n      0x00\n        /* \"--CODEGEN--\":2356:2398   */\n      0xffffffffffffffffffffffffffffffffffffffff\n        /* \"--CODEGEN--\":2349:2354   */\n      dup3\n        /* \"--CODEGEN--\":2345:2399   */\n      and\n        /* \"--CODEGEN--\":2334:2399   */\n      swap1\n      pop\n        /* \"--CODEGEN--\":2328:2404   */\n      swap2\n      swap1\n      pop\n      jump\n        /* \"--CODEGEN--\":2411:2483   */\n    tag_62:\n      0x00\n        /* \"--CODEGEN--\":2473:2478   */\n      dup2\n        /* \"--CODEGEN--\":2462:2478   */\n      swap1\n      pop\n        /* \"--CODEGEN--\":2456:2483   */\n      swap2\n      swap1\n      pop\n      jump\n        /* \"--CODEGEN--\":2490:2607   */\n    tag_48:\n        /* \"--CODEGEN--\":2559:2583   */\n      tag_70\n        /* \"--CODEGEN--\":2577:2582   */\n      dup2\n        /* \"--CODEGEN--\":2559:2583   */\n      jump(tag_62)\n    tag_70:\n        /* \"--CODEGEN--\":2552:2557   */\n      dup2\n        /* \"--CODEGEN--\":2549:2584   */\n      eq\n        /* \"--CODEGEN--\":2539:2541   */\n      tag_71\n      jumpi\n        /* \"--CODEGEN--\":2598:2599   */\n      0x00\n        /* \"--CODEGEN--\":2595:2596   */\n      dup1\n        /* \"--CODEGEN--\":2588:2600   */\n      revert\n        /* \"--CODEGEN--\":2539:2541   */\n    tag_71:\n        /* \"--CODEGEN--\":2533:2607   */\n      pop\n      jump\n\n    auxdata: 0xa365627a7a72315820eee221dde1b42cad065a83db60e8081b59eea7231c6eb08a7e921313d2eadaa56c6578706572696d656e74616cf564736f6c63430005110040\n}\n",
				"bytecode": {
					"linkReferences": {},
					"object": "608060405234801561001057600080fd5b506105df806100206000396000f3fe608060405234801561001057600080fd5b50600436106100625760003560e01c806322454f78146100675780634f8632ba14610097578063876c2436146100b5578063cd767372146100e5578063e395229214610115578063f338230c14610146575b600080fd5b610081600480360361007c919081019061045a565b610176565b60405161008e91906104de565b60405180910390f35b61009f6101f8565b6040516100ac91906104c3565b60405180910390f35b6100cf60048036036100ca9190810190610431565b61021d565b6040516100dc91906104f9565b60405180910390f35b6100ff60048036036100fa919081019061045a565b6102b4565b60405161010c91906104de565b60405180910390f35b61012f600480360361012a9190810190610431565b610350565b60405161013d929190610514565b60405180910390f35b610160600480360361015b9190810190610431565b610374565b60405161016d91906104de565b60405180910390f35b6000826001600085815260200190815260200160002060000181905550816001600085815260200190815260200160002060010181905550336000806101000a81548173ffffffffffffffffffffffffffffffffffffffff021916908373ffffffffffffffffffffffffffffffffffffffff1602179055506001905092915050565b6000809054906101000a900473ffffffffffffffffffffffffffffffffffffffff1681565b60007f19ea98c6f20f70158da8303367ba856381aff5f6e7d5843651b7ca8103e9379b8260405161024e91906104f9565b60405180910390a1336000806101000a81548173ffffffffffffffffffffffffffffffffffffffff021916908373ffffffffffffffffffffffffffffffffffffffff16021790555060016000838152602001908152602001600020600101549050919050565b60008160016000858152602001908152602001600020600101819055507fd600e6a6ef2866d9f5713a46a9a5decb57849d8da2f943806d93333a8a0ff6958383604051610302929190610514565b60405180910390a1336000806101000a81548173ffffffffffffffffffffffffffffffffffffffff021916908373ffffffffffffffffffffffffffffffffffffffff16021790555092915050565b60016020528060005260406000206000915090508060000154908060010154905082565b600060016000838152602001908152602001600020600080820160009055600182016000905550507f190aa48b69992e0709d7a8bec37a15bb8551e1455c2c20553a1c7a1b5bc7d022826040516103cb91906104f9565b60405180910390a1336000806101000a81548173ffffffffffffffffffffffffffffffffffffffff021916908373ffffffffffffffffffffffffffffffffffffffff16021790555060019050919050565b60008135905061042b81610585565b92915050565b60006020828403121561044357600080fd5b60006104518482850161041c565b91505092915050565b6000806040838503121561046d57600080fd5b600061047b8582860161041c565b925050602061048c8582860161041c565b9150509250929050565b61049f8161053d565b82525050565b6104ae8161054f565b82525050565b6104bd8161057b565b82525050565b60006020820190506104d86000830184610496565b92915050565b60006020820190506104f360008301846104a5565b92915050565b600060208201905061050e60008301846104b4565b92915050565b600060408201905061052960008301856104b4565b61053660208301846104b4565b9392505050565b60006105488261055b565b9050919050565b60008115159050919050565b600073ffffffffffffffffffffffffffffffffffffffff82169050919050565b6000819050919050565b61058e8161057b565b811461059957600080fd5b5056fea365627a7a72315820eee221dde1b42cad065a83db60e8081b59eea7231c6eb08a7e921313d2eadaa56c6578706572696d656e74616cf564736f6c63430005110040",
					"opcodes": "PUSH1 0x80 PUSH1 0x40 MSTORE CALLVALUE DUP1 ISZERO PUSH2 0x10 JUMPI PUSH1 0x0 DUP1 REVERT JUMPDEST POP PUSH2 0x5DF DUP1 PUSH2 0x20 PUSH1 0x0 CODECOPY PUSH1 0x0 RETURN INVALID PUSH1 0x80 PUSH1 0x40 MSTORE CALLVALUE DUP1 ISZERO PUSH2 0x10 JUMPI PUSH1 0x0 DUP1 REVERT JUMPDEST POP PUSH1 0x4 CALLDATASIZE LT PUSH2 0x62 JUMPI PUSH1 0x0 CALLDATALOAD PUSH1 0xE0 SHR DUP1 PUSH4 0x22454F78 EQ PUSH2 0x67 JUMPI DUP1 PUSH4 0x4F8632BA EQ PUSH2 0x97 JUMPI DUP1 PUSH4 0x876C2436 EQ PUSH2 0xB5 JUMPI DUP1 PUSH4 0xCD767372 EQ PUSH2 0xE5 JUMPI DUP1 PUSH4 0xE3952292 EQ PUSH2 0x115 JUMPI DUP1 PUSH4 0xF338230C EQ PUSH2 0x146 JUMPI JUMPDEST PUSH1 0x0 DUP1 REVERT JUMPDEST PUSH2 0x81 PUSH1 0x4 DUP1 CALLDATASIZE SUB PUSH2 0x7C SWAP2 SWAP1 DUP2 ADD SWAP1 PUSH2 0x45A JUMP JUMPDEST PUSH2 0x176 JUMP JUMPDEST PUSH1 0x40 MLOAD PUSH2 0x8E SWAP2 SWAP1 PUSH2 0x4DE JUMP JUMPDEST PUSH1 0x40 MLOAD DUP1 SWAP2 SUB SWAP1 RETURN JUMPDEST PUSH2 0x9F PUSH2 0x1F8 JUMP JUMPDEST PUSH1 0x40 MLOAD PUSH2 0xAC SWAP2 SWAP1 PUSH2 0x4C3 JUMP JUMPDEST PUSH1 0x40 MLOAD DUP1 SWAP2 SUB SWAP1 RETURN JUMPDEST PUSH2 0xCF PUSH1 0x4 DUP1 CALLDATASIZE SUB PUSH2 0xCA SWAP2 SWAP1 DUP2 ADD SWAP1 PUSH2 0x431 JUMP JUMPDEST PUSH2 0x21D JUMP JUMPDEST PUSH1 0x40 MLOAD PUSH2 0xDC SWAP2 SWAP1 PUSH2 0x4F9 JUMP JUMPDEST PUSH1 0x40 MLOAD DUP1 SWAP2 SUB SWAP1 RETURN JUMPDEST PUSH2 0xFF PUSH1 0x4 DUP1 CALLDATASIZE SUB PUSH2 0xFA SWAP2 SWAP1 DUP2 ADD SWAP1 PUSH2 0x45A JUMP JUMPDEST PUSH2 0x2B4 JUMP JUMPDEST PUSH1 0x40 MLOAD PUSH2 0x10C SWAP2 SWAP1 PUSH2 0x4DE JUMP JUMPDEST PUSH1 0x40 MLOAD DUP1 SWAP2 SUB SWAP1 RETURN JUMPDEST PUSH2 0x12F PUSH1 0x4 DUP1 CALLDATASIZE SUB PUSH2 0x12A SWAP2 SWAP1 DUP2 ADD SWAP1 PUSH2 0x431 JUMP JUMPDEST PUSH2 0x350 JUMP JUMPDEST PUSH1 0x40 MLOAD PUSH2 0x13D SWAP3 SWAP2 SWAP1 PUSH2 0x514 JUMP JUMPDEST PUSH1 0x40 MLOAD DUP1 SWAP2 SUB SWAP1 RETURN JUMPDEST PUSH2 0x160 PUSH1 0x4 DUP1 CALLDATASIZE SUB PUSH2 0x15B SWAP2 SWAP1 DUP2 ADD SWAP1 PUSH2 0x431 JUMP JUMPDEST PUSH2 0x374 JUMP JUMPDEST PUSH1 0x40 MLOAD PUSH2 0x16D SWAP2 SWAP1 PUSH2 0x4DE JUMP JUMPDEST PUSH1 0x40 MLOAD DUP1 SWAP2 SUB SWAP1 RETURN JUMPDEST PUSH1 0x0 DUP3 PUSH1 0x1 PUSH1 0x0 DUP6 DUP2 MSTORE PUSH1 0x20 ADD SWAP1 DUP2 MSTORE PUSH1 0x20 ADD PUSH1 0x0 KECCAK256 PUSH1 0x0 ADD DUP2 SWAP1 SSTORE POP DUP2 PUSH1 0x1 PUSH1 0x0 DUP6 DUP2 MSTORE PUSH1 0x20 ADD SWAP1 DUP2 MSTORE PUSH1 0x20 ADD PUSH1 0x0 KECCAK256 PUSH1 0x1 ADD DUP2 SWAP1 SSTORE POP CALLER PUSH1 0x0 DUP1 PUSH2 0x100 EXP DUP2 SLOAD DUP2 PUSH20 0xFFFFFFFFFFFFFFFFFFFFFFFFFFFFFFFFFFFFFFFF MUL NOT AND SWAP1 DUP4 PUSH20 0xFFFFFFFFFFFFFFFFFFFFFFFFFFFFFFFFFFFFFFFF AND MUL OR SWAP1 SSTORE POP PUSH1 0x1 SWAP1 POP SWAP3 SWAP2 POP POP JUMP JUMPDEST PUSH1 0x0 DUP1 SWAP1 SLOAD SWAP1 PUSH2 0x100 EXP SWAP1 DIV PUSH20 0xFFFFFFFFFFFFFFFFFFFFFFFFFFFFFFFFFFFFFFFF AND DUP2 JUMP JUMPDEST PUSH1 0x0 PUSH32 0x19EA98C6F20F70158DA8303367BA856381AFF5F6E7D5843651B7CA8103E9379B DUP3 PUSH1 0x40 MLOAD PUSH2 0x24E SWAP2 SWAP1 PUSH2 0x4F9 JUMP JUMPDEST PUSH1 0x40 MLOAD DUP1 SWAP2 SUB SWAP1 LOG1 CALLER PUSH1 0x0 DUP1 PUSH2 0x100 EXP DUP2 SLOAD DUP2 PUSH20 0xFFFFFFFFFFFFFFFFFFFFFFFFFFFFFFFFFFFFFFFF MUL NOT AND SWAP1 DUP4 PUSH20 0xFFFFFFFFFFFFFFFFFFFFFFFFFFFFFFFFFFFFFFFF AND MUL OR SWAP1 SSTORE POP PUSH1 0x1 PUSH1 0x0 DUP4 DUP2 MSTORE PUSH1 0x20 ADD SWAP1 DUP2 MSTORE PUSH1 0x20 ADD PUSH1 0x0 KECCAK256 PUSH1 0x1 ADD SLOAD SWAP1 POP SWAP2 SWAP1 POP JUMP JUMPDEST PUSH1 0x0 DUP2 PUSH1 0x1 PUSH1 0x0 DUP6 DUP2 MSTORE PUSH1 0x20 ADD SWAP1 DUP2 MSTORE PUSH1 0x20 ADD PUSH1 0x0 KECCAK256 PUSH1 0x1 ADD DUP2 SWAP1 SSTORE POP PUSH32 0xD600E6A6EF2866D9F5713A46A9A5DECB57849D8DA2F943806D93333A8A0FF695 DUP4 DUP4 PUSH1 0x40 MLOAD PUSH2 0x302 SWAP3 SWAP2 SWAP1 PUSH2 0x514 JUMP JUMPDEST PUSH1 0x40 MLOAD DUP1 SWAP2 SUB SWAP1 LOG1 CALLER PUSH1 0x0 DUP1 PUSH2 0x100 EXP DUP2 SLOAD DUP2 PUSH20 0xFFFFFFFFFFFFFFFFFFFFFFFFFFFFFFFFFFFFFFFF MUL NOT AND SWAP1 DUP4 PUSH20 0xFFFFFFFFFFFFFFFFFFFFFFFFFFFFFFFFFFFFFFFF AND MUL OR SWAP1 SSTORE POP SWAP3 SWAP2 POP POP JUMP JUMPDEST PUSH1 0x1 PUSH1 0x20 MSTORE DUP1 PUSH1 0x0 MSTORE PUSH1 0x40 PUSH1 0x0 KECCAK256 PUSH1 0x0 SWAP2 POP SWAP1 POP DUP1 PUSH1 0x0 ADD SLOAD SWAP1 DUP1 PUSH1 0x1 ADD SLOAD SWAP1 POP DUP3 JUMP JUMPDEST PUSH1 0x0 PUSH1 0x1 PUSH1 0x0 DUP4 DUP2 MSTORE PUSH1 0x20 ADD SWAP1 DUP2 MSTORE PUSH1 0x20 ADD PUSH1 0x0 KECCAK256 PUSH1 0x0 DUP1 DUP3 ADD PUSH1 0x0 SWAP1 SSTORE PUSH1 0x1 DUP3 ADD PUSH1 0x0 SWAP1 SSTORE POP POP PUSH32 0x190AA48B69992E0709D7A8BEC37A15BB8551E1455C2C20553A1C7A1B5BC7D022 DUP3 PUSH1 0x40 MLOAD PUSH2 0x3CB SWAP2 SWAP1 PUSH2 0x4F9 JUMP JUMPDEST PUSH1 0x40 MLOAD DUP1 SWAP2 SUB SWAP1 LOG1 CALLER PUSH1 0x0 DUP1 PUSH2 0x100 EXP DUP2 SLOAD DUP2 PUSH20 0xFFFFFFFFFFFFFFFFFFFFFFFFFFFFFFFFFFFFFFFF MUL NOT AND SWAP1 DUP4 PUSH20 0xFFFFFFFFFFFFFFFFFFFFFFFFFFFFFFFFFFFFFFFF AND MUL OR SWAP1 SSTORE POP PUSH1 0x1 SWAP1 POP SWAP2 SWAP1 POP JUMP JUMPDEST PUSH1 0x0 DUP2 CALLDATALOAD SWAP1 POP PUSH2 0x42B DUP2 PUSH2 0x585 JUMP JUMPDEST SWAP3 SWAP2 POP POP JUMP JUMPDEST PUSH1 0x0 PUSH1 0x20 DUP3 DUP5 SUB SLT ISZERO PUSH2 0x443 JUMPI PUSH1 0x0 DUP1 REVERT JUMPDEST PUSH1 0x0 PUSH2 0x451 DUP5 DUP3 DUP6 ADD PUSH2 0x41C JUMP JUMPDEST SWAP2 POP POP SWAP3 SWAP2 POP POP JUMP JUMPDEST PUSH1 0x0 DUP1 PUSH1 0x40 DUP4 DUP6 SUB SLT ISZERO PUSH2 0x46D JUMPI PUSH1 0x0 DUP1 REVERT JUMPDEST PUSH1 0x0 PUSH2 0x47B DUP6 DUP3 DUP7 ADD PUSH2 0x41C JUMP JUMPDEST SWAP3 POP POP PUSH1 0x20 PUSH2 0x48C DUP6 DUP3 DUP7 ADD PUSH2 0x41C JUMP JUMPDEST SWAP2 POP POP SWAP3 POP SWAP3 SWAP1 POP JUMP JUMPDEST PUSH2 0x49F DUP2 PUSH2 0x53D JUMP JUMPDEST DUP3 MSTORE POP POP JUMP JUMPDEST PUSH2 0x4AE DUP2 PUSH2 0x54F JUMP JUMPDEST DUP3 MSTORE POP POP JUMP JUMPDEST PUSH2 0x4BD DUP2 PUSH2 0x57B JUMP JUMPDEST DUP3 MSTORE POP POP JUMP JUMPDEST PUSH1 0x0 PUSH1 0x20 DUP3 ADD SWAP1 POP PUSH2 0x4D8 PUSH1 0x0 DUP4 ADD DUP5 PUSH2 0x496 JUMP JUMPDEST SWAP3 SWAP2 POP POP JUMP JUMPDEST PUSH1 0x0 PUSH1 0x20 DUP3 ADD SWAP1 POP PUSH2 0x4F3 PUSH1 0x0 DUP4 ADD DUP5 PUSH2 0x4A5 JUMP JUMPDEST SWAP3 SWAP2 POP POP JUMP JUMPDEST PUSH1 0x0 PUSH1 0x20 DUP3 ADD SWAP1 POP PUSH2 0x50E PUSH1 0x0 DUP4 ADD DUP5 PUSH2 0x4B4 JUMP JUMPDEST SWAP3 SWAP2 POP POP JUMP JUMPDEST PUSH1 0x0 PUSH1 0x40 DUP3 ADD SWAP1 POP PUSH2 0x529 PUSH1 0x0 DUP4 ADD DUP6 PUSH2 0x4B4 JUMP JUMPDEST PUSH2 0x536 PUSH1 0x20 DUP4 ADD DUP5 PUSH2 0x4B4 JUMP JUMPDEST SWAP4 SWAP3 POP POP POP JUMP JUMPDEST PUSH1 0x0 PUSH2 0x548 DUP3 PUSH2 0x55B JUMP JUMPDEST SWAP1 POP SWAP2 SWAP1 POP JUMP JUMPDEST PUSH1 0x0 DUP2 ISZERO ISZERO SWAP1 POP SWAP2 SWAP1 POP JUMP JUMPDEST PUSH1 0x0 PUSH20 0xFFFFFFFFFFFFFFFFFFFFFFFFFFFFFFFFFFFFFFFF DUP3 AND SWAP1 POP SWAP2 SWAP1 POP JUMP JUMPDEST PUSH1 0x0 DUP2 SWAP1 POP SWAP2 SWAP1 POP JUMP JUMPDEST PUSH2 0x58E DUP2 PUSH2 0x57B JUMP JUMPDEST DUP2 EQ PUSH2 0x599 JUMPI PUSH1 0x0 DUP1 REVERT JUMPDEST POP JUMP INVALID LOG3 PUSH6 0x627A7A723158 KECCAK256 0xEE 0xE2 0x21 0xDD 0xE1 0xB4 0x2C 0xAD MOD GAS DUP4 0xDB PUSH1 0xE8 ADDMOD SHL MSIZE 0xEE 0xA7 0x23 SHR PUSH15 0xB08A7E921313D2EADAA56C65787065 PUSH19 0x696D656E74616CF564736F6C63430005110040 "
				},
				"gasEstimates": {
					"creation": {
						"codeDepositCost": "300600",
						"executionCost": "337",
						"totalCost": "300937"
					},
					"external": {
						"Table_add(uint256,uint256)": "infinite",
						"del_R_id(uint256)": "infinite",
						"getPer_idByR_id(uint256)": "infinite",
						"mod_Per_id(uint256,uint256)": "infinite",
						"rt(uint256)": "infinite",
						"user()": "1214"
					}
				},
				"methodIdentifiers": {
					"Table_add(uint256,uint256)": "22454f78",
					"del_R_id(uint256)": "f338230c",
					"getPer_idByR_id(uint256)": "876c2436",
					"mod_Per_id(uint256,uint256)": "cd767372",
					"rt(uint256)": "e3952292",
					"user()": "4f8632ba"
				}
			},
			"storageLayout": {
				"storage": [
					{
						"astId": 4,
						"contract": "contracts/AccessControl/Calculator.sol:Calculator",
						"label": "user",
						"offset": 0,
						"slot": "0",
						"type": "t_address"
					},
					{
						"astId": 13,
						"contract": "contracts/AccessControl/Calculator.sol:Calculator",
						"label": "rt",
						"offset": 0,
						"slot": "1",
						"type": "t_mapping(t_uint256,t_struct(Role_table)9_storage)"
					}
				],
				"types": {
					"t_address": {
						"encoding": "inplace",
						"label": "address",
						"numberOfBytes": "20"
					},
					"t_mapping(t_uint256,t_struct(Role_table)9_storage)": {
						"encoding": "mapping",
						"key": "t_uint256",
						"label": "mapping(uint256 => struct Calculator.Role_table)",
						"numberOfBytes": "32",
						"value": "t_struct(Role_table)9_storage"
					},
					"t_struct(Role_table)9_storage": {
						"encoding": "inplace",
						"label": "struct Calculator.Role_table",
						"members": [
							{
								"astId": 6,
								"contract": "contracts/AccessControl/Calculator.sol:Calculator",
								"label": "R_id",
								"offset": 0,
								"slot": "0",
								"type": "t_uint256"
							},
							{
								"astId": 8,
								"contract": "contracts/AccessControl/Calculator.sol:Calculator",
								"label": "Per_id",
								"offset": 0,
								"slot": "1",
								"type": "t_uint256"
							}
						],
						"numberOfBytes": "64"
					},
					"t_uint256": {
						"encoding": "inplace",
						"label": "uint256",
						"numberOfBytes": "32"
					}
				}
			},
			"userdoc": {
				"methods": {}
			}
		}
	}
}