{
	"data": {
		"bytecode": {
			"linkReferences": {},
			"object": "60806040523480156200001157600080fd5b5060405162001283380380620012838339818101604052620000379190810190620000ef565b81600360006101000a81548173ffffffffffffffffffffffffffffffffffffffff021916908373ffffffffffffffffffffffffffffffffffffffff16021790555080600460006101000a81548173ffffffffffffffffffffffffffffffffffffffff021916908373ffffffffffffffffffffffffffffffffffffffff1602179055505050620001c0565b600081519050620000d2816200018c565b92915050565b600081519050620000e981620001a6565b92915050565b600080604083850312156200010357600080fd5b60006200011385828601620000d8565b92505060206200012685828601620000c1565b9150509250929050565b60006200013d826200016c565b9050919050565b6000620001518262000130565b9050919050565b6000620001658262000130565b9050919050565b600073ffffffffffffffffffffffffffffffffffffffff82169050919050565b620001978162000144565b8114620001a357600080fd5b50565b620001b18162000158565b8114620001bd57600080fd5b50565b6110b380620001d06000396000f3fe608060405234801561001057600080fd5b506004361061009e5760003560e01c80637521357d116100665780637521357d1461015d57806386b714e21461018d578063876c2436146101ab578063b16c6ee7146101db578063c3da42b81461020b5761009e565b806324c8c698146100a357806333294523146100c15780634f8632ba146100f15780634fdc16581461010f578063611fd4b71461013f575b600080fd5b6100ab610229565b6040516100b89190610dca565b60405180910390f35b6100db60048036036100d69190810190610ab9565b6102c7565b6040516100e89190610d79565b60405180910390f35b6100f961041f565b6040516101069190610d5e565b60405180910390f35b61012960048036036101249190810190610a7d565b610444565b6040516101369190610e0e565b60405180910390f35b610147610596565b6040516101549190610e0e565b60405180910390f35b61017760048036036101729190810190610bb3565b61059c565b6040516101849190610d79565b60405180910390f35b610195610721565b6040516101a29190610daf565b60405180910390f35b6101c560048036036101c09190810190610c07565b610747565b6040516101d29190610e0e565b60405180910390f35b6101f560048036036101f09190810190610b31565b6107fd565b6040516102029190610dec565b60405180910390f35b6102136108b6565b6040516102209190610d94565b60405180910390f35b60018054600181600116156101000203166002900480601f0160208091040260200160405190810160405280929190818152602001828054600181600116156101000203166002900480156102bf5780601f10610294576101008083540402835291602001916102bf565b820191906000526020600020905b8154815290600101906020018083116102a257829003601f168201915b505050505081565b60008060608573ffffffffffffffffffffffffffffffffffffffff1685856040516024016102f6929190610e52565b6040516020818303038152906040527f22454f78000000000000000000000000000000000000000000000000000000007bffffffffffffffffffffffffffffffffffffffffffffffffffffffff19166020820180517bffffffffffffffffffffffffffffffffffffffffffffffffffffffff83818316178352505050506040516103809190610d47565b600060405180830381855af49150503d80600081146103bb576040519150601f19603f3d011682016040523d82523d6000602084013e6103c0565b606091505b50915091507f6122fd3e9997be1f60c50cbe3194db7f42cf87a1907157b3cdd5e5adc8770f058585846040516103f893929190610e7b565b60405180910390a1808060200190516104149190810190610b08565b925050509392505050565b6000809054906101000a900473ffffffffffffffffffffffffffffffffffffffff1681565b60008060608473ffffffffffffffffffffffffffffffffffffffff16846040516024016104719190610e0e565b6040516020818303038152906040527f876c2436000000000000000000000000000000000000000000000000000000007bffffffffffffffffffffffffffffffffffffffffffffffffffffffff19166020820180517bffffffffffffffffffffffffffffffffffffffffffffffffffffffff83818316178352505050506040516104fb9190610d47565b600060405180830381855af49150503d8060008114610536576040519150601f19603f3d011682016040523d82523d6000602084013e61053b565b606091505b50915091507eae86be48edaa6a1a1a34cbebd7c74e6d503e90a081d5da2a6c659e932355e28483604051610570929190610e29565b60405180910390a18080602001905161058c9190810190610c30565b9250505092915050565b60025481565b6000600360009054906101000a900473ffffffffffffffffffffffffffffffffffffffff1673ffffffffffffffffffffffffffffffffffffffff1663b16c6ee7846040518263ffffffff1660e01b81526004016105f99190610dec565b60006040518083038186803b15801561061157600080fd5b505afa158015610625573d6000803e3d6000fd5b505050506040513d6000823e3d601f19601f8201168201806040525061064e9190810190610b72565b600190805190602001906106639291906108dc565b50600460009054906101000a900473ffffffffffffffffffffffffffffffffffffffff1673ffffffffffffffffffffffffffffffffffffffff1663876c2436836040518263ffffffff1660e01b81526004016106bf9190610e0e565b602060405180830381600087803b1580156106d957600080fd5b505af11580156106ed573d6000803e3d6000fd5b505050506040513d601f19601f820116820180604052506107119190810190610c30565b6002819055506001905092915050565b600360009054906101000a900473ffffffffffffffffffffffffffffffffffffffff1681565b6000600460009054906101000a900473ffffffffffffffffffffffffffffffffffffffff1673ffffffffffffffffffffffffffffffffffffffff1663876c2436836040518263ffffffff1660e01b81526004016107a49190610e0e565b602060405180830381600087803b1580156107be57600080fd5b505af11580156107d2573d6000803e3d6000fd5b505050506040513d601f19601f820116820180604052506107f69190810190610c30565b9050919050565b6060600360009054906101000a900473ffffffffffffffffffffffffffffffffffffffff1673ffffffffffffffffffffffffffffffffffffffff1663b16c6ee7836040518263ffffffff1660e01b815260040161085a9190610dec565b60006040518083038186803b15801561087257600080fd5b505afa158015610886573d6000803e3d6000fd5b505050506040513d6000823e3d601f19601f820116820180604052506108af9190810190610b72565b9050919050565b600460009054906101000a900473ffffffffffffffffffffffffffffffffffffffff1681565b828054600181600116156101000203166002900490600052602060002090601f016020900481019282601f1061091d57805160ff191683800117855561094b565b8280016001018555821561094b579182015b8281111561094a57825182559160200191906001019061092f565b5b509050610958919061095c565b5090565b61097e91905b8082111561097a576000816000905550600101610962565b5090565b90565b6000813590506109908161102b565b92915050565b6000815190506109a581611042565b92915050565b600082601f8301126109bc57600080fd5b81356109cf6109ca82610edf565b610eb2565b915080825260208301602083018583830111156109eb57600080fd5b6109f6838284610fd8565b50505092915050565b600082601f830112610a1057600080fd5b8151610a23610a1e82610edf565b610eb2565b91508082526020830160208301858383011115610a3f57600080fd5b610a4a838284610fe7565b50505092915050565b600081359050610a6281611059565b92915050565b600081519050610a7781611059565b92915050565b60008060408385031215610a9057600080fd5b6000610a9e85828601610981565b9250506020610aaf85828601610a53565b9150509250929050565b600080600060608486031215610ace57600080fd5b6000610adc86828701610981565b9350506020610aed86828701610a53565b9250506040610afe86828701610a53565b9150509250925092565b600060208284031215610b1a57600080fd5b6000610b2884828501610996565b91505092915050565b600060208284031215610b4357600080fd5b600082013567ffffffffffffffff811115610b5d57600080fd5b610b69848285016109ab565b91505092915050565b600060208284031215610b8457600080fd5b600082015167ffffffffffffffff811115610b9e57600080fd5b610baa848285016109ff565b91505092915050565b60008060408385031215610bc657600080fd5b600083013567ffffffffffffffff811115610be057600080fd5b610bec858286016109ab565b9250506020610bfd85828601610a53565b9150509250929050565b600060208284031215610c1957600080fd5b6000610c2784828501610a53565b91505092915050565b600060208284031215610c4257600080fd5b6000610c5084828501610a68565b91505092915050565b610c6281610f48565b82525050565b610c7181610f5a565b82525050565b6000610c8282610f0b565b610c8c8185610f2c565b9350610c9c818560208601610fe7565b80840191505092915050565b610cb181610f90565b82525050565b610cc081610fb4565b82525050565b6000610cd182610f21565b610cdb8185610f37565b9350610ceb818560208601610fe7565b610cf48161101a565b840191505092915050565b6000610d0a82610f16565b610d148185610f37565b9350610d24818560208601610fe7565b610d2d8161101a565b840191505092915050565b610d4181610f86565b82525050565b6000610d538284610c77565b915081905092915050565b6000602082019050610d736000830184610c59565b92915050565b6000602082019050610d8e6000830184610c68565b92915050565b6000602082019050610da96000830184610ca8565b92915050565b6000602082019050610dc46000830184610cb7565b92915050565b60006020820190508181036000830152610de48184610cff565b905092915050565b60006020820190508181036000830152610e068184610cc6565b905092915050565b6000602082019050610e236000830184610d38565b92915050565b6000604082019050610e3e6000830185610d38565b610e4b6020830184610c68565b9392505050565b6000604082019050610e676000830185610d38565b610e746020830184610d38565b9392505050565b6000606082019050610e906000830186610d38565b610e9d6020830185610d38565b610eaa6040830184610c68565b949350505050565b6000604051905081810181811067ffffffffffffffff82111715610ed557600080fd5b8060405250919050565b600067ffffffffffffffff821115610ef657600080fd5b601f19601f8301169050602081019050919050565b600081519050919050565b600081519050919050565b600081519050919050565b600081905092915050565b600082825260208201905092915050565b6000610f5382610f66565b9050919050565b60008115159050919050565b600073ffffffffffffffffffffffffffffffffffffffff82169050919050565b6000819050919050565b6000610f9b82610fa2565b9050919050565b6000610fad82610f66565b9050919050565b6000610fbf82610fc6565b9050919050565b6000610fd182610f66565b9050919050565b82818337600083830152505050565b60005b83811015611005578082015181840152602081019050610fea565b83811115611014576000848401525b50505050565b6000601f19601f8301169050919050565b61103481610f48565b811461103f57600080fd5b50565b61104b81610f5a565b811461105657600080fd5b50565b61106281610f86565b811461106d57600080fd5b5056fea365627a7a7231582019b1739947b81774b54b4fdb373cac41f4170fbbeedee67e00bd8164251c065a6c6578706572696d656e74616cf564736f6c63430005110040",
			"opcodes": "PUSH1 0x80 PUSH1 0x40 MSTORE CALLVALUE DUP1 ISZERO PUSH3 0x11 JUMPI PUSH1 0x0 DUP1 REVERT JUMPDEST POP PUSH1 0x40 MLOAD PUSH3 0x1283 CODESIZE SUB DUP1 PUSH3 0x1283 DUP4 CODECOPY DUP2 DUP2 ADD PUSH1 0x40 MSTORE PUSH3 0x37 SWAP2 SWAP1 DUP2 ADD SWAP1 PUSH3 0xEF JUMP JUMPDEST DUP2 PUSH1 0x3 PUSH1 0x0 PUSH2 0x100 EXP DUP2 SLOAD DUP2 PUSH20 0xFFFFFFFFFFFFFFFFFFFFFFFFFFFFFFFFFFFFFFFF MUL NOT AND SWAP1 DUP4 PUSH20 0xFFFFFFFFFFFFFFFFFFFFFFFFFFFFFFFFFFFFFFFF AND MUL OR SWAP1 SSTORE POP DUP1 PUSH1 0x4 PUSH1 0x0 PUSH2 0x100 EXP DUP2 SLOAD DUP2 PUSH20 0xFFFFFFFFFFFFFFFFFFFFFFFFFFFFFFFFFFFFFFFF MUL NOT AND SWAP1 DUP4 PUSH20 0xFFFFFFFFFFFFFFFFFFFFFFFFFFFFFFFFFFFFFFFF AND MUL OR SWAP1 SSTORE POP POP POP PUSH3 0x1C0 JUMP JUMPDEST PUSH1 0x0 DUP2 MLOAD SWAP1 POP PUSH3 0xD2 DUP2 PUSH3 0x18C JUMP JUMPDEST SWAP3 SWAP2 POP POP JUMP JUMPDEST PUSH1 0x0 DUP2 MLOAD SWAP1 POP PUSH3 0xE9 DUP2 PUSH3 0x1A6 JUMP JUMPDEST SWAP3 SWAP2 POP POP JUMP JUMPDEST PUSH1 0x0 DUP1 PUSH1 0x40 DUP4 DUP6 SUB SLT ISZERO PUSH3 0x103 JUMPI PUSH1 0x0 DUP1 REVERT JUMPDEST PUSH1 0x0 PUSH3 0x113 DUP6 DUP3 DUP7 ADD PUSH3 0xD8 JUMP JUMPDEST SWAP3 POP POP PUSH1 0x20 PUSH3 0x126 DUP6 DUP3 DUP7 ADD PUSH3 0xC1 JUMP JUMPDEST SWAP2 POP POP SWAP3 POP SWAP3 SWAP1 POP JUMP JUMPDEST PUSH1 0x0 PUSH3 0x13D DUP3 PUSH3 0x16C JUMP JUMPDEST SWAP1 POP SWAP2 SWAP1 POP JUMP JUMPDEST PUSH1 0x0 PUSH3 0x151 DUP3 PUSH3 0x130 JUMP JUMPDEST SWAP1 POP SWAP2 SWAP1 POP JUMP JUMPDEST PUSH1 0x0 PUSH3 0x165 DUP3 PUSH3 0x130 JUMP JUMPDEST SWAP1 POP SWAP2 SWAP1 POP JUMP JUMPDEST PUSH1 0x0 PUSH20 0xFFFFFFFFFFFFFFFFFFFFFFFFFFFFFFFFFFFFFFFF DUP3 AND SWAP1 POP SWAP2 SWAP1 POP JUMP JUMPDEST PUSH3 0x197 DUP2 PUSH3 0x144 JUMP JUMPDEST DUP2 EQ PUSH3 0x1A3 JUMPI PUSH1 0x0 DUP1 REVERT JUMPDEST POP JUMP JUMPDEST PUSH3 0x1B1 DUP2 PUSH3 0x158 JUMP JUMPDEST DUP2 EQ PUSH3 0x1BD JUMPI PUSH1 0x0 DUP1 REVERT JUMPDEST POP JUMP JUMPDEST PUSH2 0x10B3 DUP1 PUSH3 0x1D0 PUSH1 0x0 CODECOPY PUSH1 0x0 RETURN INVALID PUSH1 0x80 PUSH1 0x40 MSTORE CALLVALUE DUP1 ISZERO PUSH2 0x10 JUMPI PUSH1 0x0 DUP1 REVERT JUMPDEST POP PUSH1 0x4 CALLDATASIZE LT PUSH2 0x9E JUMPI PUSH1 0x0 CALLDATALOAD PUSH1 0xE0 SHR DUP1 PUSH4 0x7521357D GT PUSH2 0x66 JUMPI DUP1 PUSH4 0x7521357D EQ PUSH2 0x15D JUMPI DUP1 PUSH4 0x86B714E2 EQ PUSH2 0x18D JUMPI DUP1 PUSH4 0x876C2436 EQ PUSH2 0x1AB JUMPI DUP1 PUSH4 0xB16C6EE7 EQ PUSH2 0x1DB JUMPI DUP1 PUSH4 0xC3DA42B8 EQ PUSH2 0x20B JUMPI PUSH2 0x9E JUMP JUMPDEST DUP1 PUSH4 0x24C8C698 EQ PUSH2 0xA3 JUMPI DUP1 PUSH4 0x33294523 EQ PUSH2 0xC1 JUMPI DUP1 PUSH4 0x4F8632BA EQ PUSH2 0xF1 JUMPI DUP1 PUSH4 0x4FDC1658 EQ PUSH2 0x10F JUMPI DUP1 PUSH4 0x611FD4B7 EQ PUSH2 0x13F JUMPI JUMPDEST PUSH1 0x0 DUP1 REVERT JUMPDEST PUSH2 0xAB PUSH2 0x229 JUMP JUMPDEST PUSH1 0x40 MLOAD PUSH2 0xB8 SWAP2 SWAP1 PUSH2 0xDCA JUMP JUMPDEST PUSH1 0x40 MLOAD DUP1 SWAP2 SUB SWAP1 RETURN JUMPDEST PUSH2 0xDB PUSH1 0x4 DUP1 CALLDATASIZE SUB PUSH2 0xD6 SWAP2 SWAP1 DUP2 ADD SWAP1 PUSH2 0xAB9 JUMP JUMPDEST PUSH2 0x2C7 JUMP JUMPDEST PUSH1 0x40 MLOAD PUSH2 0xE8 SWAP2 SWAP1 PUSH2 0xD79 JUMP JUMPDEST PUSH1 0x40 MLOAD DUP1 SWAP2 SUB SWAP1 RETURN JUMPDEST PUSH2 0xF9 PUSH2 0x41F JUMP JUMPDEST PUSH1 0x40 MLOAD PUSH2 0x106 SWAP2 SWAP1 PUSH2 0xD5E JUMP JUMPDEST PUSH1 0x40 MLOAD DUP1 SWAP2 SUB SWAP1 RETURN JUMPDEST PUSH2 0x129 PUSH1 0x4 DUP1 CALLDATASIZE SUB PUSH2 0x124 SWAP2 SWAP1 DUP2 ADD SWAP1 PUSH2 0xA7D JUMP JUMPDEST PUSH2 0x444 JUMP JUMPDEST PUSH1 0x40 MLOAD PUSH2 0x136 SWAP2 SWAP1 PUSH2 0xE0E JUMP JUMPDEST PUSH1 0x40 MLOAD DUP1 SWAP2 SUB SWAP1 RETURN JUMPDEST PUSH2 0x147 PUSH2 0x596 JUMP JUMPDEST PUSH1 0x40 MLOAD PUSH2 0x154 SWAP2 SWAP1 PUSH2 0xE0E JUMP JUMPDEST PUSH1 0x40 MLOAD DUP1 SWAP2 SUB SWAP1 RETURN JUMPDEST PUSH2 0x177 PUSH1 0x4 DUP1 CALLDATASIZE SUB PUSH2 0x172 SWAP2 SWAP1 DUP2 ADD SWAP1 PUSH2 0xBB3 JUMP JUMPDEST PUSH2 0x59C JUMP JUMPDEST PUSH1 0x40 MLOAD PUSH2 0x184 SWAP2 SWAP1 PUSH2 0xD79 JUMP JUMPDEST PUSH1 0x40 MLOAD DUP1 SWAP2 SUB SWAP1 RETURN JUMPDEST PUSH2 0x195 PUSH2 0x721 JUMP JUMPDEST PUSH1 0x40 MLOAD PUSH2 0x1A2 SWAP2 SWAP1 PUSH2 0xDAF JUMP JUMPDEST PUSH1 0x40 MLOAD DUP1 SWAP2 SUB SWAP1 RETURN JUMPDEST PUSH2 0x1C5 PUSH1 0x4 DUP1 CALLDATASIZE SUB PUSH2 0x1C0 SWAP2 SWAP1 DUP2 ADD SWAP1 PUSH2 0xC07 JUMP JUMPDEST PUSH2 0x747 JUMP JUMPDEST PUSH1 0x40 MLOAD PUSH2 0x1D2 SWAP2 SWAP1 PUSH2 0xE0E JUMP JUMPDEST PUSH1 0x40 MLOAD DUP1 SWAP2 SUB SWAP1 RETURN JUMPDEST PUSH2 0x1F5 PUSH1 0x4 DUP1 CALLDATASIZE SUB PUSH2 0x1F0 SWAP2 SWAP1 DUP2 ADD SWAP1 PUSH2 0xB31 JUMP JUMPDEST PUSH2 0x7FD JUMP JUMPDEST PUSH1 0x40 MLOAD PUSH2 0x202 SWAP2 SWAP1 PUSH2 0xDEC JUMP JUMPDEST PUSH1 0x40 MLOAD DUP1 SWAP2 SUB SWAP1 RETURN JUMPDEST PUSH2 0x213 PUSH2 0x8B6 JUMP JUMPDEST PUSH1 0x40 MLOAD PUSH2 0x220 SWAP2 SWAP1 PUSH2 0xD94 JUMP JUMPDEST PUSH1 0x40 MLOAD DUP1 SWAP2 SUB SWAP1 RETURN JUMPDEST PUSH1 0x1 DUP1 SLOAD PUSH1 0x1 DUP2 PUSH1 0x1 AND ISZERO PUSH2 0x100 MUL SUB AND PUSH1 0x2 SWAP1 DIV DUP1 PUSH1 0x1F ADD PUSH1 0x20 DUP1 SWAP2 DIV MUL PUSH1 0x20 ADD PUSH1 0x40 MLOAD SWAP1 DUP2 ADD PUSH1 0x40 MSTORE DUP1 SWAP3 SWAP2 SWAP1 DUP2 DUP2 MSTORE PUSH1 0x20 ADD DUP3 DUP1 SLOAD PUSH1 0x1 DUP2 PUSH1 0x1 AND ISZERO PUSH2 0x100 MUL SUB AND PUSH1 0x2 SWAP1 DIV DUP1 ISZERO PUSH2 0x2BF JUMPI DUP1 PUSH1 0x1F LT PUSH2 0x294 JUMPI PUSH2 0x100 DUP1 DUP4 SLOAD DIV MUL DUP4 MSTORE SWAP2 PUSH1 0x20 ADD SWAP2 PUSH2 0x2BF JUMP JUMPDEST DUP3 ADD SWAP2 SWAP1 PUSH1 0x0 MSTORE PUSH1 0x20 PUSH1 0x0 KECCAK256 SWAP1 JUMPDEST DUP2 SLOAD DUP2 MSTORE SWAP1 PUSH1 0x1 ADD SWAP1 PUSH1 0x20 ADD DUP1 DUP4 GT PUSH2 0x2A2 JUMPI DUP3 SWAP1 SUB PUSH1 0x1F AND DUP3 ADD SWAP2 JUMPDEST POP POP POP POP POP DUP2 JUMP JUMPDEST PUSH1 0x0 DUP1 PUSH1 0x60 DUP6 PUSH20 0xFFFFFFFFFFFFFFFFFFFFFFFFFFFFFFFFFFFFFFFF AND DUP6 DUP6 PUSH1 0x40 MLOAD PUSH1 0x24 ADD PUSH2 0x2F6 SWAP3 SWAP2 SWAP1 PUSH2 0xE52 JUMP JUMPDEST PUSH1 0x40 MLOAD PUSH1 0x20 DUP2 DUP4 SUB SUB DUP2 MSTORE SWAP1 PUSH1 0x40 MSTORE PUSH32 0x22454F7800000000000000000000000000000000000000000000000000000000 PUSH28 0xFFFFFFFFFFFFFFFFFFFFFFFFFFFFFFFFFFFFFFFFFFFFFFFFFFFFFFFF NOT AND PUSH1 0x20 DUP3 ADD DUP1 MLOAD PUSH28 0xFFFFFFFFFFFFFFFFFFFFFFFFFFFFFFFFFFFFFFFFFFFFFFFFFFFFFFFF DUP4 DUP2 DUP4 AND OR DUP4 MSTORE POP POP POP POP PUSH1 0x40 MLOAD PUSH2 0x380 SWAP2 SWAP1 PUSH2 0xD47 JUMP JUMPDEST PUSH1 0x0 PUSH1 0x40 MLOAD DUP1 DUP4 SUB DUP2 DUP6 GAS DELEGATECALL SWAP2 POP POP RETURNDATASIZE DUP1 PUSH1 0x0 DUP2 EQ PUSH2 0x3BB JUMPI PUSH1 0x40 MLOAD SWAP2 POP PUSH1 0x1F NOT PUSH1 0x3F RETURNDATASIZE ADD AND DUP3 ADD PUSH1 0x40 MSTORE RETURNDATASIZE DUP3 MSTORE RETURNDATASIZE PUSH1 0x0 PUSH1 0x20 DUP5 ADD RETURNDATACOPY PUSH2 0x3C0 JUMP JUMPDEST PUSH1 0x60 SWAP2 POP JUMPDEST POP SWAP2 POP SWAP2 POP PUSH32 0x6122FD3E9997BE1F60C50CBE3194DB7F42CF87A1907157B3CDD5E5ADC8770F05 DUP6 DUP6 DUP5 PUSH1 0x40 MLOAD PUSH2 0x3F8 SWAP4 SWAP3 SWAP2 SWAP1 PUSH2 0xE7B JUMP JUMPDEST PUSH1 0x40 MLOAD DUP1 SWAP2 SUB SWAP1 LOG1 DUP1 DUP1 PUSH1 0x20 ADD SWAP1 MLOAD PUSH2 0x414 SWAP2 SWAP1 DUP2 ADD SWAP1 PUSH2 0xB08 JUMP JUMPDEST SWAP3 POP POP POP SWAP4 SWAP3 POP POP POP JUMP JUMPDEST PUSH1 0x0 DUP1 SWAP1 SLOAD SWAP1 PUSH2 0x100 EXP SWAP1 DIV PUSH20 0xFFFFFFFFFFFFFFFFFFFFFFFFFFFFFFFFFFFFFFFF AND DUP2 JUMP JUMPDEST PUSH1 0x0 DUP1 PUSH1 0x60 DUP5 PUSH20 0xFFFFFFFFFFFFFFFFFFFFFFFFFFFFFFFFFFFFFFFF AND DUP5 PUSH1 0x40 MLOAD PUSH1 0x24 ADD PUSH2 0x471 SWAP2 SWAP1 PUSH2 0xE0E JUMP JUMPDEST PUSH1 0x40 MLOAD PUSH1 0x20 DUP2 DUP4 SUB SUB DUP2 MSTORE SWAP1 PUSH1 0x40 MSTORE PUSH32 0x876C243600000000000000000000000000000000000000000000000000000000 PUSH28 0xFFFFFFFFFFFFFFFFFFFFFFFFFFFFFFFFFFFFFFFFFFFFFFFFFFFFFFFF NOT AND PUSH1 0x20 DUP3 ADD DUP1 MLOAD PUSH28 0xFFFFFFFFFFFFFFFFFFFFFFFFFFFFFFFFFFFFFFFFFFFFFFFFFFFFFFFF DUP4 DUP2 DUP4 AND OR DUP4 MSTORE POP POP POP POP PUSH1 0x40 MLOAD PUSH2 0x4FB SWAP2 SWAP1 PUSH2 0xD47 JUMP JUMPDEST PUSH1 0x0 PUSH1 0x40 MLOAD DUP1 DUP4 SUB DUP2 DUP6 GAS DELEGATECALL SWAP2 POP POP RETURNDATASIZE DUP1 PUSH1 0x0 DUP2 EQ PUSH2 0x536 JUMPI PUSH1 0x40 MLOAD SWAP2 POP PUSH1 0x1F NOT PUSH1 0x3F RETURNDATASIZE ADD AND DUP3 ADD PUSH1 0x40 MSTORE RETURNDATASIZE DUP3 MSTORE RETURNDATASIZE PUSH1 0x0 PUSH1 0x20 DUP5 ADD RETURNDATACOPY PUSH2 0x53B JUMP JUMPDEST PUSH1 0x60 SWAP2 POP JUMPDEST POP SWAP2 POP SWAP2 POP PUSH31 0xAE86BE48EDAA6A1A1A34CBEBD7C74E6D503E90A081D5DA2A6C659E932355E2 DUP5 DUP4 PUSH1 0x40 MLOAD PUSH2 0x570 SWAP3 SWAP2 SWAP1 PUSH2 0xE29 JUMP JUMPDEST PUSH1 0x40 MLOAD DUP1 SWAP2 SUB SWAP1 LOG1 DUP1 DUP1 PUSH1 0x20 ADD SWAP1 MLOAD PUSH2 0x58C SWAP2 SWAP1 DUP2 ADD SWAP1 PUSH2 0xC30 JUMP JUMPDEST SWAP3 POP POP POP SWAP3 SWAP2 POP POP JUMP JUMPDEST PUSH1 0x2 SLOAD DUP2 JUMP JUMPDEST PUSH1 0x0 PUSH1 0x3 PUSH1 0x0 SWAP1 SLOAD SWAP1 PUSH2 0x100 EXP SWAP1 DIV PUSH20 0xFFFFFFFFFFFFFFFFFFFFFFFFFFFFFFFFFFFFFFFF AND PUSH20 0xFFFFFFFFFFFFFFFFFFFFFFFFFFFFFFFFFFFFFFFF AND PUSH4 0xB16C6EE7 DUP5 PUSH1 0x40 MLOAD DUP3 PUSH4 0xFFFFFFFF AND PUSH1 0xE0 SHL DUP2 MSTORE PUSH1 0x4 ADD PUSH2 0x5F9 SWAP2 SWAP1 PUSH2 0xDEC JUMP JUMPDEST PUSH1 0x0 PUSH1 0x40 MLOAD DUP1 DUP4 SUB DUP2 DUP7 DUP1 EXTCODESIZE ISZERO DUP1 ISZERO PUSH2 0x611 JUMPI PUSH1 0x0 DUP1 REVERT JUMPDEST POP GAS STATICCALL ISZERO DUP1 ISZERO PUSH2 0x625 JUMPI RETURNDATASIZE PUSH1 0x0 DUP1 RETURNDATACOPY RETURNDATASIZE PUSH1 0x0 REVERT JUMPDEST POP POP POP POP PUSH1 0x40 MLOAD RETURNDATASIZE PUSH1 0x0 DUP3 RETURNDATACOPY RETURNDATASIZE PUSH1 0x1F NOT PUSH1 0x1F DUP3 ADD AND DUP3 ADD DUP1 PUSH1 0x40 MSTORE POP PUSH2 0x64E SWAP2 SWAP1 DUP2 ADD SWAP1 PUSH2 0xB72 JUMP JUMPDEST PUSH1 0x1 SWAP1 DUP1 MLOAD SWAP1 PUSH1 0x20 ADD SWAP1 PUSH2 0x663 SWAP3 SWAP2 SWAP1 PUSH2 0x8DC JUMP JUMPDEST POP PUSH1 0x4 PUSH1 0x0 SWAP1 SLOAD SWAP1 PUSH2 0x100 EXP SWAP1 DIV PUSH20 0xFFFFFFFFFFFFFFFFFFFFFFFFFFFFFFFFFFFFFFFF AND PUSH20 0xFFFFFFFFFFFFFFFFFFFFFFFFFFFFFFFFFFFFFFFF AND PUSH4 0x876C2436 DUP4 PUSH1 0x40 MLOAD DUP3 PUSH4 0xFFFFFFFF AND PUSH1 0xE0 SHL DUP2 MSTORE PUSH1 0x4 ADD PUSH2 0x6BF SWAP2 SWAP1 PUSH2 0xE0E JUMP JUMPDEST PUSH1 0x20 PUSH1 0x40 MLOAD DUP1 DUP4 SUB DUP2 PUSH1 0x0 DUP8 DUP1 EXTCODESIZE ISZERO DUP1 ISZERO PUSH2 0x6D9 JUMPI PUSH1 0x0 DUP1 REVERT JUMPDEST POP GAS CALL ISZERO DUP1 ISZERO PUSH2 0x6ED JUMPI RETURNDATASIZE PUSH1 0x0 DUP1 RETURNDATACOPY RETURNDATASIZE PUSH1 0x0 REVERT JUMPDEST POP POP POP POP PUSH1 0x40 MLOAD RETURNDATASIZE PUSH1 0x1F NOT PUSH1 0x1F DUP3 ADD AND DUP3 ADD DUP1 PUSH1 0x40 MSTORE POP PUSH2 0x711 SWAP2 SWAP1 DUP2 ADD SWAP1 PUSH2 0xC30 JUMP JUMPDEST PUSH1 0x2 DUP2 SWAP1 SSTORE POP PUSH1 0x1 SWAP1 POP SWAP3 SWAP2 POP POP JUMP JUMPDEST PUSH1 0x3 PUSH1 0x0 SWAP1 SLOAD SWAP1 PUSH2 0x100 EXP SWAP1 DIV PUSH20 0xFFFFFFFFFFFFFFFFFFFFFFFFFFFFFFFFFFFFFFFF AND DUP2 JUMP JUMPDEST PUSH1 0x0 PUSH1 0x4 PUSH1 0x0 SWAP1 SLOAD SWAP1 PUSH2 0x100 EXP SWAP1 DIV PUSH20 0xFFFFFFFFFFFFFFFFFFFFFFFFFFFFFFFFFFFFFFFF AND PUSH20 0xFFFFFFFFFFFFFFFFFFFFFFFFFFFFFFFFFFFFFFFF AND PUSH4 0x876C2436 DUP4 PUSH1 0x40 MLOAD DUP3 PUSH4 0xFFFFFFFF AND PUSH1 0xE0 SHL DUP2 MSTORE PUSH1 0x4 ADD PUSH2 0x7A4 SWAP2 SWAP1 PUSH2 0xE0E JUMP JUMPDEST PUSH1 0x20 PUSH1 0x40 MLOAD DUP1 DUP4 SUB DUP2 PUSH1 0x0 DUP8 DUP1 EXTCODESIZE ISZERO DUP1 ISZERO PUSH2 0x7BE JUMPI PUSH1 0x0 DUP1 REVERT JUMPDEST POP GAS CALL ISZERO DUP1 ISZERO PUSH2 0x7D2 JUMPI RETURNDATASIZE PUSH1 0x0 DUP1 RETURNDATACOPY RETURNDATASIZE PUSH1 0x0 REVERT JUMPDEST POP POP POP POP PUSH1 0x40 MLOAD RETURNDATASIZE PUSH1 0x1F NOT PUSH1 0x1F DUP3 ADD AND DUP3 ADD DUP1 PUSH1 0x40 MSTORE POP PUSH2 0x7F6 SWAP2 SWAP1 DUP2 ADD SWAP1 PUSH2 0xC30 JUMP JUMPDEST SWAP1 POP SWAP2 SWAP1 POP JUMP JUMPDEST PUSH1 0x60 PUSH1 0x3 PUSH1 0x0 SWAP1 SLOAD SWAP1 PUSH2 0x100 EXP SWAP1 DIV PUSH20 0xFFFFFFFFFFFFFFFFFFFFFFFFFFFFFFFFFFFFFFFF AND PUSH20 0xFFFFFFFFFFFFFFFFFFFFFFFFFFFFFFFFFFFFFFFF AND PUSH4 0xB16C6EE7 DUP4 PUSH1 0x40 MLOAD DUP3 PUSH4 0xFFFFFFFF AND PUSH1 0xE0 SHL DUP2 MSTORE PUSH1 0x4 ADD PUSH2 0x85A SWAP2 SWAP1 PUSH2 0xDEC JUMP JUMPDEST PUSH1 0x0 PUSH1 0x40 MLOAD DUP1 DUP4 SUB DUP2 DUP7 DUP1 EXTCODESIZE ISZERO DUP1 ISZERO PUSH2 0x872 JUMPI PUSH1 0x0 DUP1 REVERT JUMPDEST POP GAS STATICCALL ISZERO DUP1 ISZERO PUSH2 0x886 JUMPI RETURNDATASIZE PUSH1 0x0 DUP1 RETURNDATACOPY RETURNDATASIZE PUSH1 0x0 REVERT JUMPDEST POP POP POP POP PUSH1 0x40 MLOAD RETURNDATASIZE PUSH1 0x0 DUP3 RETURNDATACOPY RETURNDATASIZE PUSH1 0x1F NOT PUSH1 0x1F DUP3 ADD AND DUP3 ADD DUP1 PUSH1 0x40 MSTORE POP PUSH2 0x8AF SWAP2 SWAP1 DUP2 ADD SWAP1 PUSH2 0xB72 JUMP JUMPDEST SWAP1 POP SWAP2 SWAP1 POP JUMP JUMPDEST PUSH1 0x4 PUSH1 0x0 SWAP1 SLOAD SWAP1 PUSH2 0x100 EXP SWAP1 DIV PUSH20 0xFFFFFFFFFFFFFFFFFFFFFFFFFFFFFFFFFFFFFFFF AND DUP2 JUMP JUMPDEST DUP3 DUP1 SLOAD PUSH1 0x1 DUP2 PUSH1 0x1 AND ISZERO PUSH2 0x100 MUL SUB AND PUSH1 0x2 SWAP1 DIV SWAP1 PUSH1 0x0 MSTORE PUSH1 0x20 PUSH1 0x0 KECCAK256 SWAP1 PUSH1 0x1F ADD PUSH1 0x20 SWAP1 DIV DUP2 ADD SWAP3 DUP3 PUSH1 0x1F LT PUSH2 0x91D JUMPI DUP1 MLOAD PUSH1 0xFF NOT AND DUP4 DUP1 ADD OR DUP6 SSTORE PUSH2 0x94B JUMP JUMPDEST DUP3 DUP1 ADD PUSH1 0x1 ADD DUP6 SSTORE DUP3 ISZERO PUSH2 0x94B JUMPI SWAP2 DUP3 ADD JUMPDEST DUP3 DUP2 GT ISZERO PUSH2 0x94A JUMPI DUP3 MLOAD DUP3 SSTORE SWAP2 PUSH1 0x20 ADD SWAP2 SWAP1 PUSH1 0x1 ADD SWAP1 PUSH2 0x92F JUMP JUMPDEST JUMPDEST POP SWAP1 POP PUSH2 0x958 SWAP2 SWAP1 PUSH2 0x95C JUMP JUMPDEST POP SWAP1 JUMP JUMPDEST PUSH2 0x97E SWAP2 SWAP1 JUMPDEST DUP1 DUP3 GT ISZERO PUSH2 0x97A JUMPI PUSH1 0x0 DUP2 PUSH1 0x0 SWAP1 SSTORE POP PUSH1 0x1 ADD PUSH2 0x962 JUMP JUMPDEST POP SWAP1 JUMP JUMPDEST SWAP1 JUMP JUMPDEST PUSH1 0x0 DUP2 CALLDATALOAD SWAP1 POP PUSH2 0x990 DUP2 PUSH2 0x102B JUMP JUMPDEST SWAP3 SWAP2 POP POP JUMP JUMPDEST PUSH1 0x0 DUP2 MLOAD SWAP1 POP PUSH2 0x9A5 DUP2 PUSH2 0x1042 JUMP JUMPDEST SWAP3 SWAP2 POP POP JUMP JUMPDEST PUSH1 0x0 DUP3 PUSH1 0x1F DUP4 ADD SLT PUSH2 0x9BC JUMPI PUSH1 0x0 DUP1 REVERT JUMPDEST DUP2 CALLDATALOAD PUSH2 0x9CF PUSH2 0x9CA DUP3 PUSH2 0xEDF JUMP JUMPDEST PUSH2 0xEB2 JUMP JUMPDEST SWAP2 POP DUP1 DUP3 MSTORE PUSH1 0x20 DUP4 ADD PUSH1 0x20 DUP4 ADD DUP6 DUP4 DUP4 ADD GT ISZERO PUSH2 0x9EB JUMPI PUSH1 0x0 DUP1 REVERT JUMPDEST PUSH2 0x9F6 DUP4 DUP3 DUP5 PUSH2 0xFD8 JUMP JUMPDEST POP POP POP SWAP3 SWAP2 POP POP JUMP JUMPDEST PUSH1 0x0 DUP3 PUSH1 0x1F DUP4 ADD SLT PUSH2 0xA10 JUMPI PUSH1 0x0 DUP1 REVERT JUMPDEST DUP2 MLOAD PUSH2 0xA23 PUSH2 0xA1E DUP3 PUSH2 0xEDF JUMP JUMPDEST PUSH2 0xEB2 JUMP JUMPDEST SWAP2 POP DUP1 DUP3 MSTORE PUSH1 0x20 DUP4 ADD PUSH1 0x20 DUP4 ADD DUP6 DUP4 DUP4 ADD GT ISZERO PUSH2 0xA3F JUMPI PUSH1 0x0 DUP1 REVERT JUMPDEST PUSH2 0xA4A DUP4 DUP3 DUP5 PUSH2 0xFE7 JUMP JUMPDEST POP POP POP SWAP3 SWAP2 POP POP JUMP JUMPDEST PUSH1 0x0 DUP2 CALLDATALOAD SWAP1 POP PUSH2 0xA62 DUP2 PUSH2 0x1059 JUMP JUMPDEST SWAP3 SWAP2 POP POP JUMP JUMPDEST PUSH1 0x0 DUP2 MLOAD SWAP1 POP PUSH2 0xA77 DUP2 PUSH2 0x1059 JUMP JUMPDEST SWAP3 SWAP2 POP POP JUMP JUMPDEST PUSH1 0x0 DUP1 PUSH1 0x40 DUP4 DUP6 SUB SLT ISZERO PUSH2 0xA90 JUMPI PUSH1 0x0 DUP1 REVERT JUMPDEST PUSH1 0x0 PUSH2 0xA9E DUP6 DUP3 DUP7 ADD PUSH2 0x981 JUMP JUMPDEST SWAP3 POP POP PUSH1 0x20 PUSH2 0xAAF DUP6 DUP3 DUP7 ADD PUSH2 0xA53 JUMP JUMPDEST SWAP2 POP POP SWAP3 POP SWAP3 SWAP1 POP JUMP JUMPDEST PUSH1 0x0 DUP1 PUSH1 0x0 PUSH1 0x60 DUP5 DUP7 SUB SLT ISZERO PUSH2 0xACE JUMPI PUSH1 0x0 DUP1 REVERT JUMPDEST PUSH1 0x0 PUSH2 0xADC DUP7 DUP3 DUP8 ADD PUSH2 0x981 JUMP JUMPDEST SWAP4 POP POP PUSH1 0x20 PUSH2 0xAED DUP7 DUP3 DUP8 ADD PUSH2 0xA53 JUMP JUMPDEST SWAP3 POP POP PUSH1 0x40 PUSH2 0xAFE DUP7 DUP3 DUP8 ADD PUSH2 0xA53 JUMP JUMPDEST SWAP2 POP POP SWAP3 POP SWAP3 POP SWAP3 JUMP JUMPDEST PUSH1 0x0 PUSH1 0x20 DUP3 DUP5 SUB SLT ISZERO PUSH2 0xB1A JUMPI PUSH1 0x0 DUP1 REVERT JUMPDEST PUSH1 0x0 PUSH2 0xB28 DUP5 DUP3 DUP6 ADD PUSH2 0x996 JUMP JUMPDEST SWAP2 POP POP SWAP3 SWAP2 POP POP JUMP JUMPDEST PUSH1 0x0 PUSH1 0x20 DUP3 DUP5 SUB SLT ISZERO PUSH2 0xB43 JUMPI PUSH1 0x0 DUP1 REVERT JUMPDEST PUSH1 0x0 DUP3 ADD CALLDATALOAD PUSH8 0xFFFFFFFFFFFFFFFF DUP2 GT ISZERO PUSH2 0xB5D JUMPI PUSH1 0x0 DUP1 REVERT JUMPDEST PUSH2 0xB69 DUP5 DUP3 DUP6 ADD PUSH2 0x9AB JUMP JUMPDEST SWAP2 POP POP SWAP3 SWAP2 POP POP JUMP JUMPDEST PUSH1 0x0 PUSH1 0x20 DUP3 DUP5 SUB SLT ISZERO PUSH2 0xB84 JUMPI PUSH1 0x0 DUP1 REVERT JUMPDEST PUSH1 0x0 DUP3 ADD MLOAD PUSH8 0xFFFFFFFFFFFFFFFF DUP2 GT ISZERO PUSH2 0xB9E JUMPI PUSH1 0x0 DUP1 REVERT JUMPDEST PUSH2 0xBAA DUP5 DUP3 DUP6 ADD PUSH2 0x9FF JUMP JUMPDEST SWAP2 POP POP SWAP3 SWAP2 POP POP JUMP JUMPDEST PUSH1 0x0 DUP1 PUSH1 0x40 DUP4 DUP6 SUB SLT ISZERO PUSH2 0xBC6 JUMPI PUSH1 0x0 DUP1 REVERT JUMPDEST PUSH1 0x0 DUP4 ADD CALLDATALOAD PUSH8 0xFFFFFFFFFFFFFFFF DUP2 GT ISZERO PUSH2 0xBE0 JUMPI PUSH1 0x0 DUP1 REVERT JUMPDEST PUSH2 0xBEC DUP6 DUP3 DUP7 ADD PUSH2 0x9AB JUMP JUMPDEST SWAP3 POP POP PUSH1 0x20 PUSH2 0xBFD DUP6 DUP3 DUP7 ADD PUSH2 0xA53 JUMP JUMPDEST SWAP2 POP POP SWAP3 POP SWAP3 SWAP1 POP JUMP JUMPDEST PUSH1 0x0 PUSH1 0x20 DUP3 DUP5 SUB SLT ISZERO PUSH2 0xC19 JUMPI PUSH1 0x0 DUP1 REVERT JUMPDEST PUSH1 0x0 PUSH2 0xC27 DUP5 DUP3 DUP6 ADD PUSH2 0xA53 JUMP JUMPDEST SWAP2 POP POP SWAP3 SWAP2 POP POP JUMP JUMPDEST PUSH1 0x0 PUSH1 0x20 DUP3 DUP5 SUB SLT ISZERO PUSH2 0xC42 JUMPI PUSH1 0x0 DUP1 REVERT JUMPDEST PUSH1 0x0 PUSH2 0xC50 DUP5 DUP3 DUP6 ADD PUSH2 0xA68 JUMP JUMPDEST SWAP2 POP POP SWAP3 SWAP2 POP POP JUMP JUMPDEST PUSH2 0xC62 DUP2 PUSH2 0xF48 JUMP JUMPDEST DUP3 MSTORE POP POP JUMP JUMPDEST PUSH2 0xC71 DUP2 PUSH2 0xF5A JUMP JUMPDEST DUP3 MSTORE POP POP JUMP JUMPDEST PUSH1 0x0 PUSH2 0xC82 DUP3 PUSH2 0xF0B JUMP JUMPDEST PUSH2 0xC8C DUP2 DUP6 PUSH2 0xF2C JUMP JUMPDEST SWAP4 POP PUSH2 0xC9C DUP2 DUP6 PUSH1 0x20 DUP7 ADD PUSH2 0xFE7 JUMP JUMPDEST DUP1 DUP5 ADD SWAP2 POP POP SWAP3 SWAP2 POP POP JUMP JUMPDEST PUSH2 0xCB1 DUP2 PUSH2 0xF90 JUMP JUMPDEST DUP3 MSTORE POP POP JUMP JUMPDEST PUSH2 0xCC0 DUP2 PUSH2 0xFB4 JUMP JUMPDEST DUP3 MSTORE POP POP JUMP JUMPDEST PUSH1 0x0 PUSH2 0xCD1 DUP3 PUSH2 0xF21 JUMP JUMPDEST PUSH2 0xCDB DUP2 DUP6 PUSH2 0xF37 JUMP JUMPDEST SWAP4 POP PUSH2 0xCEB DUP2 DUP6 PUSH1 0x20 DUP7 ADD PUSH2 0xFE7 JUMP JUMPDEST PUSH2 0xCF4 DUP2 PUSH2 0x101A JUMP JUMPDEST DUP5 ADD SWAP2 POP POP SWAP3 SWAP2 POP POP JUMP JUMPDEST PUSH1 0x0 PUSH2 0xD0A DUP3 PUSH2 0xF16 JUMP JUMPDEST PUSH2 0xD14 DUP2 DUP6 PUSH2 0xF37 JUMP JUMPDEST SWAP4 POP PUSH2 0xD24 DUP2 DUP6 PUSH1 0x20 DUP7 ADD PUSH2 0xFE7 JUMP JUMPDEST PUSH2 0xD2D DUP2 PUSH2 0x101A JUMP JUMPDEST DUP5 ADD SWAP2 POP POP SWAP3 SWAP2 POP POP JUMP JUMPDEST PUSH2 0xD41 DUP2 PUSH2 0xF86 JUMP JUMPDEST DUP3 MSTORE POP POP JUMP JUMPDEST PUSH1 0x0 PUSH2 0xD53 DUP3 DUP5 PUSH2 0xC77 JUMP JUMPDEST SWAP2 POP DUP2 SWAP1 POP SWAP3 SWAP2 POP POP JUMP JUMPDEST PUSH1 0x0 PUSH1 0x20 DUP3 ADD SWAP1 POP PUSH2 0xD73 PUSH1 0x0 DUP4 ADD DUP5 PUSH2 0xC59 JUMP JUMPDEST SWAP3 SWAP2 POP POP JUMP JUMPDEST PUSH1 0x0 PUSH1 0x20 DUP3 ADD SWAP1 POP PUSH2 0xD8E PUSH1 0x0 DUP4 ADD DUP5 PUSH2 0xC68 JUMP JUMPDEST SWAP3 SWAP2 POP POP JUMP JUMPDEST PUSH1 0x0 PUSH1 0x20 DUP3 ADD SWAP1 POP PUSH2 0xDA9 PUSH1 0x0 DUP4 ADD DUP5 PUSH2 0xCA8 JUMP JUMPDEST SWAP3 SWAP2 POP POP JUMP JUMPDEST PUSH1 0x0 PUSH1 0x20 DUP3 ADD SWAP1 POP PUSH2 0xDC4 PUSH1 0x0 DUP4 ADD DUP5 PUSH2 0xCB7 JUMP JUMPDEST SWAP3 SWAP2 POP POP JUMP JUMPDEST PUSH1 0x0 PUSH1 0x20 DUP3 ADD SWAP1 POP DUP2 DUP2 SUB PUSH1 0x0 DUP4 ADD MSTORE PUSH2 0xDE4 DUP2 DUP5 PUSH2 0xCFF JUMP JUMPDEST SWAP1 POP SWAP3 SWAP2 POP POP JUMP JUMPDEST PUSH1 0x0 PUSH1 0x20 DUP3 ADD SWAP1 POP DUP2 DUP2 SUB PUSH1 0x0 DUP4 ADD MSTORE PUSH2 0xE06 DUP2 DUP5 PUSH2 0xCC6 JUMP JUMPDEST SWAP1 POP SWAP3 SWAP2 POP POP JUMP JUMPDEST PUSH1 0x0 PUSH1 0x20 DUP3 ADD SWAP1 POP PUSH2 0xE23 PUSH1 0x0 DUP4 ADD DUP5 PUSH2 0xD38 JUMP JUMPDEST SWAP3 SWAP2 POP POP JUMP JUMPDEST PUSH1 0x0 PUSH1 0x40 DUP3 ADD SWAP1 POP PUSH2 0xE3E PUSH1 0x0 DUP4 ADD DUP6 PUSH2 0xD38 JUMP JUMPDEST PUSH2 0xE4B PUSH1 0x20 DUP4 ADD DUP5 PUSH2 0xC68 JUMP JUMPDEST SWAP4 SWAP3 POP POP POP JUMP JUMPDEST PUSH1 0x0 PUSH1 0x40 DUP3 ADD SWAP1 POP PUSH2 0xE67 PUSH1 0x0 DUP4 ADD DUP6 PUSH2 0xD38 JUMP JUMPDEST PUSH2 0xE74 PUSH1 0x20 DUP4 ADD DUP5 PUSH2 0xD38 JUMP JUMPDEST SWAP4 SWAP3 POP POP POP JUMP JUMPDEST PUSH1 0x0 PUSH1 0x60 DUP3 ADD SWAP1 POP PUSH2 0xE90 PUSH1 0x0 DUP4 ADD DUP7 PUSH2 0xD38 JUMP JUMPDEST PUSH2 0xE9D PUSH1 0x20 DUP4 ADD DUP6 PUSH2 0xD38 JUMP JUMPDEST PUSH2 0xEAA PUSH1 0x40 DUP4 ADD DUP5 PUSH2 0xC68 JUMP JUMPDEST SWAP5 SWAP4 POP POP POP POP JUMP JUMPDEST PUSH1 0x0 PUSH1 0x40 MLOAD SWAP1 POP DUP2 DUP2 ADD DUP2 DUP2 LT PUSH8 0xFFFFFFFFFFFFFFFF DUP3 GT OR ISZERO PUSH2 0xED5 JUMPI PUSH1 0x0 DUP1 REVERT JUMPDEST DUP1 PUSH1 0x40 MSTORE POP SWAP2 SWAP1 POP JUMP JUMPDEST PUSH1 0x0 PUSH8 0xFFFFFFFFFFFFFFFF DUP3 GT ISZERO PUSH2 0xEF6 JUMPI PUSH1 0x0 DUP1 REVERT JUMPDEST PUSH1 0x1F NOT PUSH1 0x1F DUP4 ADD AND SWAP1 POP PUSH1 0x20 DUP2 ADD SWAP1 POP SWAP2 SWAP1 POP JUMP JUMPDEST PUSH1 0x0 DUP2 MLOAD SWAP1 POP SWAP2 SWAP1 POP JUMP JUMPDEST PUSH1 0x0 DUP2 MLOAD SWAP1 POP SWAP2 SWAP1 POP JUMP JUMPDEST PUSH1 0x0 DUP2 MLOAD SWAP1 POP SWAP2 SWAP1 POP JUMP JUMPDEST PUSH1 0x0 DUP2 SWAP1 POP SWAP3 SWAP2 POP POP JUMP JUMPDEST PUSH1 0x0 DUP3 DUP3 MSTORE PUSH1 0x20 DUP3 ADD SWAP1 POP SWAP3 SWAP2 POP POP JUMP JUMPDEST PUSH1 0x0 PUSH2 0xF53 DUP3 PUSH2 0xF66 JUMP JUMPDEST SWAP1 POP SWAP2 SWAP1 POP JUMP JUMPDEST PUSH1 0x0 DUP2 ISZERO ISZERO SWAP1 POP SWAP2 SWAP1 POP JUMP JUMPDEST PUSH1 0x0 PUSH20 0xFFFFFFFFFFFFFFFFFFFFFFFFFFFFFFFFFFFFFFFF DUP3 AND SWAP1 POP SWAP2 SWAP1 POP JUMP JUMPDEST PUSH1 0x0 DUP2 SWAP1 POP SWAP2 SWAP1 POP JUMP JUMPDEST PUSH1 0x0 PUSH2 0xF9B DUP3 PUSH2 0xFA2 JUMP JUMPDEST SWAP1 POP SWAP2 SWAP1 POP JUMP JUMPDEST PUSH1 0x0 PUSH2 0xFAD DUP3 PUSH2 0xF66 JUMP JUMPDEST SWAP1 POP SWAP2 SWAP1 POP JUMP JUMPDEST PUSH1 0x0 PUSH2 0xFBF DUP3 PUSH2 0xFC6 JUMP JUMPDEST SWAP1 POP SWAP2 SWAP1 POP JUMP JUMPDEST PUSH1 0x0 PUSH2 0xFD1 DUP3 PUSH2 0xF66 JUMP JUMPDEST SWAP1 POP SWAP2 SWAP1 POP JUMP JUMPDEST DUP3 DUP2 DUP4 CALLDATACOPY PUSH1 0x0 DUP4 DUP4 ADD MSTORE POP POP POP JUMP JUMPDEST PUSH1 0x0 JUMPDEST DUP4 DUP2 LT ISZERO PUSH2 0x1005 JUMPI DUP1 DUP3 ADD MLOAD DUP2 DUP5 ADD MSTORE PUSH1 0x20 DUP2 ADD SWAP1 POP PUSH2 0xFEA JUMP JUMPDEST DUP4 DUP2 GT ISZERO PUSH2 0x1014 JUMPI PUSH1 0x0 DUP5 DUP5 ADD MSTORE JUMPDEST POP POP POP POP JUMP JUMPDEST PUSH1 0x0 PUSH1 0x1F NOT PUSH1 0x1F DUP4 ADD AND SWAP1 POP SWAP2 SWAP1 POP JUMP JUMPDEST PUSH2 0x1034 DUP2 PUSH2 0xF48 JUMP JUMPDEST DUP2 EQ PUSH2 0x103F JUMPI PUSH1 0x0 DUP1 REVERT JUMPDEST POP JUMP JUMPDEST PUSH2 0x104B DUP2 PUSH2 0xF5A JUMP JUMPDEST DUP2 EQ PUSH2 0x1056 JUMPI PUSH1 0x0 DUP1 REVERT JUMPDEST POP JUMP JUMPDEST PUSH2 0x1062 DUP2 PUSH2 0xF86 JUMP JUMPDEST DUP2 EQ PUSH2 0x106D JUMPI PUSH1 0x0 DUP1 REVERT JUMPDEST POP JUMP INVALID LOG3 PUSH6 0x627A7A723158 KECCAK256 NOT 0xB1 PUSH20 0x9947B81774B54B4FDB373CAC41F4170FBBEEDEE6 PUSH31 0xBD8164251C065A6C6578706572696D656E74616CF564736F6C6343000511 STOP BLOCKHASH "
		},
		"gasEstimates": {
			"creation": {
				"codeDepositCost": "855000",
				"executionCost": "infinite",
				"totalCost": "infinite"
			},
			"external": {
				"PermissionID()": "1218",
				"Table_addWithDelegateCall(address,uint256,uint256)": "infinite",
				"c()": "1345",
				"fileHash()": "infinite",
				"getEvidence(string)": "infinite",
				"getPer_idByR_id(uint256)": "infinite",
				"getPer_idByR_idWithDelegateCall(address,uint256)": "infinite",
				"query(string,uint256)": "infinite",
				"s()": "1279",
				"user()": "1259"
			}
		},
		"methodIdentifiers": {
			"PermissionID()": "611fd4b7",
			"Table_addWithDelegateCall(address,uint256,uint256)": "33294523",
			"c()": "c3da42b8",
			"fileHash()": "24c8c698",
			"getEvidence(string)": "b16c6ee7",
			"getPer_idByR_id(uint256)": "876c2436",
			"getPer_idByR_idWithDelegateCall(address,uint256)": "4fdc1658",
			"query(string,uint256)": "7521357d",
			"s()": "86b714e2",
			"user()": "4f8632ba"
		}
	},
	"abi": [
		{
			"inputs": [
				{
					"internalType": "contract Storage",
					"name": "addr1",
					"type": "address"
				},
				{
					"internalType": "contract Calculator",
					"name": "addr2",
					"type": "address"
				}
			],
			"payable": false,
			"stateMutability": "nonpayable",
			"type": "constructor"
		},
		{
			"anonymous": false,
			"inputs": [
				{
					"indexed": false,
					"internalType": "uint256",
					"name": "R_id",
					"type": "uint256"
				},
				{
					"indexed": false,
					"internalType": "bool",
					"name": "success",
					"type": "bool"
				}
			],
			"name": "GetPer_idByR_idByDelegateCall",
			"type": "event"
		},
		{
			"anonymous": false,
			"inputs": [
				{
					"indexed": false,
					"internalType": "uint256",
					"name": "R_id",
					"type": "uint256"
				},
				{
					"indexed": false,
					"internalType": "uint256",
					"name": "Per_id",
					"type": "uint256"
				},
				{
					"indexed": false,
					"internalType": "bool",
					"name": "success",
					"type": "bool"
				}
			],
			"name": "table_addByDelegateCall",
			"type": "event"
		},
		{
			"constant": true,
			"inputs": [],
			"name": "PermissionID",
			"outputs": [
				{
					"internalType": "uint256",
					"name": "",
					"type": "uint256"
				}
			],
			"payable": false,
			"stateMutability": "view",
			"type": "function"
		},
		{
			"constant": false,
			"inputs": [
				{
					"internalType": "address",
					"name": "calculator",
					"type": "address"
				},
				{
					"internalType": "uint256",
					"name": "R_id",
					"type": "uint256"
				},
				{
					"internalType": "uint256",
					"name": "Per_id",
					"type": "uint256"
				}
			],
			"name": "Table_addWithDelegateCall",
			"outputs": [
				{
					"internalType": "bool",
					"name": "",
					"type": "bool"
				}
			],
			"payable": false,
			"stateMutability": "nonpayable",
			"type": "function"
		},
		{
			"constant": true,
			"inputs": [],
			"name": "c",
			"outputs": [
				{
					"internalType": "contract Calculator",
					"name": "",
					"type": "address"
				}
			],
			"payable": false,
			"stateMutability": "view",
			"type": "function"
		},
		{
			"constant": true,
			"inputs": [],
			"name": "fileHash",
			"outputs": [
				{
					"internalType": "string",
					"name": "",
					"type": "string"
				}
			],
			"payable": false,
			"stateMutability": "view",
			"type": "function"
		},
		{
			"constant": true,
			"inputs": [
				{
					"internalType": "string",
					"name": "fileName",
					"type": "string"
				}
			],
			"name": "getEvidence",
			"outputs": [
				{
					"internalType": "string",
					"name": "",
					"type": "string"
				}
			],
			"payable": false,
			"stateMutability": "view",
			"type": "function"
		},
		{
			"constant": false,
			"inputs": [
				{
					"internalType": "uint256",
					"name": "R_id",
					"type": "uint256"
				}
			],
			"name": "getPer_idByR_id",
			"outputs": [
				{
					"internalType": "uint256",
					"name": "",
					"type": "uint256"
				}
			],
			"payable": false,
			"stateMutability": "nonpayable",
			"type": "function"
		},
		{
			"constant": false,
			"inputs": [
				{
					"internalType": "address",
					"name": "calculator",
					"type": "address"
				},
				{
					"internalType": "uint256",
					"name": "R_id",
					"type": "uint256"
				}
			],
			"name": "getPer_idByR_idWithDelegateCall",
			"outputs": [
				{
					"internalType": "uint256",
					"name": "",
					"type": "uint256"
				}
			],
			"payable": false,
			"stateMutability": "nonpayable",
			"type": "function"
		},
		{
			"constant": false,
			"inputs": [
				{
					"internalType": "string",
					"name": "fileName",
					"type": "string"
				},
				{
					"internalType": "uint256",
					"name": "R_id",
					"type": "uint256"
				}
			],
			"name": "query",
			"outputs": [
				{
					"internalType": "bool",
					"name": "",
					"type": "bool"
				}
			],
			"payable": false,
			"stateMutability": "nonpayable",
			"type": "function"
		},
		{
			"constant": true,
			"inputs": [],
			"name": "s",
			"outputs": [
				{
					"internalType": "contract Storage",
					"name": "",
					"type": "address"
				}
			],
			"payable": false,
			"stateMutability": "view",
			"type": "function"
		},
		{
			"constant": true,
			"inputs": [],
			"name": "user",
			"outputs": [
				{
					"internalType": "address",
					"name": "",
					"type": "address"
				}
			],
			"payable": false,
			"stateMutability": "view",
			"type": "function"
		}
	]
}