{
	"data": {
		"bytecode": {
			"linkReferences": {},
			"object": "608060405234801561001057600080fd5b50610816806100206000396000f3fe608060405234801561001057600080fd5b506004361061004c5760003560e01c80633cf86de6146100515780637cb55a06146100815780638e1a98701461009d578063c874d098146100b9575b600080fd5b61006b60048036038101906100669190610375565b6100d5565b60405161007891906103d7565b60405180910390f35b61009b6004803603810190610096919061041e565b6100ff565b005b6100b760048036038101906100b29190610375565b610129565b005b6100d360048036038101906100ce919061041e565b610165565b005b600080826040516100e691906104eb565b9081526020016040518091039020600101549050919050565b8060008360405161011091906104eb565b9081526020016040518091039020600101819055505050565b60008160405161013991906104eb565b90815260200160405180910390206000808201600061015891906101be565b6001820160009055505050565b8160008360405161017691906104eb565b90815260200160405180910390206000019081610193919061070e565b50806000836040516101a591906104eb565b9081526020016040518091039020600101819055505050565b5080546101ca90610531565b6000825580601f106101dc57506101fb565b601f0160209004906000526020600020908101906101fa91906101fe565b5b50565b5b808211156102175760008160009055506001016101ff565b5090565b6000604051905090565b600080fd5b600080fd5b600080fd5b600080fd5b6000601f19601f8301169050919050565b7f4e487b7100000000000000000000000000000000000000000000000000000000600052604160045260246000fd5b61028282610239565b810181811067ffffffffffffffff821117156102a1576102a061024a565b5b80604052505050565b60006102b461021b565b90506102c08282610279565b919050565b600067ffffffffffffffff8211156102e0576102df61024a565b5b6102e982610239565b9050602081019050919050565b82818337600083830152505050565b6000610318610313846102c5565b6102aa565b90508281526020810184848401111561033457610333610234565b5b61033f8482856102f6565b509392505050565b600082601f83011261035c5761035b61022f565b5b813561036c848260208601610305565b91505092915050565b60006020828403121561038b5761038a610225565b5b600082013567ffffffffffffffff8111156103a9576103a861022a565b5b6103b584828501610347565b91505092915050565b6000819050919050565b6103d1816103be565b82525050565b60006020820190506103ec60008301846103c8565b92915050565b6103fb816103be565b811461040657600080fd5b50565b600081359050610418816103f2565b92915050565b6000806040838503121561043557610434610225565b5b600083013567ffffffffffffffff8111156104535761045261022a565b5b61045f85828601610347565b925050602061047085828601610409565b9150509250929050565b600081519050919050565b600081905092915050565b60005b838110156104ae578082015181840152602081019050610493565b60008484015250505050565b60006104c58261047a565b6104cf8185610485565b93506104df818560208601610490565b80840191505092915050565b60006104f782846104ba565b915081905092915050565b7f4e487b7100000000000000000000000000000000000000000000000000000000600052602260045260246000fd5b6000600282049050600182168061054957607f821691505b60208210810361055c5761055b610502565b5b50919050565b60008190508160005260206000209050919050565b60006020601f8301049050919050565b600082821b905092915050565b6000600883026105c47fffffffffffffffffffffffffffffffffffffffffffffffffffffffffffffffff82610587565b6105ce8683610587565b95508019841693508086168417925050509392505050565b6000819050919050565b600061060b610606610601846103be565b6105e6565b6103be565b9050919050565b6000819050919050565b610625836105f0565b61063961063182610612565b848454610594565b825550505050565b600090565b61064e610641565b61065981848461061c565b505050565b5b8181101561067d57610672600082610646565b60018101905061065f565b5050565b601f8211156106c25761069381610562565b61069c84610577565b810160208510156106ab578190505b6106bf6106b785610577565b83018261065e565b50505b505050565b600082821c905092915050565b60006106e5600019846008026106c7565b1980831691505092915050565b60006106fe83836106d4565b9150826002028217905092915050565b6107178261047a565b67ffffffffffffffff8111156107305761072f61024a565b5b61073a8254610531565b610745828285610681565b600060209050601f8311600181146107785760008415610766578287015190505b61077085826106f2565b8655506107d8565b601f19841661078686610562565b60005b828110156107ae57848901518255600182019150602085019450602081019050610789565b868310156107cb57848901516107c7601f8916826106d4565b8355505b6001600288020188555050505b50505050505056fea26469706673582212209e09fef90de7acf08323fe50586101eed66a0e587a3fb070c10c2a65060f27e364736f6c63430008130033",
			"opcodes": "PUSH1 0x80 PUSH1 0x40 MSTORE CALLVALUE DUP1 ISZERO PUSH2 0x10 JUMPI PUSH1 0x0 DUP1 REVERT JUMPDEST POP PUSH2 0x816 DUP1 PUSH2 0x20 PUSH1 0x0 CODECOPY PUSH1 0x0 RETURN INVALID PUSH1 0x80 PUSH1 0x40 MSTORE CALLVALUE DUP1 ISZERO PUSH2 0x10 JUMPI PUSH1 0x0 DUP1 REVERT JUMPDEST POP PUSH1 0x4 CALLDATASIZE LT PUSH2 0x4C JUMPI PUSH1 0x0 CALLDATALOAD PUSH1 0xE0 SHR DUP1 PUSH4 0x3CF86DE6 EQ PUSH2 0x51 JUMPI DUP1 PUSH4 0x7CB55A06 EQ PUSH2 0x81 JUMPI DUP1 PUSH4 0x8E1A9870 EQ PUSH2 0x9D JUMPI DUP1 PUSH4 0xC874D098 EQ PUSH2 0xB9 JUMPI JUMPDEST PUSH1 0x0 DUP1 REVERT JUMPDEST PUSH2 0x6B PUSH1 0x4 DUP1 CALLDATASIZE SUB DUP2 ADD SWAP1 PUSH2 0x66 SWAP2 SWAP1 PUSH2 0x375 JUMP JUMPDEST PUSH2 0xD5 JUMP JUMPDEST PUSH1 0x40 MLOAD PUSH2 0x78 SWAP2 SWAP1 PUSH2 0x3D7 JUMP JUMPDEST PUSH1 0x40 MLOAD DUP1 SWAP2 SUB SWAP1 RETURN JUMPDEST PUSH2 0x9B PUSH1 0x4 DUP1 CALLDATASIZE SUB DUP2 ADD SWAP1 PUSH2 0x96 SWAP2 SWAP1 PUSH2 0x41E JUMP JUMPDEST PUSH2 0xFF JUMP JUMPDEST STOP JUMPDEST PUSH2 0xB7 PUSH1 0x4 DUP1 CALLDATASIZE SUB DUP2 ADD SWAP1 PUSH2 0xB2 SWAP2 SWAP1 PUSH2 0x375 JUMP JUMPDEST PUSH2 0x129 JUMP JUMPDEST STOP JUMPDEST PUSH2 0xD3 PUSH1 0x4 DUP1 CALLDATASIZE SUB DUP2 ADD SWAP1 PUSH2 0xCE SWAP2 SWAP1 PUSH2 0x41E JUMP JUMPDEST PUSH2 0x165 JUMP JUMPDEST STOP JUMPDEST PUSH1 0x0 DUP1 DUP3 PUSH1 0x40 MLOAD PUSH2 0xE6 SWAP2 SWAP1 PUSH2 0x4EB JUMP JUMPDEST SWAP1 DUP2 MSTORE PUSH1 0x20 ADD PUSH1 0x40 MLOAD DUP1 SWAP2 SUB SWAP1 KECCAK256 PUSH1 0x1 ADD SLOAD SWAP1 POP SWAP2 SWAP1 POP JUMP JUMPDEST DUP1 PUSH1 0x0 DUP4 PUSH1 0x40 MLOAD PUSH2 0x110 SWAP2 SWAP1 PUSH2 0x4EB JUMP JUMPDEST SWAP1 DUP2 MSTORE PUSH1 0x20 ADD PUSH1 0x40 MLOAD DUP1 SWAP2 SUB SWAP1 KECCAK256 PUSH1 0x1 ADD DUP2 SWAP1 SSTORE POP POP POP JUMP JUMPDEST PUSH1 0x0 DUP2 PUSH1 0x40 MLOAD PUSH2 0x139 SWAP2 SWAP1 PUSH2 0x4EB JUMP JUMPDEST SWAP1 DUP2 MSTORE PUSH1 0x20 ADD PUSH1 0x40 MLOAD DUP1 SWAP2 SUB SWAP1 KECCAK256 PUSH1 0x0 DUP1 DUP3 ADD PUSH1 0x0 PUSH2 0x158 SWAP2 SWAP1 PUSH2 0x1BE JUMP JUMPDEST PUSH1 0x1 DUP3 ADD PUSH1 0x0 SWAP1 SSTORE POP POP POP JUMP JUMPDEST DUP2 PUSH1 0x0 DUP4 PUSH1 0x40 MLOAD PUSH2 0x176 SWAP2 SWAP1 PUSH2 0x4EB JUMP JUMPDEST SWAP1 DUP2 MSTORE PUSH1 0x20 ADD PUSH1 0x40 MLOAD DUP1 SWAP2 SUB SWAP1 KECCAK256 PUSH1 0x0 ADD SWAP1 DUP2 PUSH2 0x193 SWAP2 SWAP1 PUSH2 0x70E JUMP JUMPDEST POP DUP1 PUSH1 0x0 DUP4 PUSH1 0x40 MLOAD PUSH2 0x1A5 SWAP2 SWAP1 PUSH2 0x4EB JUMP JUMPDEST SWAP1 DUP2 MSTORE PUSH1 0x20 ADD PUSH1 0x40 MLOAD DUP1 SWAP2 SUB SWAP1 KECCAK256 PUSH1 0x1 ADD DUP2 SWAP1 SSTORE POP POP POP JUMP JUMPDEST POP DUP1 SLOAD PUSH2 0x1CA SWAP1 PUSH2 0x531 JUMP JUMPDEST PUSH1 0x0 DUP3 SSTORE DUP1 PUSH1 0x1F LT PUSH2 0x1DC JUMPI POP PUSH2 0x1FB JUMP JUMPDEST PUSH1 0x1F ADD PUSH1 0x20 SWAP1 DIV SWAP1 PUSH1 0x0 MSTORE PUSH1 0x20 PUSH1 0x0 KECCAK256 SWAP1 DUP2 ADD SWAP1 PUSH2 0x1FA SWAP2 SWAP1 PUSH2 0x1FE JUMP JUMPDEST JUMPDEST POP JUMP JUMPDEST JUMPDEST DUP1 DUP3 GT ISZERO PUSH2 0x217 JUMPI PUSH1 0x0 DUP2 PUSH1 0x0 SWAP1 SSTORE POP PUSH1 0x1 ADD PUSH2 0x1FF JUMP JUMPDEST POP SWAP1 JUMP JUMPDEST PUSH1 0x0 PUSH1 0x40 MLOAD SWAP1 POP SWAP1 JUMP JUMPDEST PUSH1 0x0 DUP1 REVERT JUMPDEST PUSH1 0x0 DUP1 REVERT JUMPDEST PUSH1 0x0 DUP1 REVERT JUMPDEST PUSH1 0x0 DUP1 REVERT JUMPDEST PUSH1 0x0 PUSH1 0x1F NOT PUSH1 0x1F DUP4 ADD AND SWAP1 POP SWAP2 SWAP1 POP JUMP JUMPDEST PUSH32 0x4E487B7100000000000000000000000000000000000000000000000000000000 PUSH1 0x0 MSTORE PUSH1 0x41 PUSH1 0x4 MSTORE PUSH1 0x24 PUSH1 0x0 REVERT JUMPDEST PUSH2 0x282 DUP3 PUSH2 0x239 JUMP JUMPDEST DUP2 ADD DUP2 DUP2 LT PUSH8 0xFFFFFFFFFFFFFFFF DUP3 GT OR ISZERO PUSH2 0x2A1 JUMPI PUSH2 0x2A0 PUSH2 0x24A JUMP JUMPDEST JUMPDEST DUP1 PUSH1 0x40 MSTORE POP POP POP JUMP JUMPDEST PUSH1 0x0 PUSH2 0x2B4 PUSH2 0x21B JUMP JUMPDEST SWAP1 POP PUSH2 0x2C0 DUP3 DUP3 PUSH2 0x279 JUMP JUMPDEST SWAP2 SWAP1 POP JUMP JUMPDEST PUSH1 0x0 PUSH8 0xFFFFFFFFFFFFFFFF DUP3 GT ISZERO PUSH2 0x2E0 JUMPI PUSH2 0x2DF PUSH2 0x24A JUMP JUMPDEST JUMPDEST PUSH2 0x2E9 DUP3 PUSH2 0x239 JUMP JUMPDEST SWAP1 POP PUSH1 0x20 DUP2 ADD SWAP1 POP SWAP2 SWAP1 POP JUMP JUMPDEST DUP3 DUP2 DUP4 CALLDATACOPY PUSH1 0x0 DUP4 DUP4 ADD MSTORE POP POP POP JUMP JUMPDEST PUSH1 0x0 PUSH2 0x318 PUSH2 0x313 DUP5 PUSH2 0x2C5 JUMP JUMPDEST PUSH2 0x2AA JUMP JUMPDEST SWAP1 POP DUP3 DUP2 MSTORE PUSH1 0x20 DUP2 ADD DUP5 DUP5 DUP5 ADD GT ISZERO PUSH2 0x334 JUMPI PUSH2 0x333 PUSH2 0x234 JUMP JUMPDEST JUMPDEST PUSH2 0x33F DUP5 DUP3 DUP6 PUSH2 0x2F6 JUMP JUMPDEST POP SWAP4 SWAP3 POP POP POP JUMP JUMPDEST PUSH1 0x0 DUP3 PUSH1 0x1F DUP4 ADD SLT PUSH2 0x35C JUMPI PUSH2 0x35B PUSH2 0x22F JUMP JUMPDEST JUMPDEST DUP2 CALLDATALOAD PUSH2 0x36C DUP5 DUP3 PUSH1 0x20 DUP7 ADD PUSH2 0x305 JUMP JUMPDEST SWAP2 POP POP SWAP3 SWAP2 POP POP JUMP JUMPDEST PUSH1 0x0 PUSH1 0x20 DUP3 DUP5 SUB SLT ISZERO PUSH2 0x38B JUMPI PUSH2 0x38A PUSH2 0x225 JUMP JUMPDEST JUMPDEST PUSH1 0x0 DUP3 ADD CALLDATALOAD PUSH8 0xFFFFFFFFFFFFFFFF DUP2 GT ISZERO PUSH2 0x3A9 JUMPI PUSH2 0x3A8 PUSH2 0x22A JUMP JUMPDEST JUMPDEST PUSH2 0x3B5 DUP5 DUP3 DUP6 ADD PUSH2 0x347 JUMP JUMPDEST SWAP2 POP POP SWAP3 SWAP2 POP POP JUMP JUMPDEST PUSH1 0x0 DUP2 SWAP1 POP SWAP2 SWAP1 POP JUMP JUMPDEST PUSH2 0x3D1 DUP2 PUSH2 0x3BE JUMP JUMPDEST DUP3 MSTORE POP POP JUMP JUMPDEST PUSH1 0x0 PUSH1 0x20 DUP3 ADD SWAP1 POP PUSH2 0x3EC PUSH1 0x0 DUP4 ADD DUP5 PUSH2 0x3C8 JUMP JUMPDEST SWAP3 SWAP2 POP POP JUMP JUMPDEST PUSH2 0x3FB DUP2 PUSH2 0x3BE JUMP JUMPDEST DUP2 EQ PUSH2 0x406 JUMPI PUSH1 0x0 DUP1 REVERT JUMPDEST POP JUMP JUMPDEST PUSH1 0x0 DUP2 CALLDATALOAD SWAP1 POP PUSH2 0x418 DUP2 PUSH2 0x3F2 JUMP JUMPDEST SWAP3 SWAP2 POP POP JUMP JUMPDEST PUSH1 0x0 DUP1 PUSH1 0x40 DUP4 DUP6 SUB SLT ISZERO PUSH2 0x435 JUMPI PUSH2 0x434 PUSH2 0x225 JUMP JUMPDEST JUMPDEST PUSH1 0x0 DUP4 ADD CALLDATALOAD PUSH8 0xFFFFFFFFFFFFFFFF DUP2 GT ISZERO PUSH2 0x453 JUMPI PUSH2 0x452 PUSH2 0x22A JUMP JUMPDEST JUMPDEST PUSH2 0x45F DUP6 DUP3 DUP7 ADD PUSH2 0x347 JUMP JUMPDEST SWAP3 POP POP PUSH1 0x20 PUSH2 0x470 DUP6 DUP3 DUP7 ADD PUSH2 0x409 JUMP JUMPDEST SWAP2 POP POP SWAP3 POP SWAP3 SWAP1 POP JUMP JUMPDEST PUSH1 0x0 DUP2 MLOAD SWAP1 POP SWAP2 SWAP1 POP JUMP JUMPDEST PUSH1 0x0 DUP2 SWAP1 POP SWAP3 SWAP2 POP POP JUMP JUMPDEST PUSH1 0x0 JUMPDEST DUP4 DUP2 LT ISZERO PUSH2 0x4AE JUMPI DUP1 DUP3 ADD MLOAD DUP2 DUP5 ADD MSTORE PUSH1 0x20 DUP2 ADD SWAP1 POP PUSH2 0x493 JUMP JUMPDEST PUSH1 0x0 DUP5 DUP5 ADD MSTORE POP POP POP POP JUMP JUMPDEST PUSH1 0x0 PUSH2 0x4C5 DUP3 PUSH2 0x47A JUMP JUMPDEST PUSH2 0x4CF DUP2 DUP6 PUSH2 0x485 JUMP JUMPDEST SWAP4 POP PUSH2 0x4DF DUP2 DUP6 PUSH1 0x20 DUP7 ADD PUSH2 0x490 JUMP JUMPDEST DUP1 DUP5 ADD SWAP2 POP POP SWAP3 SWAP2 POP POP JUMP JUMPDEST PUSH1 0x0 PUSH2 0x4F7 DUP3 DUP5 PUSH2 0x4BA JUMP JUMPDEST SWAP2 POP DUP2 SWAP1 POP SWAP3 SWAP2 POP POP JUMP JUMPDEST PUSH32 0x4E487B7100000000000000000000000000000000000000000000000000000000 PUSH1 0x0 MSTORE PUSH1 0x22 PUSH1 0x4 MSTORE PUSH1 0x24 PUSH1 0x0 REVERT JUMPDEST PUSH1 0x0 PUSH1 0x2 DUP3 DIV SWAP1 POP PUSH1 0x1 DUP3 AND DUP1 PUSH2 0x549 JUMPI PUSH1 0x7F DUP3 AND SWAP2 POP JUMPDEST PUSH1 0x20 DUP3 LT DUP2 SUB PUSH2 0x55C JUMPI PUSH2 0x55B PUSH2 0x502 JUMP JUMPDEST JUMPDEST POP SWAP2 SWAP1 POP JUMP JUMPDEST PUSH1 0x0 DUP2 SWAP1 POP DUP2 PUSH1 0x0 MSTORE PUSH1 0x20 PUSH1 0x0 KECCAK256 SWAP1 POP SWAP2 SWAP1 POP JUMP JUMPDEST PUSH1 0x0 PUSH1 0x20 PUSH1 0x1F DUP4 ADD DIV SWAP1 POP SWAP2 SWAP1 POP JUMP JUMPDEST PUSH1 0x0 DUP3 DUP3 SHL SWAP1 POP SWAP3 SWAP2 POP POP JUMP JUMPDEST PUSH1 0x0 PUSH1 0x8 DUP4 MUL PUSH2 0x5C4 PUSH32 0xFFFFFFFFFFFFFFFFFFFFFFFFFFFFFFFFFFFFFFFFFFFFFFFFFFFFFFFFFFFFFFFF DUP3 PUSH2 0x587 JUMP JUMPDEST PUSH2 0x5CE DUP7 DUP4 PUSH2 0x587 JUMP JUMPDEST SWAP6 POP DUP1 NOT DUP5 AND SWAP4 POP DUP1 DUP7 AND DUP5 OR SWAP3 POP POP POP SWAP4 SWAP3 POP POP POP JUMP JUMPDEST PUSH1 0x0 DUP2 SWAP1 POP SWAP2 SWAP1 POP JUMP JUMPDEST PUSH1 0x0 PUSH2 0x60B PUSH2 0x606 PUSH2 0x601 DUP5 PUSH2 0x3BE JUMP JUMPDEST PUSH2 0x5E6 JUMP JUMPDEST PUSH2 0x3BE JUMP JUMPDEST SWAP1 POP SWAP2 SWAP1 POP JUMP JUMPDEST PUSH1 0x0 DUP2 SWAP1 POP SWAP2 SWAP1 POP JUMP JUMPDEST PUSH2 0x625 DUP4 PUSH2 0x5F0 JUMP JUMPDEST PUSH2 0x639 PUSH2 0x631 DUP3 PUSH2 0x612 JUMP JUMPDEST DUP5 DUP5 SLOAD PUSH2 0x594 JUMP JUMPDEST DUP3 SSTORE POP POP POP POP JUMP JUMPDEST PUSH1 0x0 SWAP1 JUMP JUMPDEST PUSH2 0x64E PUSH2 0x641 JUMP JUMPDEST PUSH2 0x659 DUP2 DUP5 DUP5 PUSH2 0x61C JUMP JUMPDEST POP POP POP JUMP JUMPDEST JUMPDEST DUP2 DUP2 LT ISZERO PUSH2 0x67D JUMPI PUSH2 0x672 PUSH1 0x0 DUP3 PUSH2 0x646 JUMP JUMPDEST PUSH1 0x1 DUP2 ADD SWAP1 POP PUSH2 0x65F JUMP JUMPDEST POP POP JUMP JUMPDEST PUSH1 0x1F DUP3 GT ISZERO PUSH2 0x6C2 JUMPI PUSH2 0x693 DUP2 PUSH2 0x562 JUMP JUMPDEST PUSH2 0x69C DUP5 PUSH2 0x577 JUMP JUMPDEST DUP2 ADD PUSH1 0x20 DUP6 LT ISZERO PUSH2 0x6AB JUMPI DUP2 SWAP1 POP JUMPDEST PUSH2 0x6BF PUSH2 0x6B7 DUP6 PUSH2 0x577 JUMP JUMPDEST DUP4 ADD DUP3 PUSH2 0x65E JUMP JUMPDEST POP POP JUMPDEST POP POP POP JUMP JUMPDEST PUSH1 0x0 DUP3 DUP3 SHR SWAP1 POP SWAP3 SWAP2 POP POP JUMP JUMPDEST PUSH1 0x0 PUSH2 0x6E5 PUSH1 0x0 NOT DUP5 PUSH1 0x8 MUL PUSH2 0x6C7 JUMP JUMPDEST NOT DUP1 DUP4 AND SWAP2 POP POP SWAP3 SWAP2 POP POP JUMP JUMPDEST PUSH1 0x0 PUSH2 0x6FE DUP4 DUP4 PUSH2 0x6D4 JUMP JUMPDEST SWAP2 POP DUP3 PUSH1 0x2 MUL DUP3 OR SWAP1 POP SWAP3 SWAP2 POP POP JUMP JUMPDEST PUSH2 0x717 DUP3 PUSH2 0x47A JUMP JUMPDEST PUSH8 0xFFFFFFFFFFFFFFFF DUP2 GT ISZERO PUSH2 0x730 JUMPI PUSH2 0x72F PUSH2 0x24A JUMP JUMPDEST JUMPDEST PUSH2 0x73A DUP3 SLOAD PUSH2 0x531 JUMP JUMPDEST PUSH2 0x745 DUP3 DUP3 DUP6 PUSH2 0x681 JUMP JUMPDEST PUSH1 0x0 PUSH1 0x20 SWAP1 POP PUSH1 0x1F DUP4 GT PUSH1 0x1 DUP2 EQ PUSH2 0x778 JUMPI PUSH1 0x0 DUP5 ISZERO PUSH2 0x766 JUMPI DUP3 DUP8 ADD MLOAD SWAP1 POP JUMPDEST PUSH2 0x770 DUP6 DUP3 PUSH2 0x6F2 JUMP JUMPDEST DUP7 SSTORE POP PUSH2 0x7D8 JUMP JUMPDEST PUSH1 0x1F NOT DUP5 AND PUSH2 0x786 DUP7 PUSH2 0x562 JUMP JUMPDEST PUSH1 0x0 JUMPDEST DUP3 DUP2 LT ISZERO PUSH2 0x7AE JUMPI DUP5 DUP10 ADD MLOAD DUP3 SSTORE PUSH1 0x1 DUP3 ADD SWAP2 POP PUSH1 0x20 DUP6 ADD SWAP5 POP PUSH1 0x20 DUP2 ADD SWAP1 POP PUSH2 0x789 JUMP JUMPDEST DUP7 DUP4 LT ISZERO PUSH2 0x7CB JUMPI DUP5 DUP10 ADD MLOAD PUSH2 0x7C7 PUSH1 0x1F DUP10 AND DUP3 PUSH2 0x6D4 JUMP JUMPDEST DUP4 SSTORE POP JUMPDEST PUSH1 0x1 PUSH1 0x2 DUP9 MUL ADD DUP9 SSTORE POP POP POP JUMPDEST POP POP POP POP POP POP JUMP INVALID LOG2 PUSH5 0x6970667358 0x22 SLT KECCAK256 SWAP15 MULMOD INVALID 0xF9 0xD 0xE7 0xAC CREATE DUP4 0x23 INVALID POP PC PUSH2 0x1EE 0xD6 PUSH11 0xE587A3FB070C10C2A6506 0xF 0x27 0xE3 PUSH5 0x736F6C6343 STOP ADDMOD SGT STOP CALLER "
		},
		"gasEstimates": {
			"creation": {
				"codeDepositCost": "414000",
				"executionCost": "449",
				"totalCost": "414449"
			},
			"external": {
				"S_table_add(string,uint256)": "infinite",
				"del_U_id(string)": "infinite",
				"getPer_idByU_id(string)": "infinite",
				"mod_Per_id(string,uint256)": "infinite"
			}
		},
		"methodIdentifiers": {
			"S_table_add(string,uint256)": "c874d098",
			"del_U_id(string)": "8e1a9870",
			"getPer_idByU_id(string)": "3cf86de6",
			"mod_Per_id(string,uint256)": "7cb55a06"
		}
	},
	"abi": [
		{
			"inputs": [
				{
					"internalType": "string",
					"name": "U_id",
					"type": "string"
				},
				{
					"internalType": "uint256",
					"name": "Per_id",
					"type": "uint256"
				}
			],
			"name": "S_table_add",
			"outputs": [],
			"stateMutability": "nonpayable",
			"type": "function"
		},
		{
			"inputs": [
				{
					"internalType": "string",
					"name": "U_id",
					"type": "string"
				}
			],
			"name": "del_U_id",
			"outputs": [],
			"stateMutability": "nonpayable",
			"type": "function"
		},
		{
			"inputs": [
				{
					"internalType": "string",
					"name": "U_id",
					"type": "string"
				}
			],
			"name": "getPer_idByU_id",
			"outputs": [
				{
					"internalType": "uint256",
					"name": "",
					"type": "uint256"
				}
			],
			"stateMutability": "view",
			"type": "function"
		},
		{
			"inputs": [
				{
					"internalType": "string",
					"name": "U_id",
					"type": "string"
				},
				{
					"internalType": "uint256",
					"name": "Per_id",
					"type": "uint256"
				}
			],
			"name": "mod_Per_id",
			"outputs": [],
			"stateMutability": "nonpayable",
			"type": "function"
		}
	]
}