{
	"contracts/CallingContract/Calculator.sol": {
		"Calculator": {
			"abi": [
				{
					"anonymous": false,
					"inputs": [
						{
							"indexed": false,
							"internalType": "uint256",
							"name": "a",
							"type": "uint256"
						},
						{
							"indexed": false,
							"internalType": "uint256",
							"name": "b",
							"type": "uint256"
						}
					],
					"name": "Add",
					"type": "event"
				},
				{
					"constant": false,
					"inputs": [
						{
							"internalType": "uint256",
							"name": "a",
							"type": "uint256"
						},
						{
							"internalType": "uint256",
							"name": "b",
							"type": "uint256"
						}
					],
					"name": "add",
					"outputs": [
						{
							"internalType": "uint256",
							"name": "",
							"type": "uint256"
						}
					],
					"payable": false,
					"stateMutability": "nonpayable",
					"type": "function"
				},
				{
					"constant": true,
					"inputs": [],
					"name": "calculateResult",
					"outputs": [
						{
							"internalType": "uint256",
							"name": "",
							"type": "uint256"
						}
					],
					"payable": false,
					"stateMutability": "view",
					"type": "function"
				},
				{
					"constant": true,
					"inputs": [],
					"name": "user",
					"outputs": [
						{
							"internalType": "address",
							"name": "",
							"type": "address"
						}
					],
					"payable": false,
					"stateMutability": "view",
					"type": "function"
				}
			],
			"devdoc": {
				"methods": {}
			},
			"evm": {
				"assembly": "    /* \"contracts/CallingContract/Calculator.sol\":58:438  contract Calculator {... */\n  mstore(0x40, 0x80)\n  callvalue\n    /* \"--CODEGEN--\":8:17   */\n  dup1\n    /* \"--CODEGEN--\":5:7   */\n  iszero\n  tag_1\n  jumpi\n    /* \"--CODEGEN--\":30:31   */\n  0x00\n    /* \"--CODEGEN--\":27:28   */\n  dup1\n    /* \"--CODEGEN--\":20:32   */\n  revert\n    /* \"--CODEGEN--\":5:7   */\ntag_1:\n    /* \"contracts/CallingContract/Calculator.sol\":58:438  contract Calculator {... */\n  pop\n  dataSize(sub_0)\n  dup1\n  dataOffset(sub_0)\n  0x00\n  codecopy\n  0x00\n  return\nstop\n\nsub_0: assembly {\n        /* \"contracts/CallingContract/Calculator.sol\":58:438  contract Calculator {... */\n      mstore(0x40, 0x80)\n      callvalue\n        /* \"--CODEGEN--\":8:17   */\n      dup1\n        /* \"--CODEGEN--\":5:7   */\n      iszero\n      tag_1\n      jumpi\n        /* \"--CODEGEN--\":30:31   */\n      0x00\n        /* \"--CODEGEN--\":27:28   */\n      dup1\n        /* \"--CODEGEN--\":20:32   */\n      revert\n        /* \"--CODEGEN--\":5:7   */\n    tag_1:\n        /* \"contracts/CallingContract/Calculator.sol\":58:438  contract Calculator {... */\n      pop\n      jumpi(tag_2, lt(calldatasize, 0x04))\n      shr(0xe0, calldataload(0x00))\n      dup1\n      0x4f8632ba\n      eq\n      tag_3\n      jumpi\n      dup1\n      0x6e008b35\n      eq\n      tag_4\n      jumpi\n      dup1\n      0x771602f7\n      eq\n      tag_5\n      jumpi\n    tag_2:\n      0x00\n      dup1\n      revert\n        /* \"contracts/CallingContract/Calculator.sol\":125:144  address public user */\n    tag_3:\n      tag_6\n      tag_7\n      jump\t// in\n    tag_6:\n      mload(0x40)\n      tag_8\n      swap2\n      swap1\n      jump(tag_9)\n    tag_8:\n      mload(0x40)\n      dup1\n      swap2\n      sub\n      swap1\n      return\n        /* \"contracts/CallingContract/Calculator.sol\":84:114  uint256 public calculateResult */\n    tag_4:\n      tag_10\n      tag_11\n      jump\t// in\n    tag_10:\n      mload(0x40)\n      tag_12\n      swap2\n      swap1\n      jump(tag_13)\n    tag_12:\n      mload(0x40)\n      dup1\n      swap2\n      sub\n      swap1\n      return\n        /* \"contracts/CallingContract/Calculator.sol\":197:436  function add(uint256 a, uint256 b) public returns (uint256) {... */\n    tag_5:\n      tag_14\n      0x04\n      dup1\n      calldatasize\n      sub\n      tag_15\n      swap2\n      swap1\n      dup2\n      add\n      swap1\n      jump(tag_16)\n    tag_15:\n      tag_17\n      jump\t// in\n    tag_14:\n      mload(0x40)\n      tag_18\n      swap2\n      swap1\n      jump(tag_13)\n    tag_18:\n      mload(0x40)\n      dup1\n      swap2\n      sub\n      swap1\n      return\n        /* \"contracts/CallingContract/Calculator.sol\":125:144  address public user */\n    tag_7:\n      0x01\n      0x00\n      swap1\n      sload\n      swap1\n      0x0100\n      exp\n      swap1\n      div\n      0xffffffffffffffffffffffffffffffffffffffff\n      and\n      dup2\n      jump\t// out\n        /* \"contracts/CallingContract/Calculator.sol\":84:114  uint256 public calculateResult */\n    tag_11:\n      sload(0x00)\n      dup2\n      jump\t// out\n        /* \"contracts/CallingContract/Calculator.sol\":197:436  function add(uint256 a, uint256 b) public returns (uint256) {... */\n    tag_17:\n        /* \"contracts/CallingContract/Calculator.sol\":248:255  uint256 */\n      0x00\n        /* \"contracts/CallingContract/Calculator.sol\":289:290  b */\n      dup2\n        /* \"contracts/CallingContract/Calculator.sol\":285:286  a */\n      dup4\n        /* \"contracts/CallingContract/Calculator.sol\":285:290  a + b */\n      add\n        /* \"contracts/CallingContract/Calculator.sol\":267:282  calculateResult */\n      0x00\n        /* \"contracts/CallingContract/Calculator.sol\":267:290  calculateResult = a + b */\n      dup2\n      swap1\n      sstore\n      pop\n        /* \"contracts/CallingContract/Calculator.sol\":326:327  a */\n      dup3\n        /* \"contracts/CallingContract/Calculator.sol\":307:322  calculateResult */\n      sload(0x00)\n        /* \"contracts/CallingContract/Calculator.sol\":307:327  calculateResult >= a */\n      lt\n      iszero\n        /* \"contracts/CallingContract/Calculator.sol\":300:328  assert(calculateResult >= a) */\n      tag_20\n      jumpi\n      invalid\n    tag_20:\n        /* \"contracts/CallingContract/Calculator.sol\":352:361  Add(a, b) */\n      0x7afbe4f1c55b5f72ea356f5b4d5615831867af31454a5ca5557f315e6d11a369\n        /* \"contracts/CallingContract/Calculator.sol\":356:357  a */\n      dup4\n        /* \"contracts/CallingContract/Calculator.sol\":359:360  b */\n      dup4\n        /* \"contracts/CallingContract/Calculator.sol\":352:361  Add(a, b) */\n      mload(0x40)\n      tag_21\n      swap3\n      swap2\n      swap1\n      jump(tag_22)\n    tag_21:\n      mload(0x40)\n      dup1\n      swap2\n      sub\n      swap1\n      log1\n        /* \"contracts/CallingContract/Calculator.sol\":378:388  msg.sender */\n      caller\n        /* \"contracts/CallingContract/Calculator.sol\":371:375  user */\n      0x01\n      0x00\n        /* \"contracts/CallingContract/Calculator.sol\":371:388  user = msg.sender */\n      0x0100\n      exp\n      dup2\n      sload\n      dup2\n      0xffffffffffffffffffffffffffffffffffffffff\n      mul\n      not\n      and\n      swap1\n      dup4\n      0xffffffffffffffffffffffffffffffffffffffff\n      and\n      mul\n      or\n      swap1\n      sstore\n      pop\n        /* \"contracts/CallingContract/Calculator.sol\":414:429  calculateResult */\n      sload(0x00)\n        /* \"contracts/CallingContract/Calculator.sol\":407:429  return calculateResult */\n      swap1\n      pop\n        /* \"contracts/CallingContract/Calculator.sol\":197:436  function add(uint256 a, uint256 b) public returns (uint256) {... */\n      swap3\n      swap2\n      pop\n      pop\n      jump\t// out\n        /* \"--CODEGEN--\":5:135   */\n    tag_24:\n      0x00\n        /* \"--CODEGEN--\":85:91   */\n      dup2\n        /* \"--CODEGEN--\":72:92   */\n      calldataload\n        /* \"--CODEGEN--\":63:92   */\n      swap1\n      pop\n        /* \"--CODEGEN--\":97:130   */\n      tag_25\n        /* \"--CODEGEN--\":124:129   */\n      dup2\n        /* \"--CODEGEN--\":97:130   */\n      jump(tag_26)\n    tag_25:\n        /* \"--CODEGEN--\":57:135   */\n      swap3\n      swap2\n      pop\n      pop\n      jump\n        /* \"--CODEGEN--\":142:508   */\n    tag_16:\n      0x00\n      dup1\n        /* \"--CODEGEN--\":263:265   */\n      0x40\n        /* \"--CODEGEN--\":251:260   */\n      dup4\n        /* \"--CODEGEN--\":242:249   */\n      dup6\n        /* \"--CODEGEN--\":238:261   */\n      sub\n        /* \"--CODEGEN--\":234:266   */\n      slt\n        /* \"--CODEGEN--\":231:233   */\n      iszero\n      tag_27\n      jumpi\n        /* \"--CODEGEN--\":279:280   */\n      0x00\n        /* \"--CODEGEN--\":276:277   */\n      dup1\n        /* \"--CODEGEN--\":269:281   */\n      revert\n        /* \"--CODEGEN--\":231:233   */\n    tag_27:\n        /* \"--CODEGEN--\":314:315   */\n      0x00\n        /* \"--CODEGEN--\":331:384   */\n      tag_28\n        /* \"--CODEGEN--\":376:383   */\n      dup6\n        /* \"--CODEGEN--\":367:373   */\n      dup3\n        /* \"--CODEGEN--\":356:365   */\n      dup7\n        /* \"--CODEGEN--\":352:374   */\n      add\n        /* \"--CODEGEN--\":331:384   */\n      jump(tag_24)\n    tag_28:\n        /* \"--CODEGEN--\":321:384   */\n      swap3\n      pop\n        /* \"--CODEGEN--\":293:390   */\n      pop\n        /* \"--CODEGEN--\":421:423   */\n      0x20\n        /* \"--CODEGEN--\":439:492   */\n      tag_29\n        /* \"--CODEGEN--\":484:491   */\n      dup6\n        /* \"--CODEGEN--\":475:481   */\n      dup3\n        /* \"--CODEGEN--\":464:473   */\n      dup7\n        /* \"--CODEGEN--\":460:482   */\n      add\n        /* \"--CODEGEN--\":439:492   */\n      jump(tag_24)\n    tag_29:\n        /* \"--CODEGEN--\":429:492   */\n      swap2\n      pop\n        /* \"--CODEGEN--\":400:498   */\n      pop\n        /* \"--CODEGEN--\":225:508   */\n      swap3\n      pop\n      swap3\n      swap1\n      pop\n      jump\n        /* \"--CODEGEN--\":515:628   */\n    tag_30:\n        /* \"--CODEGEN--\":598:622   */\n      tag_31\n        /* \"--CODEGEN--\":616:621   */\n      dup2\n        /* \"--CODEGEN--\":598:622   */\n      jump(tag_32)\n    tag_31:\n        /* \"--CODEGEN--\":593:596   */\n      dup3\n        /* \"--CODEGEN--\":586:623   */\n      mstore\n        /* \"--CODEGEN--\":580:628   */\n      pop\n      pop\n      jump\n        /* \"--CODEGEN--\":635:748   */\n    tag_33:\n        /* \"--CODEGEN--\":718:742   */\n      tag_34\n        /* \"--CODEGEN--\":736:741   */\n      dup2\n        /* \"--CODEGEN--\":718:742   */\n      jump(tag_35)\n    tag_34:\n        /* \"--CODEGEN--\":713:716   */\n      dup3\n        /* \"--CODEGEN--\":706:743   */\n      mstore\n        /* \"--CODEGEN--\":700:748   */\n      pop\n      pop\n      jump\n        /* \"--CODEGEN--\":755:968   */\n    tag_9:\n      0x00\n        /* \"--CODEGEN--\":873:875   */\n      0x20\n        /* \"--CODEGEN--\":862:871   */\n      dup3\n        /* \"--CODEGEN--\":858:876   */\n      add\n        /* \"--CODEGEN--\":850:876   */\n      swap1\n      pop\n        /* \"--CODEGEN--\":887:958   */\n      tag_36\n        /* \"--CODEGEN--\":955:956   */\n      0x00\n        /* \"--CODEGEN--\":944:953   */\n      dup4\n        /* \"--CODEGEN--\":940:957   */\n      add\n        /* \"--CODEGEN--\":931:937   */\n      dup5\n        /* \"--CODEGEN--\":887:958   */\n      jump(tag_30)\n    tag_36:\n        /* \"--CODEGEN--\":844:968   */\n      swap3\n      swap2\n      pop\n      pop\n      jump\n        /* \"--CODEGEN--\":975:1188   */\n    tag_13:\n      0x00\n        /* \"--CODEGEN--\":1093:1095   */\n      0x20\n        /* \"--CODEGEN--\":1082:1091   */\n      dup3\n        /* \"--CODEGEN--\":1078:1096   */\n      add\n        /* \"--CODEGEN--\":1070:1096   */\n      swap1\n      pop\n        /* \"--CODEGEN--\":1107:1178   */\n      tag_37\n        /* \"--CODEGEN--\":1175:1176   */\n      0x00\n        /* \"--CODEGEN--\":1164:1173   */\n      dup4\n        /* \"--CODEGEN--\":1160:1177   */\n      add\n        /* \"--CODEGEN--\":1151:1157   */\n      dup5\n        /* \"--CODEGEN--\":1107:1178   */\n      jump(tag_33)\n    tag_37:\n        /* \"--CODEGEN--\":1064:1188   */\n      swap3\n      swap2\n      pop\n      pop\n      jump\n        /* \"--CODEGEN--\":1195:1519   */\n    tag_22:\n      0x00\n        /* \"--CODEGEN--\":1341:1343   */\n      0x40\n        /* \"--CODEGEN--\":1330:1339   */\n      dup3\n        /* \"--CODEGEN--\":1326:1344   */\n      add\n        /* \"--CODEGEN--\":1318:1344   */\n      swap1\n      pop\n        /* \"--CODEGEN--\":1355:1426   */\n      tag_38\n        /* \"--CODEGEN--\":1423:1424   */\n      0x00\n        /* \"--CODEGEN--\":1412:1421   */\n      dup4\n        /* \"--CODEGEN--\":1408:1425   */\n      add\n        /* \"--CODEGEN--\":1399:1405   */\n      dup6\n        /* \"--CODEGEN--\":1355:1426   */\n      jump(tag_33)\n    tag_38:\n        /* \"--CODEGEN--\":1437:1509   */\n      tag_39\n        /* \"--CODEGEN--\":1505:1507   */\n      0x20\n        /* \"--CODEGEN--\":1494:1503   */\n      dup4\n        /* \"--CODEGEN--\":1490:1508   */\n      add\n        /* \"--CODEGEN--\":1481:1487   */\n      dup5\n        /* \"--CODEGEN--\":1437:1509   */\n      jump(tag_33)\n    tag_39:\n        /* \"--CODEGEN--\":1312:1519   */\n      swap4\n      swap3\n      pop\n      pop\n      pop\n      jump\n        /* \"--CODEGEN--\":1526:1617   */\n    tag_32:\n      0x00\n        /* \"--CODEGEN--\":1588:1612   */\n      tag_40\n        /* \"--CODEGEN--\":1606:1611   */\n      dup3\n        /* \"--CODEGEN--\":1588:1612   */\n      jump(tag_41)\n    tag_40:\n        /* \"--CODEGEN--\":1577:1612   */\n      swap1\n      pop\n        /* \"--CODEGEN--\":1571:1617   */\n      swap2\n      swap1\n      pop\n      jump\n        /* \"--CODEGEN--\":1624:1745   */\n    tag_41:\n      0x00\n        /* \"--CODEGEN--\":1697:1739   */\n      0xffffffffffffffffffffffffffffffffffffffff\n        /* \"--CODEGEN--\":1690:1695   */\n      dup3\n        /* \"--CODEGEN--\":1686:1740   */\n      and\n        /* \"--CODEGEN--\":1675:1740   */\n      swap1\n      pop\n        /* \"--CODEGEN--\":1669:1745   */\n      swap2\n      swap1\n      pop\n      jump\n        /* \"--CODEGEN--\":1752:1824   */\n    tag_35:\n      0x00\n        /* \"--CODEGEN--\":1814:1819   */\n      dup2\n        /* \"--CODEGEN--\":1803:1819   */\n      swap1\n      pop\n        /* \"--CODEGEN--\":1797:1824   */\n      swap2\n      swap1\n      pop\n      jump\n        /* \"--CODEGEN--\":1831:1948   */\n    tag_26:\n        /* \"--CODEGEN--\":1900:1924   */\n      tag_42\n        /* \"--CODEGEN--\":1918:1923   */\n      dup2\n        /* \"--CODEGEN--\":1900:1924   */\n      jump(tag_35)\n    tag_42:\n        /* \"--CODEGEN--\":1893:1898   */\n      dup2\n        /* \"--CODEGEN--\":1890:1925   */\n      eq\n        /* \"--CODEGEN--\":1880:1882   */\n      tag_43\n      jumpi\n        /* \"--CODEGEN--\":1939:1940   */\n      0x00\n        /* \"--CODEGEN--\":1936:1937   */\n      dup1\n        /* \"--CODEGEN--\":1929:1941   */\n      revert\n        /* \"--CODEGEN--\":1880:1882   */\n    tag_43:\n        /* \"--CODEGEN--\":1874:1948   */\n      pop\n      jump\n\n    auxdata: 0xa365627a7a72315820c22dc2c9f93fd02c2b4ad4dc917f5365146f3e52ce960f6d301de325f4a010616c6578706572696d656e74616cf564736f6c63430005110040\n}\n",
				"bytecode": {
					"linkReferences": {},
					"object": "608060405234801561001057600080fd5b506102de806100206000396000f3fe608060405234801561001057600080fd5b50600436106100415760003560e01c80634f8632ba146100465780636e008b3514610064578063771602f714610082575b600080fd5b61004e6100b2565b60405161005b91906101e9565b60405180910390f35b61006c6100d8565b6040516100799190610204565b60405180910390f35b61009c6004803603610097919081019061018f565b6100de565b6040516100a99190610204565b60405180910390f35b600160009054906101000a900473ffffffffffffffffffffffffffffffffffffffff1681565b60005481565b60008183016000819055508260005410156100f557fe5b7f7afbe4f1c55b5f72ea356f5b4d5615831867af31454a5ca5557f315e6d11a369838360405161012692919061021f565b60405180910390a133600160006101000a81548173ffffffffffffffffffffffffffffffffffffffff021916908373ffffffffffffffffffffffffffffffffffffffff160217905550600054905092915050565b60008135905061018981610284565b92915050565b600080604083850312156101a257600080fd5b60006101b08582860161017a565b92505060206101c18582860161017a565b9150509250929050565b6101d481610248565b82525050565b6101e38161027a565b82525050565b60006020820190506101fe60008301846101cb565b92915050565b600060208201905061021960008301846101da565b92915050565b600060408201905061023460008301856101da565b61024160208301846101da565b9392505050565b60006102538261025a565b9050919050565b600073ffffffffffffffffffffffffffffffffffffffff82169050919050565b6000819050919050565b61028d8161027a565b811461029857600080fd5b5056fea365627a7a72315820c22dc2c9f93fd02c2b4ad4dc917f5365146f3e52ce960f6d301de325f4a010616c6578706572696d656e74616cf564736f6c63430005110040",
					"opcodes": "PUSH1 0x80 PUSH1 0x40 MSTORE CALLVALUE DUP1 ISZERO PUSH2 0x10 JUMPI PUSH1 0x0 DUP1 REVERT JUMPDEST POP PUSH2 0x2DE DUP1 PUSH2 0x20 PUSH1 0x0 CODECOPY PUSH1 0x0 RETURN INVALID PUSH1 0x80 PUSH1 0x40 MSTORE CALLVALUE DUP1 ISZERO PUSH2 0x10 JUMPI PUSH1 0x0 DUP1 REVERT JUMPDEST POP PUSH1 0x4 CALLDATASIZE LT PUSH2 0x41 JUMPI PUSH1 0x0 CALLDATALOAD PUSH1 0xE0 SHR DUP1 PUSH4 0x4F8632BA EQ PUSH2 0x46 JUMPI DUP1 PUSH4 0x6E008B35 EQ PUSH2 0x64 JUMPI DUP1 PUSH4 0x771602F7 EQ PUSH2 0x82 JUMPI JUMPDEST PUSH1 0x0 DUP1 REVERT JUMPDEST PUSH2 0x4E PUSH2 0xB2 JUMP JUMPDEST PUSH1 0x40 MLOAD PUSH2 0x5B SWAP2 SWAP1 PUSH2 0x1E9 JUMP JUMPDEST PUSH1 0x40 MLOAD DUP1 SWAP2 SUB SWAP1 RETURN JUMPDEST PUSH2 0x6C PUSH2 0xD8 JUMP JUMPDEST PUSH1 0x40 MLOAD PUSH2 0x79 SWAP2 SWAP1 PUSH2 0x204 JUMP JUMPDEST PUSH1 0x40 MLOAD DUP1 SWAP2 SUB SWAP1 RETURN JUMPDEST PUSH2 0x9C PUSH1 0x4 DUP1 CALLDATASIZE SUB PUSH2 0x97 SWAP2 SWAP1 DUP2 ADD SWAP1 PUSH2 0x18F JUMP JUMPDEST PUSH2 0xDE JUMP JUMPDEST PUSH1 0x40 MLOAD PUSH2 0xA9 SWAP2 SWAP1 PUSH2 0x204 JUMP JUMPDEST PUSH1 0x40 MLOAD DUP1 SWAP2 SUB SWAP1 RETURN JUMPDEST PUSH1 0x1 PUSH1 0x0 SWAP1 SLOAD SWAP1 PUSH2 0x100 EXP SWAP1 DIV PUSH20 0xFFFFFFFFFFFFFFFFFFFFFFFFFFFFFFFFFFFFFFFF AND DUP2 JUMP JUMPDEST PUSH1 0x0 SLOAD DUP2 JUMP JUMPDEST PUSH1 0x0 DUP2 DUP4 ADD PUSH1 0x0 DUP2 SWAP1 SSTORE POP DUP3 PUSH1 0x0 SLOAD LT ISZERO PUSH2 0xF5 JUMPI INVALID JUMPDEST PUSH32 0x7AFBE4F1C55B5F72EA356F5B4D5615831867AF31454A5CA5557F315E6D11A369 DUP4 DUP4 PUSH1 0x40 MLOAD PUSH2 0x126 SWAP3 SWAP2 SWAP1 PUSH2 0x21F JUMP JUMPDEST PUSH1 0x40 MLOAD DUP1 SWAP2 SUB SWAP1 LOG1 CALLER PUSH1 0x1 PUSH1 0x0 PUSH2 0x100 EXP DUP2 SLOAD DUP2 PUSH20 0xFFFFFFFFFFFFFFFFFFFFFFFFFFFFFFFFFFFFFFFF MUL NOT AND SWAP1 DUP4 PUSH20 0xFFFFFFFFFFFFFFFFFFFFFFFFFFFFFFFFFFFFFFFF AND MUL OR SWAP1 SSTORE POP PUSH1 0x0 SLOAD SWAP1 POP SWAP3 SWAP2 POP POP JUMP JUMPDEST PUSH1 0x0 DUP2 CALLDATALOAD SWAP1 POP PUSH2 0x189 DUP2 PUSH2 0x284 JUMP JUMPDEST SWAP3 SWAP2 POP POP JUMP JUMPDEST PUSH1 0x0 DUP1 PUSH1 0x40 DUP4 DUP6 SUB SLT ISZERO PUSH2 0x1A2 JUMPI PUSH1 0x0 DUP1 REVERT JUMPDEST PUSH1 0x0 PUSH2 0x1B0 DUP6 DUP3 DUP7 ADD PUSH2 0x17A JUMP JUMPDEST SWAP3 POP POP PUSH1 0x20 PUSH2 0x1C1 DUP6 DUP3 DUP7 ADD PUSH2 0x17A JUMP JUMPDEST SWAP2 POP POP SWAP3 POP SWAP3 SWAP1 POP JUMP JUMPDEST PUSH2 0x1D4 DUP2 PUSH2 0x248 JUMP JUMPDEST DUP3 MSTORE POP POP JUMP JUMPDEST PUSH2 0x1E3 DUP2 PUSH2 0x27A JUMP JUMPDEST DUP3 MSTORE POP POP JUMP JUMPDEST PUSH1 0x0 PUSH1 0x20 DUP3 ADD SWAP1 POP PUSH2 0x1FE PUSH1 0x0 DUP4 ADD DUP5 PUSH2 0x1CB JUMP JUMPDEST SWAP3 SWAP2 POP POP JUMP JUMPDEST PUSH1 0x0 PUSH1 0x20 DUP3 ADD SWAP1 POP PUSH2 0x219 PUSH1 0x0 DUP4 ADD DUP5 PUSH2 0x1DA JUMP JUMPDEST SWAP3 SWAP2 POP POP JUMP JUMPDEST PUSH1 0x0 PUSH1 0x40 DUP3 ADD SWAP1 POP PUSH2 0x234 PUSH1 0x0 DUP4 ADD DUP6 PUSH2 0x1DA JUMP JUMPDEST PUSH2 0x241 PUSH1 0x20 DUP4 ADD DUP5 PUSH2 0x1DA JUMP JUMPDEST SWAP4 SWAP3 POP POP POP JUMP JUMPDEST PUSH1 0x0 PUSH2 0x253 DUP3 PUSH2 0x25A JUMP JUMPDEST SWAP1 POP SWAP2 SWAP1 POP JUMP JUMPDEST PUSH1 0x0 PUSH20 0xFFFFFFFFFFFFFFFFFFFFFFFFFFFFFFFFFFFFFFFF DUP3 AND SWAP1 POP SWAP2 SWAP1 POP JUMP JUMPDEST PUSH1 0x0 DUP2 SWAP1 POP SWAP2 SWAP1 POP JUMP JUMPDEST PUSH2 0x28D DUP2 PUSH2 0x27A JUMP JUMPDEST DUP2 EQ PUSH2 0x298 JUMPI PUSH1 0x0 DUP1 REVERT JUMPDEST POP JUMP INVALID LOG3 PUSH6 0x627A7A723158 KECCAK256 0xC2 0x2D 0xC2 0xC9 0xF9 EXTCODEHASH 0xD0 0x2C 0x2B 0x4A 0xD4 0xDC SWAP2 PUSH32 0x5365146F3E52CE960F6D301DE325F4A010616C6578706572696D656E74616CF5 PUSH5 0x736F6C6343 STOP SDIV GT STOP BLOCKHASH "
				},
				"gasEstimates": {
					"creation": {
						"codeDepositCost": "146800",
						"executionCost": "190",
						"totalCost": "146990"
					},
					"external": {
						"add(uint256,uint256)": "infinite",
						"calculateResult()": "1129",
						"user()": "1192"
					}
				},
				"methodIdentifiers": {
					"add(uint256,uint256)": "771602f7",
					"calculateResult()": "6e008b35",
					"user()": "4f8632ba"
				}
			},
			"storageLayout": {
				"storage": [
					{
						"astId": 4,
						"contract": "contracts/CallingContract/Calculator.sol:Calculator",
						"label": "calculateResult",
						"offset": 0,
						"slot": "0",
						"type": "t_uint256"
					},
					{
						"astId": 6,
						"contract": "contracts/CallingContract/Calculator.sol:Calculator",
						"label": "user",
						"offset": 0,
						"slot": "1",
						"type": "t_address"
					}
				],
				"types": {
					"t_address": {
						"encoding": "inplace",
						"label": "address",
						"numberOfBytes": "20"
					},
					"t_uint256": {
						"encoding": "inplace",
						"label": "uint256",
						"numberOfBytes": "32"
					}
				}
			},
			"userdoc": {
				"methods": {}
			}
		}
	}
}