{
	"contracts/CallingContract/Storage.sol": {
		"Storage": {
			"abi": [
				{
					"inputs": [
						{
							"internalType": "uint256",
							"name": "v",
							"type": "uint256"
						}
					],
					"payable": false,
					"stateMutability": "nonpayable",
					"type": "constructor"
				},
				{
					"constant": false,
					"inputs": [
						{
							"internalType": "uint256",
							"name": "v",
							"type": "uint256"
						}
					],
					"name": "setValue",
					"outputs": [],
					"payable": false,
					"stateMutability": "nonpayable",
					"type": "function"
				},
				{
					"constant": true,
					"inputs": [],
					"name": "val",
					"outputs": [
						{
							"internalType": "uint256",
							"name": "",
							"type": "uint256"
						}
					],
					"payable": false,
					"stateMutability": "view",
					"type": "function"
				}
			],
			"devdoc": {
				"methods": {}
			},
			"evm": {
				"assembly": "    /* \"contracts/CallingContract/Storage.sol\":58:220  contract Storage {... */\n  mstore(0x40, 0x80)\n    /* \"contracts/CallingContract/Storage.sol\":104:155  constructor(uint v) public {... */\n  callvalue\n    /* \"--CODEGEN--\":8:17   */\n  dup1\n    /* \"--CODEGEN--\":5:7   */\n  iszero\n  tag_1\n  jumpi\n    /* \"--CODEGEN--\":30:31   */\n  0x00\n    /* \"--CODEGEN--\":27:28   */\n  dup1\n    /* \"--CODEGEN--\":20:32   */\n  revert\n    /* \"--CODEGEN--\":5:7   */\ntag_1:\n    /* \"contracts/CallingContract/Storage.sol\":104:155  constructor(uint v) public {... */\n  pop\n  mload(0x40)\n  sub(codesize, bytecodeSize)\n  dup1\n  bytecodeSize\n  dup4\n  codecopy\n  dup2\n  dup2\n  add\n  0x40\n  mstore\n  tag_2\n  swap2\n  swap1\n  dup2\n  add\n  swap1\n  jump(tag_3)\ntag_2:\n    /* \"contracts/CallingContract/Storage.sol\":147:148  v */\n  dup1\n    /* \"contracts/CallingContract/Storage.sol\":141:144  val */\n  0x00\n    /* \"contracts/CallingContract/Storage.sol\":141:148  val = v */\n  dup2\n  swap1\n  sstore\n  pop\n    /* \"contracts/CallingContract/Storage.sol\":104:155  constructor(uint v) public {... */\n  pop\n    /* \"contracts/CallingContract/Storage.sol\":58:220  contract Storage {... */\n  jump(tag_6)\n    /* \"--CODEGEN--\":5:139   */\ntag_8:\n  0x00\n    /* \"--CODEGEN--\":89:95   */\n  dup2\n    /* \"--CODEGEN--\":83:96   */\n  mload\n    /* \"--CODEGEN--\":74:96   */\n  swap1\n  pop\n    /* \"--CODEGEN--\":101:134   */\n  tag_9\n    /* \"--CODEGEN--\":128:133   */\n  dup2\n    /* \"--CODEGEN--\":101:134   */\n  jump(tag_10)\ntag_9:\n    /* \"--CODEGEN--\":68:139   */\n  swap3\n  swap2\n  pop\n  pop\n  jump\n    /* \"--CODEGEN--\":146:409   */\ntag_3:\n  0x00\n    /* \"--CODEGEN--\":261:263   */\n  0x20\n    /* \"--CODEGEN--\":249:258   */\n  dup3\n    /* \"--CODEGEN--\":240:247   */\n  dup5\n    /* \"--CODEGEN--\":236:259   */\n  sub\n    /* \"--CODEGEN--\":232:264   */\n  slt\n    /* \"--CODEGEN--\":229:231   */\n  iszero\n  tag_11\n  jumpi\n    /* \"--CODEGEN--\":277:278   */\n  0x00\n    /* \"--CODEGEN--\":274:275   */\n  dup1\n    /* \"--CODEGEN--\":267:279   */\n  revert\n    /* \"--CODEGEN--\":229:231   */\ntag_11:\n    /* \"--CODEGEN--\":312:313   */\n  0x00\n    /* \"--CODEGEN--\":329:393   */\n  tag_12\n    /* \"--CODEGEN--\":385:392   */\n  dup5\n    /* \"--CODEGEN--\":376:382   */\n  dup3\n    /* \"--CODEGEN--\":365:374   */\n  dup6\n    /* \"--CODEGEN--\":361:383   */\n  add\n    /* \"--CODEGEN--\":329:393   */\n  jump(tag_8)\ntag_12:\n    /* \"--CODEGEN--\":319:393   */\n  swap2\n  pop\n    /* \"--CODEGEN--\":291:399   */\n  pop\n    /* \"--CODEGEN--\":223:409   */\n  swap3\n  swap2\n  pop\n  pop\n  jump\n    /* \"--CODEGEN--\":416:488   */\ntag_13:\n  0x00\n    /* \"--CODEGEN--\":478:483   */\n  dup2\n    /* \"--CODEGEN--\":467:483   */\n  swap1\n  pop\n    /* \"--CODEGEN--\":461:488   */\n  swap2\n  swap1\n  pop\n  jump\n    /* \"--CODEGEN--\":495:612   */\ntag_10:\n    /* \"--CODEGEN--\":564:588   */\n  tag_14\n    /* \"--CODEGEN--\":582:587   */\n  dup2\n    /* \"--CODEGEN--\":564:588   */\n  jump(tag_13)\ntag_14:\n    /* \"--CODEGEN--\":557:562   */\n  dup2\n    /* \"--CODEGEN--\":554:589   */\n  eq\n    /* \"--CODEGEN--\":544:546   */\n  tag_15\n  jumpi\n    /* \"--CODEGEN--\":603:604   */\n  0x00\n    /* \"--CODEGEN--\":600:601   */\n  dup1\n    /* \"--CODEGEN--\":593:605   */\n  revert\n    /* \"--CODEGEN--\":544:546   */\ntag_15:\n    /* \"--CODEGEN--\":538:612   */\n  pop\n  jump\n    /* \"contracts/CallingContract/Storage.sol\":58:220  contract Storage {... */\ntag_6:\n  dataSize(sub_0)\n  dup1\n  dataOffset(sub_0)\n  0x00\n  codecopy\n  0x00\n  return\nstop\n\nsub_0: assembly {\n        /* \"contracts/CallingContract/Storage.sol\":58:220  contract Storage {... */\n      mstore(0x40, 0x80)\n      callvalue\n        /* \"--CODEGEN--\":8:17   */\n      dup1\n        /* \"--CODEGEN--\":5:7   */\n      iszero\n      tag_1\n      jumpi\n        /* \"--CODEGEN--\":30:31   */\n      0x00\n        /* \"--CODEGEN--\":27:28   */\n      dup1\n        /* \"--CODEGEN--\":20:32   */\n      revert\n        /* \"--CODEGEN--\":5:7   */\n    tag_1:\n        /* \"contracts/CallingContract/Storage.sol\":58:220  contract Storage {... */\n      pop\n      jumpi(tag_2, lt(calldatasize, 0x04))\n      shr(0xe0, calldataload(0x00))\n      dup1\n      0x3c6bb436\n      eq\n      tag_3\n      jumpi\n      dup1\n      0x55241077\n      eq\n      tag_4\n      jumpi\n    tag_2:\n      0x00\n      dup1\n      revert\n        /* \"contracts/CallingContract/Storage.sol\":82:97  uint public val */\n    tag_3:\n      tag_5\n      tag_6\n      jump\t// in\n    tag_5:\n      mload(0x40)\n      tag_7\n      swap2\n      swap1\n      jump(tag_8)\n    tag_7:\n      mload(0x40)\n      dup1\n      swap2\n      sub\n      swap1\n      return\n        /* \"contracts/CallingContract/Storage.sol\":161:218  function setValue(uint v) public {... */\n    tag_4:\n      tag_9\n      0x04\n      dup1\n      calldatasize\n      sub\n      tag_10\n      swap2\n      swap1\n      dup2\n      add\n      swap1\n      jump(tag_11)\n    tag_10:\n      tag_12\n      jump\t// in\n    tag_9:\n      stop\n        /* \"contracts/CallingContract/Storage.sol\":82:97  uint public val */\n    tag_6:\n      sload(0x00)\n      dup2\n      jump\t// out\n        /* \"contracts/CallingContract/Storage.sol\":161:218  function setValue(uint v) public {... */\n    tag_12:\n        /* \"contracts/CallingContract/Storage.sol\":210:211  v */\n      dup1\n        /* \"contracts/CallingContract/Storage.sol\":204:207  val */\n      0x00\n        /* \"contracts/CallingContract/Storage.sol\":204:211  val = v */\n      dup2\n      swap1\n      sstore\n      pop\n        /* \"contracts/CallingContract/Storage.sol\":161:218  function setValue(uint v) public {... */\n      pop\n      jump\t// out\n        /* \"--CODEGEN--\":5:135   */\n    tag_15:\n      0x00\n        /* \"--CODEGEN--\":85:91   */\n      dup2\n        /* \"--CODEGEN--\":72:92   */\n      calldataload\n        /* \"--CODEGEN--\":63:92   */\n      swap1\n      pop\n        /* \"--CODEGEN--\":97:130   */\n      tag_16\n        /* \"--CODEGEN--\":124:129   */\n      dup2\n        /* \"--CODEGEN--\":97:130   */\n      jump(tag_17)\n    tag_16:\n        /* \"--CODEGEN--\":57:135   */\n      swap3\n      swap2\n      pop\n      pop\n      jump\n        /* \"--CODEGEN--\":142:383   */\n    tag_11:\n      0x00\n        /* \"--CODEGEN--\":246:248   */\n      0x20\n        /* \"--CODEGEN--\":234:243   */\n      dup3\n        /* \"--CODEGEN--\":225:232   */\n      dup5\n        /* \"--CODEGEN--\":221:244   */\n      sub\n        /* \"--CODEGEN--\":217:249   */\n      slt\n        /* \"--CODEGEN--\":214:216   */\n      iszero\n      tag_18\n      jumpi\n        /* \"--CODEGEN--\":262:263   */\n      0x00\n        /* \"--CODEGEN--\":259:260   */\n      dup1\n        /* \"--CODEGEN--\":252:264   */\n      revert\n        /* \"--CODEGEN--\":214:216   */\n    tag_18:\n        /* \"--CODEGEN--\":297:298   */\n      0x00\n        /* \"--CODEGEN--\":314:367   */\n      tag_19\n        /* \"--CODEGEN--\":359:366   */\n      dup5\n        /* \"--CODEGEN--\":350:356   */\n      dup3\n        /* \"--CODEGEN--\":339:348   */\n      dup6\n        /* \"--CODEGEN--\":335:357   */\n      add\n        /* \"--CODEGEN--\":314:367   */\n      jump(tag_15)\n    tag_19:\n        /* \"--CODEGEN--\":304:367   */\n      swap2\n      pop\n        /* \"--CODEGEN--\":276:373   */\n      pop\n        /* \"--CODEGEN--\":208:383   */\n      swap3\n      swap2\n      pop\n      pop\n      jump\n        /* \"--CODEGEN--\":390:503   */\n    tag_20:\n        /* \"--CODEGEN--\":473:497   */\n      tag_21\n        /* \"--CODEGEN--\":491:496   */\n      dup2\n        /* \"--CODEGEN--\":473:497   */\n      jump(tag_22)\n    tag_21:\n        /* \"--CODEGEN--\":468:471   */\n      dup3\n        /* \"--CODEGEN--\":461:498   */\n      mstore\n        /* \"--CODEGEN--\":455:503   */\n      pop\n      pop\n      jump\n        /* \"--CODEGEN--\":510:723   */\n    tag_8:\n      0x00\n        /* \"--CODEGEN--\":628:630   */\n      0x20\n        /* \"--CODEGEN--\":617:626   */\n      dup3\n        /* \"--CODEGEN--\":613:631   */\n      add\n        /* \"--CODEGEN--\":605:631   */\n      swap1\n      pop\n        /* \"--CODEGEN--\":642:713   */\n      tag_23\n        /* \"--CODEGEN--\":710:711   */\n      0x00\n        /* \"--CODEGEN--\":699:708   */\n      dup4\n        /* \"--CODEGEN--\":695:712   */\n      add\n        /* \"--CODEGEN--\":686:692   */\n      dup5\n        /* \"--CODEGEN--\":642:713   */\n      jump(tag_20)\n    tag_23:\n        /* \"--CODEGEN--\":599:723   */\n      swap3\n      swap2\n      pop\n      pop\n      jump\n        /* \"--CODEGEN--\":730:802   */\n    tag_22:\n      0x00\n        /* \"--CODEGEN--\":792:797   */\n      dup2\n        /* \"--CODEGEN--\":781:797   */\n      swap1\n      pop\n        /* \"--CODEGEN--\":775:802   */\n      swap2\n      swap1\n      pop\n      jump\n        /* \"--CODEGEN--\":809:926   */\n    tag_17:\n        /* \"--CODEGEN--\":878:902   */\n      tag_24\n        /* \"--CODEGEN--\":896:901   */\n      dup2\n        /* \"--CODEGEN--\":878:902   */\n      jump(tag_22)\n    tag_24:\n        /* \"--CODEGEN--\":871:876   */\n      dup2\n        /* \"--CODEGEN--\":868:903   */\n      eq\n        /* \"--CODEGEN--\":858:860   */\n      tag_25\n      jumpi\n        /* \"--CODEGEN--\":917:918   */\n      0x00\n        /* \"--CODEGEN--\":914:915   */\n      dup1\n        /* \"--CODEGEN--\":907:919   */\n      revert\n        /* \"--CODEGEN--\":858:860   */\n    tag_25:\n        /* \"--CODEGEN--\":852:926   */\n      pop\n      jump\n\n    auxdata: 0xa365627a7a7231582056e5cdb1f40ea401ccd950d95bc9b3aa1c0bfcf3b31615f39b91931cdb0986606c6578706572696d656e74616cf564736f6c63430005110040\n}\n",
				"bytecode": {
					"linkReferences": {},
					"object": "608060405234801561001057600080fd5b506040516101e63803806101e683398181016040526100329190810190610054565b806000819055505061009e565b60008151905061004e81610087565b92915050565b60006020828403121561006657600080fd5b60006100748482850161003f565b91505092915050565b6000819050919050565b6100908161007d565b811461009b57600080fd5b50565b610139806100ad6000396000f3fe6080604052348015600f57600080fd5b506004361060325760003560e01c80633c6bb43614603757806355241077146051575b600080fd5b603d6069565b6040516048919060bf565b60405180910390f35b6067600480360360639190810190608c565b606f565b005b60005481565b8060008190555050565b60008135905060868160e2565b92915050565b600060208284031215609d57600080fd5b600060a9848285016079565b91505092915050565b60b98160d8565b82525050565b600060208201905060d2600083018460b2565b92915050565b6000819050919050565b60e98160d8565b811460f357600080fd5b5056fea365627a7a7231582056e5cdb1f40ea401ccd950d95bc9b3aa1c0bfcf3b31615f39b91931cdb0986606c6578706572696d656e74616cf564736f6c63430005110040",
					"opcodes": "PUSH1 0x80 PUSH1 0x40 MSTORE CALLVALUE DUP1 ISZERO PUSH2 0x10 JUMPI PUSH1 0x0 DUP1 REVERT JUMPDEST POP PUSH1 0x40 MLOAD PUSH2 0x1E6 CODESIZE SUB DUP1 PUSH2 0x1E6 DUP4 CODECOPY DUP2 DUP2 ADD PUSH1 0x40 MSTORE PUSH2 0x32 SWAP2 SWAP1 DUP2 ADD SWAP1 PUSH2 0x54 JUMP JUMPDEST DUP1 PUSH1 0x0 DUP2 SWAP1 SSTORE POP POP PUSH2 0x9E JUMP JUMPDEST PUSH1 0x0 DUP2 MLOAD SWAP1 POP PUSH2 0x4E DUP2 PUSH2 0x87 JUMP JUMPDEST SWAP3 SWAP2 POP POP JUMP JUMPDEST PUSH1 0x0 PUSH1 0x20 DUP3 DUP5 SUB SLT ISZERO PUSH2 0x66 JUMPI PUSH1 0x0 DUP1 REVERT JUMPDEST PUSH1 0x0 PUSH2 0x74 DUP5 DUP3 DUP6 ADD PUSH2 0x3F JUMP JUMPDEST SWAP2 POP POP SWAP3 SWAP2 POP POP JUMP JUMPDEST PUSH1 0x0 DUP2 SWAP1 POP SWAP2 SWAP1 POP JUMP JUMPDEST PUSH2 0x90 DUP2 PUSH2 0x7D JUMP JUMPDEST DUP2 EQ PUSH2 0x9B JUMPI PUSH1 0x0 DUP1 REVERT JUMPDEST POP JUMP JUMPDEST PUSH2 0x139 DUP1 PUSH2 0xAD PUSH1 0x0 CODECOPY PUSH1 0x0 RETURN INVALID PUSH1 0x80 PUSH1 0x40 MSTORE CALLVALUE DUP1 ISZERO PUSH1 0xF JUMPI PUSH1 0x0 DUP1 REVERT JUMPDEST POP PUSH1 0x4 CALLDATASIZE LT PUSH1 0x32 JUMPI PUSH1 0x0 CALLDATALOAD PUSH1 0xE0 SHR DUP1 PUSH4 0x3C6BB436 EQ PUSH1 0x37 JUMPI DUP1 PUSH4 0x55241077 EQ PUSH1 0x51 JUMPI JUMPDEST PUSH1 0x0 DUP1 REVERT JUMPDEST PUSH1 0x3D PUSH1 0x69 JUMP JUMPDEST PUSH1 0x40 MLOAD PUSH1 0x48 SWAP2 SWAP1 PUSH1 0xBF JUMP JUMPDEST PUSH1 0x40 MLOAD DUP1 SWAP2 SUB SWAP1 RETURN JUMPDEST PUSH1 0x67 PUSH1 0x4 DUP1 CALLDATASIZE SUB PUSH1 0x63 SWAP2 SWAP1 DUP2 ADD SWAP1 PUSH1 0x8C JUMP JUMPDEST PUSH1 0x6F JUMP JUMPDEST STOP JUMPDEST PUSH1 0x0 SLOAD DUP2 JUMP JUMPDEST DUP1 PUSH1 0x0 DUP2 SWAP1 SSTORE POP POP JUMP JUMPDEST PUSH1 0x0 DUP2 CALLDATALOAD SWAP1 POP PUSH1 0x86 DUP2 PUSH1 0xE2 JUMP JUMPDEST SWAP3 SWAP2 POP POP JUMP JUMPDEST PUSH1 0x0 PUSH1 0x20 DUP3 DUP5 SUB SLT ISZERO PUSH1 0x9D JUMPI PUSH1 0x0 DUP1 REVERT JUMPDEST PUSH1 0x0 PUSH1 0xA9 DUP5 DUP3 DUP6 ADD PUSH1 0x79 JUMP JUMPDEST SWAP2 POP POP SWAP3 SWAP2 POP POP JUMP JUMPDEST PUSH1 0xB9 DUP2 PUSH1 0xD8 JUMP JUMPDEST DUP3 MSTORE POP POP JUMP JUMPDEST PUSH1 0x0 PUSH1 0x20 DUP3 ADD SWAP1 POP PUSH1 0xD2 PUSH1 0x0 DUP4 ADD DUP5 PUSH1 0xB2 JUMP JUMPDEST SWAP3 SWAP2 POP POP JUMP JUMPDEST PUSH1 0x0 DUP2 SWAP1 POP SWAP2 SWAP1 POP JUMP JUMPDEST PUSH1 0xE9 DUP2 PUSH1 0xD8 JUMP JUMPDEST DUP2 EQ PUSH1 0xF3 JUMPI PUSH1 0x0 DUP1 REVERT JUMPDEST POP JUMP INVALID LOG3 PUSH6 0x627A7A723158 KECCAK256 JUMP 0xE5 0xCD 0xB1 DELEGATECALL 0xE LOG4 ADD 0xCC 0xD9 POP 0xD9 JUMPDEST 0xC9 0xB3 0xAA SHR SIGNEXTEND 0xFC RETURN 0xB3 AND ISZERO RETURN SWAP12 SWAP2 SWAP4 SHR 0xDB MULMOD DUP7 PUSH1 0x6C PUSH6 0x78706572696D PUSH6 0x6E74616CF564 PUSH20 0x6F6C634300051100400000000000000000000000 "
				},
				"gasEstimates": {
					"creation": {
						"codeDepositCost": "62600",
						"executionCost": "infinite",
						"totalCost": "infinite"
					},
					"external": {
						"setValue(uint256)": "20420",
						"val()": "1107"
					}
				},
				"methodIdentifiers": {
					"setValue(uint256)": "55241077",
					"val()": "3c6bb436"
				}
			},
			"storageLayout": {
				"storage": [
					{
						"astId": 149,
						"contract": "contracts/CallingContract/Storage.sol:Storage",
						"label": "val",
						"offset": 0,
						"slot": "0",
						"type": "t_uint256"
					}
				],
				"types": {
					"t_uint256": {
						"encoding": "inplace",
						"label": "uint256",
						"numberOfBytes": "32"
					}
				}
			},
			"userdoc": {
				"methods": {}
			}
		}
	}
}