{
	"contracts/RBAC Oracle/text3.sol": {
		"New3": {
			"abi": [
				{
					"inputs": [],
					"name": "num1",
					"outputs": [
						{
							"internalType": "uint256",
							"name": "",
							"type": "uint256"
						}
					],
					"stateMutability": "view",
					"type": "function"
				},
				{
					"inputs": [],
					"name": "sender1",
					"outputs": [
						{
							"internalType": "uint256",
							"name": "",
							"type": "uint256"
						}
					],
					"stateMutability": "view",
					"type": "function"
				},
				{
					"inputs": [
						{
							"internalType": "address",
							"name": "_contract",
							"type": "address"
						},
						{
							"internalType": "uint256",
							"name": "_num",
							"type": "uint256"
						}
					],
					"name": "setVars",
					"outputs": [],
					"stateMutability": "payable",
					"type": "function"
				},
				{
					"inputs": [],
					"name": "value1",
					"outputs": [
						{
							"internalType": "uint256",
							"name": "",
							"type": "uint256"
						}
					],
					"stateMutability": "view",
					"type": "function"
				}
			],
			"devdoc": {
				"kind": "dev",
				"methods": {},
				"version": 1
			},
			"evm": {
				"assembly": "    /* \"contracts/RBAC Oracle/text3.sol\":1084:1439  contract New3 {... */\n  mstore(0x40, 0x80)\n  callvalue\n  dup1\n  iszero\n  tag_1\n  jumpi\n  0x00\n  dup1\n  revert\ntag_1:\n  pop\n  dataSize(sub_0)\n  dup1\n  dataOffset(sub_0)\n  0x00\n  codecopy\n  0x00\n  return\nstop\n\nsub_0: assembly {\n        /* \"contracts/RBAC Oracle/text3.sol\":1084:1439  contract New3 {... */\n      mstore(0x40, 0x80)\n      jumpi(tag_1, lt(calldatasize, 0x04))\n      shr(0xe0, calldataload(0x00))\n      dup1\n      0x3033413b\n      eq\n      tag_2\n      jumpi\n      dup1\n      0x3b9eac4b\n      eq\n      tag_3\n      jumpi\n      dup1\n      0xd1e0f308\n      eq\n      tag_4\n      jumpi\n      dup1\n      0xf34e0e7b\n      eq\n      tag_5\n      jumpi\n    tag_1:\n      0x00\n      dup1\n      revert\n        /* \"contracts/RBAC Oracle/text3.sol\":1126:1144  uint public value1 */\n    tag_2:\n      callvalue\n      dup1\n      iszero\n      tag_6\n      jumpi\n      0x00\n      dup1\n      revert\n    tag_6:\n      pop\n      tag_7\n      tag_8\n      jump\t// in\n    tag_7:\n      mload(0x40)\n      tag_9\n      swap2\n      swap1\n      tag_10\n      jump\t// in\n    tag_9:\n      mload(0x40)\n      dup1\n      swap2\n      sub\n      swap1\n      return\n        /* \"contracts/RBAC Oracle/text3.sol\":1104:1120  uint public num1 */\n    tag_3:\n      callvalue\n      dup1\n      iszero\n      tag_11\n      jumpi\n      0x00\n      dup1\n      revert\n    tag_11:\n      pop\n      tag_12\n      tag_13\n      jump\t// in\n    tag_12:\n      mload(0x40)\n      tag_14\n      swap2\n      swap1\n      tag_10\n      jump\t// in\n    tag_14:\n      mload(0x40)\n      dup1\n      swap2\n      sub\n      swap1\n      return\n        /* \"contracts/RBAC Oracle/text3.sol\":1177:1437  function setVars(address _contract, uint _num) public payable {... */\n    tag_4:\n      tag_15\n      0x04\n      dup1\n      calldatasize\n      sub\n      dup2\n      add\n      swap1\n      tag_16\n      swap2\n      swap1\n      tag_17\n      jump\t// in\n    tag_16:\n      tag_18\n      jump\t// in\n    tag_15:\n      stop\n        /* \"contracts/RBAC Oracle/text3.sol\":1150:1169  uint public sender1 */\n    tag_5:\n      callvalue\n      dup1\n      iszero\n      tag_19\n      jumpi\n      0x00\n      dup1\n      revert\n    tag_19:\n      pop\n      tag_20\n      tag_21\n      jump\t// in\n    tag_20:\n      mload(0x40)\n      tag_22\n      swap2\n      swap1\n      tag_10\n      jump\t// in\n    tag_22:\n      mload(0x40)\n      dup1\n      swap2\n      sub\n      swap1\n      return\n        /* \"contracts/RBAC Oracle/text3.sol\":1126:1144  uint public value1 */\n    tag_8:\n      sload(0x01)\n      dup2\n      jump\t// out\n        /* \"contracts/RBAC Oracle/text3.sol\":1104:1120  uint public num1 */\n    tag_13:\n      sload(0x00)\n      dup2\n      jump\t// out\n        /* \"contracts/RBAC Oracle/text3.sol\":1177:1437  function setVars(address _contract, uint _num) public payable {... */\n    tag_18:\n        /* \"contracts/RBAC Oracle/text3.sol\":1300:1312  bool success */\n      0x00\n        /* \"contracts/RBAC Oracle/text3.sol\":1314:1331  bytes memory data */\n      dup1\n        /* \"contracts/RBAC Oracle/text3.sol\":1335:1344  _contract */\n      dup4\n        /* \"contracts/RBAC Oracle/text3.sol\":1335:1357  _contract.delegatecall */\n      0xffffffffffffffffffffffffffffffffffffffff\n      and\n        /* \"contracts/RBAC Oracle/text3.sol\":1415:1419  _num */\n      dup4\n        /* \"contracts/RBAC Oracle/text3.sol\":1371:1420  abi.encodeWithSignature(\"setVars(uint256)\", _num) */\n      add(0x24, mload(0x40))\n      tag_24\n      swap2\n      swap1\n      tag_10\n      jump\t// in\n    tag_24:\n      mload(0x40)\n      0x20\n      dup2\n      dup4\n      sub\n      sub\n      dup2\n      mstore\n      swap1\n      0x40\n      mstore\n      and(not(0xffffffffffffffffffffffffffffffffffffffffffffffffffffffff), 0x6466414b00000000000000000000000000000000000000000000000000000000)\n      0x20\n      dup3\n      add\n      dup1\n      mload\n      0xffffffffffffffffffffffffffffffffffffffffffffffffffffffff\n      dup4\n      dup2\n      dup4\n      and\n      or\n      dup4\n      mstore\n      pop\n      pop\n      pop\n      pop\n        /* \"contracts/RBAC Oracle/text3.sol\":1335:1430  _contract.delegatecall(... */\n      mload(0x40)\n      tag_25\n      swap2\n      swap1\n      tag_26\n      jump\t// in\n    tag_25:\n      0x00\n      mload(0x40)\n      dup1\n      dup4\n      sub\n      dup2\n      dup6\n      gas\n      delegatecall\n      swap2\n      pop\n      pop\n      returndatasize\n      dup1\n      0x00\n      dup2\n      eq\n      tag_29\n      jumpi\n      mload(0x40)\n      swap2\n      pop\n      and(add(returndatasize, 0x3f), not(0x1f))\n      dup3\n      add\n      0x40\n      mstore\n      returndatasize\n      dup3\n      mstore\n      returndatasize\n      0x00\n      0x20\n      dup5\n      add\n      returndatacopy\n      jump(tag_28)\n    tag_29:\n      0x60\n      swap2\n      pop\n    tag_28:\n      pop\n        /* \"contracts/RBAC Oracle/text3.sol\":1299:1430  (bool success, bytes memory data) = _contract.delegatecall(... */\n      swap2\n      pop\n      swap2\n      pop\n        /* \"contracts/RBAC Oracle/text3.sol\":1239:1437  {... */\n      pop\n      pop\n        /* \"contracts/RBAC Oracle/text3.sol\":1177:1437  function setVars(address _contract, uint _num) public payable {... */\n      pop\n      pop\n      jump\t// out\n        /* \"contracts/RBAC Oracle/text3.sol\":1150:1169  uint public sender1 */\n    tag_21:\n      sload(0x02)\n      dup2\n      jump\t// out\n        /* \"#utility.yul\":7:84   */\n    tag_30:\n        /* \"#utility.yul\":44:51   */\n      0x00\n        /* \"#utility.yul\":73:78   */\n      dup2\n        /* \"#utility.yul\":62:78   */\n      swap1\n      pop\n        /* \"#utility.yul\":7:84   */\n      swap2\n      swap1\n      pop\n      jump\t// out\n        /* \"#utility.yul\":90:208   */\n    tag_31:\n        /* \"#utility.yul\":177:201   */\n      tag_48\n        /* \"#utility.yul\":195:200   */\n      dup2\n        /* \"#utility.yul\":177:201   */\n      tag_30\n      jump\t// in\n    tag_48:\n        /* \"#utility.yul\":172:175   */\n      dup3\n        /* \"#utility.yul\":165:202   */\n      mstore\n        /* \"#utility.yul\":90:208   */\n      pop\n      pop\n      jump\t// out\n        /* \"#utility.yul\":214:436   */\n    tag_10:\n        /* \"#utility.yul\":307:311   */\n      0x00\n        /* \"#utility.yul\":345:347   */\n      0x20\n        /* \"#utility.yul\":334:343   */\n      dup3\n        /* \"#utility.yul\":330:348   */\n      add\n        /* \"#utility.yul\":322:348   */\n      swap1\n      pop\n        /* \"#utility.yul\":358:429   */\n      tag_50\n        /* \"#utility.yul\":426:427   */\n      0x00\n        /* \"#utility.yul\":415:424   */\n      dup4\n        /* \"#utility.yul\":411:428   */\n      add\n        /* \"#utility.yul\":402:408   */\n      dup5\n        /* \"#utility.yul\":358:429   */\n      tag_31\n      jump\t// in\n    tag_50:\n        /* \"#utility.yul\":214:436   */\n      swap3\n      swap2\n      pop\n      pop\n      jump\t// out\n        /* \"#utility.yul\":523:640   */\n    tag_33:\n        /* \"#utility.yul\":632:633   */\n      0x00\n        /* \"#utility.yul\":629:630   */\n      dup1\n        /* \"#utility.yul\":622:634   */\n      revert\n        /* \"#utility.yul\":769:895   */\n    tag_35:\n        /* \"#utility.yul\":806:813   */\n      0x00\n        /* \"#utility.yul\":846:888   */\n      0xffffffffffffffffffffffffffffffffffffffff\n        /* \"#utility.yul\":839:844   */\n      dup3\n        /* \"#utility.yul\":835:889   */\n      and\n        /* \"#utility.yul\":824:889   */\n      swap1\n      pop\n        /* \"#utility.yul\":769:895   */\n      swap2\n      swap1\n      pop\n      jump\t// out\n        /* \"#utility.yul\":901:997   */\n    tag_36:\n        /* \"#utility.yul\":938:945   */\n      0x00\n        /* \"#utility.yul\":967:991   */\n      tag_56\n        /* \"#utility.yul\":985:990   */\n      dup3\n        /* \"#utility.yul\":967:991   */\n      tag_35\n      jump\t// in\n    tag_56:\n        /* \"#utility.yul\":956:991   */\n      swap1\n      pop\n        /* \"#utility.yul\":901:997   */\n      swap2\n      swap1\n      pop\n      jump\t// out\n        /* \"#utility.yul\":1003:1125   */\n    tag_37:\n        /* \"#utility.yul\":1076:1100   */\n      tag_58\n        /* \"#utility.yul\":1094:1099   */\n      dup2\n        /* \"#utility.yul\":1076:1100   */\n      tag_36\n      jump\t// in\n    tag_58:\n        /* \"#utility.yul\":1069:1074   */\n      dup2\n        /* \"#utility.yul\":1066:1101   */\n      eq\n        /* \"#utility.yul\":1056:1119   */\n      tag_59\n      jumpi\n        /* \"#utility.yul\":1115:1116   */\n      0x00\n        /* \"#utility.yul\":1112:1113   */\n      dup1\n        /* \"#utility.yul\":1105:1117   */\n      revert\n        /* \"#utility.yul\":1056:1119   */\n    tag_59:\n        /* \"#utility.yul\":1003:1125   */\n      pop\n      jump\t// out\n        /* \"#utility.yul\":1131:1270   */\n    tag_38:\n        /* \"#utility.yul\":1177:1182   */\n      0x00\n        /* \"#utility.yul\":1215:1221   */\n      dup2\n        /* \"#utility.yul\":1202:1222   */\n      calldataload\n        /* \"#utility.yul\":1193:1222   */\n      swap1\n      pop\n        /* \"#utility.yul\":1231:1264   */\n      tag_61\n        /* \"#utility.yul\":1258:1263   */\n      dup2\n        /* \"#utility.yul\":1231:1264   */\n      tag_37\n      jump\t// in\n    tag_61:\n        /* \"#utility.yul\":1131:1270   */\n      swap3\n      swap2\n      pop\n      pop\n      jump\t// out\n        /* \"#utility.yul\":1276:1398   */\n    tag_39:\n        /* \"#utility.yul\":1349:1373   */\n      tag_63\n        /* \"#utility.yul\":1367:1372   */\n      dup2\n        /* \"#utility.yul\":1349:1373   */\n      tag_30\n      jump\t// in\n    tag_63:\n        /* \"#utility.yul\":1342:1347   */\n      dup2\n        /* \"#utility.yul\":1339:1374   */\n      eq\n        /* \"#utility.yul\":1329:1392   */\n      tag_64\n      jumpi\n        /* \"#utility.yul\":1388:1389   */\n      0x00\n        /* \"#utility.yul\":1385:1386   */\n      dup1\n        /* \"#utility.yul\":1378:1390   */\n      revert\n        /* \"#utility.yul\":1329:1392   */\n    tag_64:\n        /* \"#utility.yul\":1276:1398   */\n      pop\n      jump\t// out\n        /* \"#utility.yul\":1404:1543   */\n    tag_40:\n        /* \"#utility.yul\":1450:1455   */\n      0x00\n        /* \"#utility.yul\":1488:1494   */\n      dup2\n        /* \"#utility.yul\":1475:1495   */\n      calldataload\n        /* \"#utility.yul\":1466:1495   */\n      swap1\n      pop\n        /* \"#utility.yul\":1504:1537   */\n      tag_66\n        /* \"#utility.yul\":1531:1536   */\n      dup2\n        /* \"#utility.yul\":1504:1537   */\n      tag_39\n      jump\t// in\n    tag_66:\n        /* \"#utility.yul\":1404:1543   */\n      swap3\n      swap2\n      pop\n      pop\n      jump\t// out\n        /* \"#utility.yul\":1549:2023   */\n    tag_17:\n        /* \"#utility.yul\":1617:1623   */\n      0x00\n        /* \"#utility.yul\":1625:1631   */\n      dup1\n        /* \"#utility.yul\":1674:1676   */\n      0x40\n        /* \"#utility.yul\":1662:1671   */\n      dup4\n        /* \"#utility.yul\":1653:1660   */\n      dup6\n        /* \"#utility.yul\":1649:1672   */\n      sub\n        /* \"#utility.yul\":1645:1677   */\n      slt\n        /* \"#utility.yul\":1642:1761   */\n      iszero\n      tag_68\n      jumpi\n        /* \"#utility.yul\":1680:1759   */\n      tag_69\n      tag_33\n      jump\t// in\n    tag_69:\n        /* \"#utility.yul\":1642:1761   */\n    tag_68:\n        /* \"#utility.yul\":1800:1801   */\n      0x00\n        /* \"#utility.yul\":1825:1878   */\n      tag_70\n        /* \"#utility.yul\":1870:1877   */\n      dup6\n        /* \"#utility.yul\":1861:1867   */\n      dup3\n        /* \"#utility.yul\":1850:1859   */\n      dup7\n        /* \"#utility.yul\":1846:1868   */\n      add\n        /* \"#utility.yul\":1825:1878   */\n      tag_38\n      jump\t// in\n    tag_70:\n        /* \"#utility.yul\":1815:1878   */\n      swap3\n      pop\n        /* \"#utility.yul\":1771:1888   */\n      pop\n        /* \"#utility.yul\":1927:1929   */\n      0x20\n        /* \"#utility.yul\":1953:2006   */\n      tag_71\n        /* \"#utility.yul\":1998:2005   */\n      dup6\n        /* \"#utility.yul\":1989:1995   */\n      dup3\n        /* \"#utility.yul\":1978:1987   */\n      dup7\n        /* \"#utility.yul\":1974:1996   */\n      add\n        /* \"#utility.yul\":1953:2006   */\n      tag_40\n      jump\t// in\n    tag_71:\n        /* \"#utility.yul\":1943:2006   */\n      swap2\n      pop\n        /* \"#utility.yul\":1898:2016   */\n      pop\n        /* \"#utility.yul\":1549:2023   */\n      swap3\n      pop\n      swap3\n      swap1\n      pop\n      jump\t// out\n        /* \"#utility.yul\":2029:2127   */\n    tag_41:\n        /* \"#utility.yul\":2080:2086   */\n      0x00\n        /* \"#utility.yul\":2114:2119   */\n      dup2\n        /* \"#utility.yul\":2108:2120   */\n      mload\n        /* \"#utility.yul\":2098:2120   */\n      swap1\n      pop\n        /* \"#utility.yul\":2029:2127   */\n      swap2\n      swap1\n      pop\n      jump\t// out\n        /* \"#utility.yul\":2133:2280   */\n    tag_42:\n        /* \"#utility.yul\":2234:2245   */\n      0x00\n        /* \"#utility.yul\":2271:2274   */\n      dup2\n        /* \"#utility.yul\":2256:2274   */\n      swap1\n      pop\n        /* \"#utility.yul\":2133:2280   */\n      swap3\n      swap2\n      pop\n      pop\n      jump\t// out\n        /* \"#utility.yul\":2286:2532   */\n    tag_43:\n        /* \"#utility.yul\":2367:2368   */\n      0x00\n        /* \"#utility.yul\":2377:2490   */\n    tag_75:\n        /* \"#utility.yul\":2391:2397   */\n      dup4\n        /* \"#utility.yul\":2388:2389   */\n      dup2\n        /* \"#utility.yul\":2385:2398   */\n      lt\n        /* \"#utility.yul\":2377:2490   */\n      iszero\n      tag_77\n      jumpi\n        /* \"#utility.yul\":2476:2477   */\n      dup1\n        /* \"#utility.yul\":2471:2474   */\n      dup3\n        /* \"#utility.yul\":2467:2478   */\n      add\n        /* \"#utility.yul\":2461:2479   */\n      mload\n        /* \"#utility.yul\":2457:2458   */\n      dup2\n        /* \"#utility.yul\":2452:2455   */\n      dup5\n        /* \"#utility.yul\":2448:2459   */\n      add\n        /* \"#utility.yul\":2441:2480   */\n      mstore\n        /* \"#utility.yul\":2413:2415   */\n      0x20\n        /* \"#utility.yul\":2410:2411   */\n      dup2\n        /* \"#utility.yul\":2406:2416   */\n      add\n        /* \"#utility.yul\":2401:2416   */\n      swap1\n      pop\n        /* \"#utility.yul\":2377:2490   */\n      jump(tag_75)\n    tag_77:\n        /* \"#utility.yul\":2524:2525   */\n      0x00\n        /* \"#utility.yul\":2515:2521   */\n      dup5\n        /* \"#utility.yul\":2510:2513   */\n      dup5\n        /* \"#utility.yul\":2506:2522   */\n      add\n        /* \"#utility.yul\":2499:2526   */\n      mstore\n        /* \"#utility.yul\":2348:2532   */\n      pop\n        /* \"#utility.yul\":2286:2532   */\n      pop\n      pop\n      pop\n      jump\t// out\n        /* \"#utility.yul\":2538:2924   */\n    tag_44:\n        /* \"#utility.yul\":2642:2645   */\n      0x00\n        /* \"#utility.yul\":2670:2708   */\n      tag_79\n        /* \"#utility.yul\":2702:2707   */\n      dup3\n        /* \"#utility.yul\":2670:2708   */\n      tag_41\n      jump\t// in\n    tag_79:\n        /* \"#utility.yul\":2724:2812   */\n      tag_80\n        /* \"#utility.yul\":2805:2811   */\n      dup2\n        /* \"#utility.yul\":2800:2803   */\n      dup6\n        /* \"#utility.yul\":2724:2812   */\n      tag_42\n      jump\t// in\n    tag_80:\n        /* \"#utility.yul\":2717:2812   */\n      swap4\n      pop\n        /* \"#utility.yul\":2821:2886   */\n      tag_81\n        /* \"#utility.yul\":2879:2885   */\n      dup2\n        /* \"#utility.yul\":2874:2877   */\n      dup6\n        /* \"#utility.yul\":2867:2871   */\n      0x20\n        /* \"#utility.yul\":2860:2865   */\n      dup7\n        /* \"#utility.yul\":2856:2872   */\n      add\n        /* \"#utility.yul\":2821:2886   */\n      tag_43\n      jump\t// in\n    tag_81:\n        /* \"#utility.yul\":2911:2917   */\n      dup1\n        /* \"#utility.yul\":2906:2909   */\n      dup5\n        /* \"#utility.yul\":2902:2918   */\n      add\n        /* \"#utility.yul\":2895:2918   */\n      swap2\n      pop\n        /* \"#utility.yul\":2646:2924   */\n      pop\n        /* \"#utility.yul\":2538:2924   */\n      swap3\n      swap2\n      pop\n      pop\n      jump\t// out\n        /* \"#utility.yul\":2930:3201   */\n    tag_26:\n        /* \"#utility.yul\":3060:3063   */\n      0x00\n        /* \"#utility.yul\":3082:3175   */\n      tag_83\n        /* \"#utility.yul\":3171:3174   */\n      dup3\n        /* \"#utility.yul\":3162:3168   */\n      dup5\n        /* \"#utility.yul\":3082:3175   */\n      tag_44\n      jump\t// in\n    tag_83:\n        /* \"#utility.yul\":3075:3175   */\n      swap2\n      pop\n        /* \"#utility.yul\":3192:3195   */\n      dup2\n        /* \"#utility.yul\":3185:3195   */\n      swap1\n      pop\n        /* \"#utility.yul\":2930:3201   */\n      swap3\n      swap2\n      pop\n      pop\n      jump\t// out\n\n    auxdata: 0xa26469706673582212207d6a640a6514bf4841fdb91a3270d77a6a129791c76bc029878108663e9ea7d964736f6c63430008130033\n}\n",
				"bytecode": {
					"linkReferences": {},
					"object": "608060405234801561001057600080fd5b506103b4806100206000396000f3fe60806040526004361061003f5760003560e01c80633033413b146100445780633b9eac4b1461006f578063d1e0f3081461009a578063f34e0e7b146100b6575b600080fd5b34801561005057600080fd5b506100596100e1565b604051610066919061020c565b60405180910390f35b34801561007b57600080fd5b506100846100e7565b604051610091919061020c565b60405180910390f35b6100b460048036038101906100af91906102b6565b6100ed565b005b3480156100c257600080fd5b506100cb6101ed565b6040516100d8919061020c565b60405180910390f35b60015481565b60005481565b6000808373ffffffffffffffffffffffffffffffffffffffff1683604051602401610118919061020c565b6040516020818303038152906040527f6466414b000000000000000000000000000000000000000000000000000000007bffffffffffffffffffffffffffffffffffffffffffffffffffffffff19166020820180517bffffffffffffffffffffffffffffffffffffffffffffffffffffffff83818316178352505050506040516101a29190610367565b600060405180830381855af49150503d80600081146101dd576040519150601f19603f3d011682016040523d82523d6000602084013e6101e2565b606091505b509150915050505050565b60025481565b6000819050919050565b610206816101f3565b82525050565b600060208201905061022160008301846101fd565b92915050565b600080fd5b600073ffffffffffffffffffffffffffffffffffffffff82169050919050565b60006102578261022c565b9050919050565b6102678161024c565b811461027257600080fd5b50565b6000813590506102848161025e565b92915050565b610293816101f3565b811461029e57600080fd5b50565b6000813590506102b08161028a565b92915050565b600080604083850312156102cd576102cc610227565b5b60006102db85828601610275565b92505060206102ec858286016102a1565b9150509250929050565b600081519050919050565b600081905092915050565b60005b8381101561032a57808201518184015260208101905061030f565b60008484015250505050565b6000610341826102f6565b61034b8185610301565b935061035b81856020860161030c565b80840191505092915050565b60006103738284610336565b91508190509291505056fea26469706673582212207d6a640a6514bf4841fdb91a3270d77a6a129791c76bc029878108663e9ea7d964736f6c63430008130033",
					"opcodes": "PUSH1 0x80 PUSH1 0x40 MSTORE CALLVALUE DUP1 ISZERO PUSH2 0x10 JUMPI PUSH1 0x0 DUP1 REVERT JUMPDEST POP PUSH2 0x3B4 DUP1 PUSH2 0x20 PUSH1 0x0 CODECOPY PUSH1 0x0 RETURN INVALID PUSH1 0x80 PUSH1 0x40 MSTORE PUSH1 0x4 CALLDATASIZE LT PUSH2 0x3F JUMPI PUSH1 0x0 CALLDATALOAD PUSH1 0xE0 SHR DUP1 PUSH4 0x3033413B EQ PUSH2 0x44 JUMPI DUP1 PUSH4 0x3B9EAC4B EQ PUSH2 0x6F JUMPI DUP1 PUSH4 0xD1E0F308 EQ PUSH2 0x9A JUMPI DUP1 PUSH4 0xF34E0E7B EQ PUSH2 0xB6 JUMPI JUMPDEST PUSH1 0x0 DUP1 REVERT JUMPDEST CALLVALUE DUP1 ISZERO PUSH2 0x50 JUMPI PUSH1 0x0 DUP1 REVERT JUMPDEST POP PUSH2 0x59 PUSH2 0xE1 JUMP JUMPDEST PUSH1 0x40 MLOAD PUSH2 0x66 SWAP2 SWAP1 PUSH2 0x20C JUMP JUMPDEST PUSH1 0x40 MLOAD DUP1 SWAP2 SUB SWAP1 RETURN JUMPDEST CALLVALUE DUP1 ISZERO PUSH2 0x7B JUMPI PUSH1 0x0 DUP1 REVERT JUMPDEST POP PUSH2 0x84 PUSH2 0xE7 JUMP JUMPDEST PUSH1 0x40 MLOAD PUSH2 0x91 SWAP2 SWAP1 PUSH2 0x20C JUMP JUMPDEST PUSH1 0x40 MLOAD DUP1 SWAP2 SUB SWAP1 RETURN JUMPDEST PUSH2 0xB4 PUSH1 0x4 DUP1 CALLDATASIZE SUB DUP2 ADD SWAP1 PUSH2 0xAF SWAP2 SWAP1 PUSH2 0x2B6 JUMP JUMPDEST PUSH2 0xED JUMP JUMPDEST STOP JUMPDEST CALLVALUE DUP1 ISZERO PUSH2 0xC2 JUMPI PUSH1 0x0 DUP1 REVERT JUMPDEST POP PUSH2 0xCB PUSH2 0x1ED JUMP JUMPDEST PUSH1 0x40 MLOAD PUSH2 0xD8 SWAP2 SWAP1 PUSH2 0x20C JUMP JUMPDEST PUSH1 0x40 MLOAD DUP1 SWAP2 SUB SWAP1 RETURN JUMPDEST PUSH1 0x1 SLOAD DUP2 JUMP JUMPDEST PUSH1 0x0 SLOAD DUP2 JUMP JUMPDEST PUSH1 0x0 DUP1 DUP4 PUSH20 0xFFFFFFFFFFFFFFFFFFFFFFFFFFFFFFFFFFFFFFFF AND DUP4 PUSH1 0x40 MLOAD PUSH1 0x24 ADD PUSH2 0x118 SWAP2 SWAP1 PUSH2 0x20C JUMP JUMPDEST PUSH1 0x40 MLOAD PUSH1 0x20 DUP2 DUP4 SUB SUB DUP2 MSTORE SWAP1 PUSH1 0x40 MSTORE PUSH32 0x6466414B00000000000000000000000000000000000000000000000000000000 PUSH28 0xFFFFFFFFFFFFFFFFFFFFFFFFFFFFFFFFFFFFFFFFFFFFFFFFFFFFFFFF NOT AND PUSH1 0x20 DUP3 ADD DUP1 MLOAD PUSH28 0xFFFFFFFFFFFFFFFFFFFFFFFFFFFFFFFFFFFFFFFFFFFFFFFFFFFFFFFF DUP4 DUP2 DUP4 AND OR DUP4 MSTORE POP POP POP POP PUSH1 0x40 MLOAD PUSH2 0x1A2 SWAP2 SWAP1 PUSH2 0x367 JUMP JUMPDEST PUSH1 0x0 PUSH1 0x40 MLOAD DUP1 DUP4 SUB DUP2 DUP6 GAS DELEGATECALL SWAP2 POP POP RETURNDATASIZE DUP1 PUSH1 0x0 DUP2 EQ PUSH2 0x1DD JUMPI PUSH1 0x40 MLOAD SWAP2 POP PUSH1 0x1F NOT PUSH1 0x3F RETURNDATASIZE ADD AND DUP3 ADD PUSH1 0x40 MSTORE RETURNDATASIZE DUP3 MSTORE RETURNDATASIZE PUSH1 0x0 PUSH1 0x20 DUP5 ADD RETURNDATACOPY PUSH2 0x1E2 JUMP JUMPDEST PUSH1 0x60 SWAP2 POP JUMPDEST POP SWAP2 POP SWAP2 POP POP POP POP POP JUMP JUMPDEST PUSH1 0x2 SLOAD DUP2 JUMP JUMPDEST PUSH1 0x0 DUP2 SWAP1 POP SWAP2 SWAP1 POP JUMP JUMPDEST PUSH2 0x206 DUP2 PUSH2 0x1F3 JUMP JUMPDEST DUP3 MSTORE POP POP JUMP JUMPDEST PUSH1 0x0 PUSH1 0x20 DUP3 ADD SWAP1 POP PUSH2 0x221 PUSH1 0x0 DUP4 ADD DUP5 PUSH2 0x1FD JUMP JUMPDEST SWAP3 SWAP2 POP POP JUMP JUMPDEST PUSH1 0x0 DUP1 REVERT JUMPDEST PUSH1 0x0 PUSH20 0xFFFFFFFFFFFFFFFFFFFFFFFFFFFFFFFFFFFFFFFF DUP3 AND SWAP1 POP SWAP2 SWAP1 POP JUMP JUMPDEST PUSH1 0x0 PUSH2 0x257 DUP3 PUSH2 0x22C JUMP JUMPDEST SWAP1 POP SWAP2 SWAP1 POP JUMP JUMPDEST PUSH2 0x267 DUP2 PUSH2 0x24C JUMP JUMPDEST DUP2 EQ PUSH2 0x272 JUMPI PUSH1 0x0 DUP1 REVERT JUMPDEST POP JUMP JUMPDEST PUSH1 0x0 DUP2 CALLDATALOAD SWAP1 POP PUSH2 0x284 DUP2 PUSH2 0x25E JUMP JUMPDEST SWAP3 SWAP2 POP POP JUMP JUMPDEST PUSH2 0x293 DUP2 PUSH2 0x1F3 JUMP JUMPDEST DUP2 EQ PUSH2 0x29E JUMPI PUSH1 0x0 DUP1 REVERT JUMPDEST POP JUMP JUMPDEST PUSH1 0x0 DUP2 CALLDATALOAD SWAP1 POP PUSH2 0x2B0 DUP2 PUSH2 0x28A JUMP JUMPDEST SWAP3 SWAP2 POP POP JUMP JUMPDEST PUSH1 0x0 DUP1 PUSH1 0x40 DUP4 DUP6 SUB SLT ISZERO PUSH2 0x2CD JUMPI PUSH2 0x2CC PUSH2 0x227 JUMP JUMPDEST JUMPDEST PUSH1 0x0 PUSH2 0x2DB DUP6 DUP3 DUP7 ADD PUSH2 0x275 JUMP JUMPDEST SWAP3 POP POP PUSH1 0x20 PUSH2 0x2EC DUP6 DUP3 DUP7 ADD PUSH2 0x2A1 JUMP JUMPDEST SWAP2 POP POP SWAP3 POP SWAP3 SWAP1 POP JUMP JUMPDEST PUSH1 0x0 DUP2 MLOAD SWAP1 POP SWAP2 SWAP1 POP JUMP JUMPDEST PUSH1 0x0 DUP2 SWAP1 POP SWAP3 SWAP2 POP POP JUMP JUMPDEST PUSH1 0x0 JUMPDEST DUP4 DUP2 LT ISZERO PUSH2 0x32A JUMPI DUP1 DUP3 ADD MLOAD DUP2 DUP5 ADD MSTORE PUSH1 0x20 DUP2 ADD SWAP1 POP PUSH2 0x30F JUMP JUMPDEST PUSH1 0x0 DUP5 DUP5 ADD MSTORE POP POP POP POP JUMP JUMPDEST PUSH1 0x0 PUSH2 0x341 DUP3 PUSH2 0x2F6 JUMP JUMPDEST PUSH2 0x34B DUP2 DUP6 PUSH2 0x301 JUMP JUMPDEST SWAP4 POP PUSH2 0x35B DUP2 DUP6 PUSH1 0x20 DUP7 ADD PUSH2 0x30C JUMP JUMPDEST DUP1 DUP5 ADD SWAP2 POP POP SWAP3 SWAP2 POP POP JUMP JUMPDEST PUSH1 0x0 PUSH2 0x373 DUP3 DUP5 PUSH2 0x336 JUMP JUMPDEST SWAP2 POP DUP2 SWAP1 POP SWAP3 SWAP2 POP POP JUMP INVALID LOG2 PUSH5 0x6970667358 0x22 SLT KECCAK256 PUSH30 0x6A640A6514BF4841FDB91A3270D77A6A129791C76BC029878108663E9EA7 0xD9 PUSH5 0x736F6C6343 STOP ADDMOD SGT STOP CALLER "
				},
				"gasEstimates": {
					"creation": {
						"codeDepositCost": "189600",
						"executionCost": "232",
						"totalCost": "189832"
					},
					"external": {
						"num1()": "2429",
						"sender1()": "2473",
						"setVars(address,uint256)": "infinite",
						"value1()": "2407"
					}
				},
				"methodIdentifiers": {
					"num1()": "3b9eac4b",
					"sender1()": "f34e0e7b",
					"setVars(address,uint256)": "d1e0f308",
					"value1()": "3033413b"
				}
			},
			"storageLayout": {
				"storage": [
					{
						"astId": 86,
						"contract": "contracts/RBAC Oracle/text3.sol:New3",
						"label": "num1",
						"offset": 0,
						"slot": "0",
						"type": "t_uint256"
					},
					{
						"astId": 88,
						"contract": "contracts/RBAC Oracle/text3.sol:New3",
						"label": "value1",
						"offset": 0,
						"slot": "1",
						"type": "t_uint256"
					},
					{
						"astId": 90,
						"contract": "contracts/RBAC Oracle/text3.sol:New3",
						"label": "sender1",
						"offset": 0,
						"slot": "2",
						"type": "t_uint256"
					}
				],
				"types": {
					"t_uint256": {
						"encoding": "inplace",
						"label": "uint256",
						"numberOfBytes": "32"
					}
				}
			},
			"userdoc": {
				"kind": "user",
				"methods": {},
				"version": 1
			}
		}
	}
}