{
	"contracts/RBAC Oracle/storageteuxt.sol": {
		"RolePermissionBySol": {
			"abi": [
				{
					"inputs": [],
					"payable": false,
					"stateMutability": "nonpayable",
					"type": "constructor"
				},
				{
					"anonymous": false,
					"inputs": [
						{
							"indexed": false,
							"internalType": "address",
							"name": "studentId",
							"type": "address"
						},
						{
							"indexed": false,
							"internalType": "uint256",
							"name": "RoleID",
							"type": "uint256"
						},
						{
							"indexed": false,
							"internalType": "uint256",
							"name": "PermissionID",
							"type": "uint256"
						}
					],
					"name": "setPermissionEvent",
					"type": "event"
				},
				{
					"constant": true,
					"inputs": [
						{
							"internalType": "address",
							"name": "",
							"type": "address"
						}
					],
					"name": "balanceOf",
					"outputs": [
						{
							"internalType": "uint256",
							"name": "",
							"type": "uint256"
						}
					],
					"payable": false,
					"stateMutability": "view",
					"type": "function"
				},
				{
					"constant": true,
					"inputs": [
						{
							"internalType": "uint256",
							"name": "RoleID",
							"type": "uint256"
						}
					],
					"name": "getPermission",
					"outputs": [
						{
							"internalType": "uint256",
							"name": "",
							"type": "uint256"
						}
					],
					"payable": false,
					"stateMutability": "view",
					"type": "function"
				},
				{
					"constant": false,
					"inputs": [
						{
							"internalType": "address",
							"name": "_address",
							"type": "address"
						},
						{
							"internalType": "uint256",
							"name": "RoleID",
							"type": "uint256"
						}
					],
					"name": "setBlance",
					"outputs": [
						{
							"internalType": "uint256",
							"name": "",
							"type": "uint256"
						}
					],
					"payable": false,
					"stateMutability": "nonpayable",
					"type": "function"
				},
				{
					"constant": false,
					"inputs": [
						{
							"internalType": "address",
							"name": "studentId",
							"type": "address"
						},
						{
							"internalType": "uint256",
							"name": "RoleID",
							"type": "uint256"
						},
						{
							"internalType": "uint256",
							"name": "PermissionID",
							"type": "uint256"
						}
					],
					"name": "setPermission",
					"outputs": [
						{
							"internalType": "bool",
							"name": "",
							"type": "bool"
						}
					],
					"payable": false,
					"stateMutability": "nonpayable",
					"type": "function"
				}
			],
			"devdoc": {
				"methods": {}
			},
			"evm": {
				"assembly": "    /* \"contracts/RBAC Oracle/storageteuxt.sol\":98:1428  contract RolePermissionBySol{... */\n  mstore(0x40, 0x80)\n    /* \"contracts/RBAC Oracle/storageteuxt.sol\":650:708  constructor () public {... */\n  callvalue\n    /* \"--CODEGEN--\":8:17   */\n  dup1\n    /* \"--CODEGEN--\":5:7   */\n  iszero\n  tag_1\n  jumpi\n    /* \"--CODEGEN--\":30:31   */\n  0x00\n    /* \"--CODEGEN--\":27:28   */\n  dup1\n    /* \"--CODEGEN--\":20:32   */\n  revert\n    /* \"--CODEGEN--\":5:7   */\ntag_1:\n    /* \"contracts/RBAC Oracle/storageteuxt.sol\":650:708  constructor () public {... */\n  pop\n    /* \"contracts/RBAC Oracle/storageteuxt.sol\":691:701  msg.sender */\n  caller\n    /* \"contracts/RBAC Oracle/storageteuxt.sol\":682:688  _owner */\n  0x00\n  dup1\n    /* \"contracts/RBAC Oracle/storageteuxt.sol\":682:701  _owner = msg.sender */\n  0x0100\n  exp\n  dup2\n  sload\n  dup2\n  0xffffffffffffffffffffffffffffffffffffffff\n  mul\n  not\n  and\n  swap1\n  dup4\n  0xffffffffffffffffffffffffffffffffffffffff\n  and\n  mul\n  or\n  swap1\n  sstore\n  pop\n    /* \"contracts/RBAC Oracle/storageteuxt.sol\":98:1428  contract RolePermissionBySol{... */\n  dataSize(sub_0)\n  dup1\n  dataOffset(sub_0)\n  0x00\n  codecopy\n  0x00\n  return\nstop\n\nsub_0: assembly {\n        /* \"contracts/RBAC Oracle/storageteuxt.sol\":98:1428  contract RolePermissionBySol{... */\n      mstore(0x40, 0x80)\n      callvalue\n        /* \"--CODEGEN--\":8:17   */\n      dup1\n        /* \"--CODEGEN--\":5:7   */\n      iszero\n      tag_1\n      jumpi\n        /* \"--CODEGEN--\":30:31   */\n      0x00\n        /* \"--CODEGEN--\":27:28   */\n      dup1\n        /* \"--CODEGEN--\":20:32   */\n      revert\n        /* \"--CODEGEN--\":5:7   */\n    tag_1:\n        /* \"contracts/RBAC Oracle/storageteuxt.sol\":98:1428  contract RolePermissionBySol{... */\n      pop\n      jumpi(tag_2, lt(calldatasize, 0x04))\n      shr(0xe0, calldataload(0x00))\n      dup1\n      0x1e10f2fe\n      eq\n      tag_3\n      jumpi\n      dup1\n      0x70a08231\n      eq\n      tag_4\n      jumpi\n      dup1\n      0xa802e5b4\n      eq\n      tag_5\n      jumpi\n      dup1\n      0xffb5e276\n      eq\n      tag_6\n      jumpi\n    tag_2:\n      0x00\n      dup1\n      revert\n        /* \"contracts/RBAC Oracle/storageteuxt.sol\":1247:1425  function setBlance(address _address, uint RoleID) public returns (uint) {... */\n    tag_3:\n      tag_7\n      0x04\n      dup1\n      calldatasize\n      sub\n      tag_8\n      swap2\n      swap1\n      dup2\n      add\n      swap1\n      jump(tag_9)\n    tag_8:\n      tag_10\n      jump\t// in\n    tag_7:\n      mload(0x40)\n      tag_11\n      swap2\n      swap1\n      jump(tag_12)\n    tag_11:\n      mload(0x40)\n      dup1\n      swap2\n      sub\n      swap1\n      return\n        /* \"contracts/RBAC Oracle/storageteuxt.sol\":1197:1239  mapping (address => uint) public balanceOf */\n    tag_4:\n      tag_13\n      0x04\n      dup1\n      calldatasize\n      sub\n      tag_14\n      swap2\n      swap1\n      dup2\n      add\n      swap1\n      jump(tag_15)\n    tag_14:\n      tag_16\n      jump\t// in\n    tag_13:\n      mload(0x40)\n      tag_17\n      swap2\n      swap1\n      jump(tag_12)\n    tag_17:\n      mload(0x40)\n      dup1\n      swap2\n      sub\n      swap1\n      return\n        /* \"contracts/RBAC Oracle/storageteuxt.sol\":765:1022  function setPermission (address studentId, uint RoleID, uint PermissionID) public onlyOwner returns (bool) {... */\n    tag_5:\n      tag_18\n      0x04\n      dup1\n      calldatasize\n      sub\n      tag_19\n      swap2\n      swap1\n      dup2\n      add\n      swap1\n      jump(tag_20)\n    tag_19:\n      tag_21\n      jump\t// in\n    tag_18:\n      mload(0x40)\n      tag_22\n      swap2\n      swap1\n      jump(tag_23)\n    tag_22:\n      mload(0x40)\n      dup1\n      swap2\n      sub\n      swap1\n      return\n        /* \"contracts/RBAC Oracle/storageteuxt.sol\":1072:1191  function getPermission (uint RoleID) public view returns (uint) {... */\n    tag_6:\n      tag_24\n      0x04\n      dup1\n      calldatasize\n      sub\n      tag_25\n      swap2\n      swap1\n      dup2\n      add\n      swap1\n      jump(tag_26)\n    tag_25:\n      tag_27\n      jump\t// in\n    tag_24:\n      mload(0x40)\n      tag_28\n      swap2\n      swap1\n      jump(tag_12)\n    tag_28:\n      mload(0x40)\n      dup1\n      swap2\n      sub\n      swap1\n      return\n        /* \"contracts/RBAC Oracle/storageteuxt.sol\":1247:1425  function setBlance(address _address, uint RoleID) public returns (uint) {... */\n    tag_10:\n        /* \"contracts/RBAC Oracle/storageteuxt.sol\":1313:1317  uint */\n      0x00\n        /* \"contracts/RBAC Oracle/storageteuxt.sol\":1351:1362  _permission */\n      0x01\n        /* \"contracts/RBAC Oracle/storageteuxt.sol\":1351:1374  _permission[msg.sender] */\n      0x00\n        /* \"contracts/RBAC Oracle/storageteuxt.sol\":1363:1373  msg.sender */\n      caller\n        /* \"contracts/RBAC Oracle/storageteuxt.sol\":1351:1374  _permission[msg.sender] */\n      0xffffffffffffffffffffffffffffffffffffffff\n      and\n      0xffffffffffffffffffffffffffffffffffffffff\n      and\n      dup2\n      mstore\n      0x20\n      add\n      swap1\n      dup2\n      mstore\n      0x20\n      add\n      0x00\n      keccak256\n        /* \"contracts/RBAC Oracle/storageteuxt.sol\":1351:1382  _permission[msg.sender][RoleID] */\n      0x00\n        /* \"contracts/RBAC Oracle/storageteuxt.sol\":1375:1381  RoleID */\n      dup4\n        /* \"contracts/RBAC Oracle/storageteuxt.sol\":1351:1382  _permission[msg.sender][RoleID] */\n      dup2\n      mstore\n      0x20\n      add\n      swap1\n      dup2\n      mstore\n      0x20\n      add\n      0x00\n      keccak256\n      sload\n        /* \"contracts/RBAC Oracle/storageteuxt.sol\":1329:1338  balanceOf */\n      0x02\n        /* \"contracts/RBAC Oracle/storageteuxt.sol\":1329:1348  balanceOf[_address] */\n      0x00\n        /* \"contracts/RBAC Oracle/storageteuxt.sol\":1339:1347  _address */\n      dup6\n        /* \"contracts/RBAC Oracle/storageteuxt.sol\":1329:1348  balanceOf[_address] */\n      0xffffffffffffffffffffffffffffffffffffffff\n      and\n      0xffffffffffffffffffffffffffffffffffffffff\n      and\n      dup2\n      mstore\n      0x20\n      add\n      swap1\n      dup2\n      mstore\n      0x20\n      add\n      0x00\n      keccak256\n        /* \"contracts/RBAC Oracle/storageteuxt.sol\":1329:1382  balanceOf[_address] = _permission[msg.sender][RoleID] */\n      dup2\n      swap1\n      sstore\n      pop\n        /* \"contracts/RBAC Oracle/storageteuxt.sol\":1399:1408  balanceOf */\n      0x02\n        /* \"contracts/RBAC Oracle/storageteuxt.sol\":1399:1418  balanceOf[_address] */\n      0x00\n        /* \"contracts/RBAC Oracle/storageteuxt.sol\":1409:1417  _address */\n      dup5\n        /* \"contracts/RBAC Oracle/storageteuxt.sol\":1399:1418  balanceOf[_address] */\n      0xffffffffffffffffffffffffffffffffffffffff\n      and\n      0xffffffffffffffffffffffffffffffffffffffff\n      and\n      dup2\n      mstore\n      0x20\n      add\n      swap1\n      dup2\n      mstore\n      0x20\n      add\n      0x00\n      keccak256\n      sload\n        /* \"contracts/RBAC Oracle/storageteuxt.sol\":1392:1418  return balanceOf[_address] */\n      swap1\n      pop\n        /* \"contracts/RBAC Oracle/storageteuxt.sol\":1247:1425  function setBlance(address _address, uint RoleID) public returns (uint) {... */\n      swap3\n      swap2\n      pop\n      pop\n      jump\t// out\n        /* \"contracts/RBAC Oracle/storageteuxt.sol\":1197:1239  mapping (address => uint) public balanceOf */\n    tag_16:\n      mstore(0x20, 0x02)\n      dup1\n      0x00\n      mstore\n      keccak256(0x00, 0x40)\n      0x00\n      swap2\n      pop\n      swap1\n      pop\n      sload\n      dup2\n      jump\t// out\n        /* \"contracts/RBAC Oracle/storageteuxt.sol\":765:1022  function setPermission (address studentId, uint RoleID, uint PermissionID) public onlyOwner returns (bool) {... */\n    tag_21:\n        /* \"contracts/RBAC Oracle/storageteuxt.sol\":866:870  bool */\n      0x00\n        /* \"contracts/RBAC Oracle/storageteuxt.sol\":536:546  msg.sender */\n      caller\n        /* \"contracts/RBAC Oracle/storageteuxt.sol\":526:546  _owner == msg.sender */\n      0xffffffffffffffffffffffffffffffffffffffff\n      and\n        /* \"contracts/RBAC Oracle/storageteuxt.sol\":526:532  _owner */\n      0x00\n      dup1\n      swap1\n      sload\n      swap1\n      0x0100\n      exp\n      swap1\n      div\n      0xffffffffffffffffffffffffffffffffffffffff\n      and\n        /* \"contracts/RBAC Oracle/storageteuxt.sol\":526:546  _owner == msg.sender */\n      0xffffffffffffffffffffffffffffffffffffffff\n      and\n      eq\n        /* \"contracts/RBAC Oracle/storageteuxt.sol\":517:583  require (_owner == msg.sender, \"Auth: only owner is authorized. \") */\n      tag_31\n      jumpi\n      mload(0x40)\n      0x08c379a000000000000000000000000000000000000000000000000000000000\n      dup2\n      mstore\n      0x04\n      add\n      tag_32\n      swap1\n      jump(tag_33)\n    tag_32:\n      mload(0x40)\n      dup1\n      swap2\n      sub\n      swap1\n      revert\n    tag_31:\n        /* \"contracts/RBAC Oracle/storageteuxt.sol\":915:927  PermissionID */\n      dup2\n        /* \"contracts/RBAC Oracle/storageteuxt.sol\":882:893  _permission */\n      0x01\n        /* \"contracts/RBAC Oracle/storageteuxt.sol\":882:904  _permission[studentId] */\n      0x00\n        /* \"contracts/RBAC Oracle/storageteuxt.sol\":894:903  studentId */\n      dup7\n        /* \"contracts/RBAC Oracle/storageteuxt.sol\":882:904  _permission[studentId] */\n      0xffffffffffffffffffffffffffffffffffffffff\n      and\n      0xffffffffffffffffffffffffffffffffffffffff\n      and\n      dup2\n      mstore\n      0x20\n      add\n      swap1\n      dup2\n      mstore\n      0x20\n      add\n      0x00\n      keccak256\n        /* \"contracts/RBAC Oracle/storageteuxt.sol\":882:912  _permission[studentId][RoleID] */\n      0x00\n        /* \"contracts/RBAC Oracle/storageteuxt.sol\":905:911  RoleID */\n      dup6\n        /* \"contracts/RBAC Oracle/storageteuxt.sol\":882:912  _permission[studentId][RoleID] */\n      dup2\n      mstore\n      0x20\n      add\n      swap1\n      dup2\n      mstore\n      0x20\n      add\n      0x00\n      keccak256\n        /* \"contracts/RBAC Oracle/storageteuxt.sol\":882:927  _permission[studentId][RoleID] = PermissionID */\n      dup2\n      swap1\n      sstore\n      pop\n        /* \"contracts/RBAC Oracle/storageteuxt.sol\":942:993  setPermissionEvent(studentId, RoleID, PermissionID) */\n      0x96c8d057dd3d2164b8d3a868d84050c504b2c3ae4c9c0b5dc33501660c1f09ad\n        /* \"contracts/RBAC Oracle/storageteuxt.sol\":961:970  studentId */\n      dup5\n        /* \"contracts/RBAC Oracle/storageteuxt.sol\":972:978  RoleID */\n      dup5\n        /* \"contracts/RBAC Oracle/storageteuxt.sol\":980:992  PermissionID */\n      dup5\n        /* \"contracts/RBAC Oracle/storageteuxt.sol\":942:993  setPermissionEvent(studentId, RoleID, PermissionID) */\n      mload(0x40)\n      tag_35\n      swap4\n      swap3\n      swap2\n      swap1\n      jump(tag_36)\n    tag_35:\n      mload(0x40)\n      dup1\n      swap2\n      sub\n      swap1\n      log1\n        /* \"contracts/RBAC Oracle/storageteuxt.sol\":1011:1015  true */\n      0x01\n        /* \"contracts/RBAC Oracle/storageteuxt.sol\":1004:1015  return true */\n      swap1\n      pop\n        /* \"contracts/RBAC Oracle/storageteuxt.sol\":765:1022  function setPermission (address studentId, uint RoleID, uint PermissionID) public onlyOwner returns (bool) {... */\n      swap4\n      swap3\n      pop\n      pop\n      pop\n      jump\t// out\n        /* \"contracts/RBAC Oracle/storageteuxt.sol\":1072:1191  function getPermission (uint RoleID) public view returns (uint) {... */\n    tag_27:\n        /* \"contracts/RBAC Oracle/storageteuxt.sol\":1130:1134  uint */\n      0x00\n        /* \"contracts/RBAC Oracle/storageteuxt.sol\":1153:1164  _permission */\n      0x01\n        /* \"contracts/RBAC Oracle/storageteuxt.sol\":1153:1176  _permission[msg.sender] */\n      0x00\n        /* \"contracts/RBAC Oracle/storageteuxt.sol\":1165:1175  msg.sender */\n      caller\n        /* \"contracts/RBAC Oracle/storageteuxt.sol\":1153:1176  _permission[msg.sender] */\n      0xffffffffffffffffffffffffffffffffffffffff\n      and\n      0xffffffffffffffffffffffffffffffffffffffff\n      and\n      dup2\n      mstore\n      0x20\n      add\n      swap1\n      dup2\n      mstore\n      0x20\n      add\n      0x00\n      keccak256\n        /* \"contracts/RBAC Oracle/storageteuxt.sol\":1153:1184  _permission[msg.sender][RoleID] */\n      0x00\n        /* \"contracts/RBAC Oracle/storageteuxt.sol\":1177:1183  RoleID */\n      dup4\n        /* \"contracts/RBAC Oracle/storageteuxt.sol\":1153:1184  _permission[msg.sender][RoleID] */\n      dup2\n      mstore\n      0x20\n      add\n      swap1\n      dup2\n      mstore\n      0x20\n      add\n      0x00\n      keccak256\n      sload\n        /* \"contracts/RBAC Oracle/storageteuxt.sol\":1146:1184  return _permission[msg.sender][RoleID] */\n      swap1\n      pop\n        /* \"contracts/RBAC Oracle/storageteuxt.sol\":1072:1191  function getPermission (uint RoleID) public view returns (uint) {... */\n      swap2\n      swap1\n      pop\n      jump\t// out\n        /* \"--CODEGEN--\":5:135   */\n    tag_39:\n      0x00\n        /* \"--CODEGEN--\":85:91   */\n      dup2\n        /* \"--CODEGEN--\":72:92   */\n      calldataload\n        /* \"--CODEGEN--\":63:92   */\n      swap1\n      pop\n        /* \"--CODEGEN--\":97:130   */\n      tag_40\n        /* \"--CODEGEN--\":124:129   */\n      dup2\n        /* \"--CODEGEN--\":97:130   */\n      jump(tag_41)\n    tag_40:\n        /* \"--CODEGEN--\":57:135   */\n      swap3\n      swap2\n      pop\n      pop\n      jump\n        /* \"--CODEGEN--\":142:272   */\n    tag_42:\n      0x00\n        /* \"--CODEGEN--\":222:228   */\n      dup2\n        /* \"--CODEGEN--\":209:229   */\n      calldataload\n        /* \"--CODEGEN--\":200:229   */\n      swap1\n      pop\n        /* \"--CODEGEN--\":234:267   */\n      tag_43\n        /* \"--CODEGEN--\":261:266   */\n      dup2\n        /* \"--CODEGEN--\":234:267   */\n      jump(tag_44)\n    tag_43:\n        /* \"--CODEGEN--\":194:272   */\n      swap3\n      swap2\n      pop\n      pop\n      jump\n        /* \"--CODEGEN--\":279:520   */\n    tag_15:\n      0x00\n        /* \"--CODEGEN--\":383:385   */\n      0x20\n        /* \"--CODEGEN--\":371:380   */\n      dup3\n        /* \"--CODEGEN--\":362:369   */\n      dup5\n        /* \"--CODEGEN--\":358:381   */\n      sub\n        /* \"--CODEGEN--\":354:386   */\n      slt\n        /* \"--CODEGEN--\":351:353   */\n      iszero\n      tag_45\n      jumpi\n        /* \"--CODEGEN--\":399:400   */\n      0x00\n        /* \"--CODEGEN--\":396:397   */\n      dup1\n        /* \"--CODEGEN--\":389:401   */\n      revert\n        /* \"--CODEGEN--\":351:353   */\n    tag_45:\n        /* \"--CODEGEN--\":434:435   */\n      0x00\n        /* \"--CODEGEN--\":451:504   */\n      tag_46\n        /* \"--CODEGEN--\":496:503   */\n      dup5\n        /* \"--CODEGEN--\":487:493   */\n      dup3\n        /* \"--CODEGEN--\":476:485   */\n      dup6\n        /* \"--CODEGEN--\":472:494   */\n      add\n        /* \"--CODEGEN--\":451:504   */\n      jump(tag_39)\n    tag_46:\n        /* \"--CODEGEN--\":441:504   */\n      swap2\n      pop\n        /* \"--CODEGEN--\":413:510   */\n      pop\n        /* \"--CODEGEN--\":345:520   */\n      swap3\n      swap2\n      pop\n      pop\n      jump\n        /* \"--CODEGEN--\":527:893   */\n    tag_9:\n      0x00\n      dup1\n        /* \"--CODEGEN--\":648:650   */\n      0x40\n        /* \"--CODEGEN--\":636:645   */\n      dup4\n        /* \"--CODEGEN--\":627:634   */\n      dup6\n        /* \"--CODEGEN--\":623:646   */\n      sub\n        /* \"--CODEGEN--\":619:651   */\n      slt\n        /* \"--CODEGEN--\":616:618   */\n      iszero\n      tag_47\n      jumpi\n        /* \"--CODEGEN--\":664:665   */\n      0x00\n        /* \"--CODEGEN--\":661:662   */\n      dup1\n        /* \"--CODEGEN--\":654:666   */\n      revert\n        /* \"--CODEGEN--\":616:618   */\n    tag_47:\n        /* \"--CODEGEN--\":699:700   */\n      0x00\n        /* \"--CODEGEN--\":716:769   */\n      tag_48\n        /* \"--CODEGEN--\":761:768   */\n      dup6\n        /* \"--CODEGEN--\":752:758   */\n      dup3\n        /* \"--CODEGEN--\":741:750   */\n      dup7\n        /* \"--CODEGEN--\":737:759   */\n      add\n        /* \"--CODEGEN--\":716:769   */\n      jump(tag_39)\n    tag_48:\n        /* \"--CODEGEN--\":706:769   */\n      swap3\n      pop\n        /* \"--CODEGEN--\":678:775   */\n      pop\n        /* \"--CODEGEN--\":806:808   */\n      0x20\n        /* \"--CODEGEN--\":824:877   */\n      tag_49\n        /* \"--CODEGEN--\":869:876   */\n      dup6\n        /* \"--CODEGEN--\":860:866   */\n      dup3\n        /* \"--CODEGEN--\":849:858   */\n      dup7\n        /* \"--CODEGEN--\":845:867   */\n      add\n        /* \"--CODEGEN--\":824:877   */\n      jump(tag_42)\n    tag_49:\n        /* \"--CODEGEN--\":814:877   */\n      swap2\n      pop\n        /* \"--CODEGEN--\":785:883   */\n      pop\n        /* \"--CODEGEN--\":610:893   */\n      swap3\n      pop\n      swap3\n      swap1\n      pop\n      jump\n        /* \"--CODEGEN--\":900:1391   */\n    tag_20:\n      0x00\n      dup1\n      0x00\n        /* \"--CODEGEN--\":1038:1040   */\n      0x60\n        /* \"--CODEGEN--\":1026:1035   */\n      dup5\n        /* \"--CODEGEN--\":1017:1024   */\n      dup7\n        /* \"--CODEGEN--\":1013:1036   */\n      sub\n        /* \"--CODEGEN--\":1009:1041   */\n      slt\n        /* \"--CODEGEN--\":1006:1008   */\n      iszero\n      tag_50\n      jumpi\n        /* \"--CODEGEN--\":1054:1055   */\n      0x00\n        /* \"--CODEGEN--\":1051:1052   */\n      dup1\n        /* \"--CODEGEN--\":1044:1056   */\n      revert\n        /* \"--CODEGEN--\":1006:1008   */\n    tag_50:\n        /* \"--CODEGEN--\":1089:1090   */\n      0x00\n        /* \"--CODEGEN--\":1106:1159   */\n      tag_51\n        /* \"--CODEGEN--\":1151:1158   */\n      dup7\n        /* \"--CODEGEN--\":1142:1148   */\n      dup3\n        /* \"--CODEGEN--\":1131:1140   */\n      dup8\n        /* \"--CODEGEN--\":1127:1149   */\n      add\n        /* \"--CODEGEN--\":1106:1159   */\n      jump(tag_39)\n    tag_51:\n        /* \"--CODEGEN--\":1096:1159   */\n      swap4\n      pop\n        /* \"--CODEGEN--\":1068:1165   */\n      pop\n        /* \"--CODEGEN--\":1196:1198   */\n      0x20\n        /* \"--CODEGEN--\":1214:1267   */\n      tag_52\n        /* \"--CODEGEN--\":1259:1266   */\n      dup7\n        /* \"--CODEGEN--\":1250:1256   */\n      dup3\n        /* \"--CODEGEN--\":1239:1248   */\n      dup8\n        /* \"--CODEGEN--\":1235:1257   */\n      add\n        /* \"--CODEGEN--\":1214:1267   */\n      jump(tag_42)\n    tag_52:\n        /* \"--CODEGEN--\":1204:1267   */\n      swap3\n      pop\n        /* \"--CODEGEN--\":1175:1273   */\n      pop\n        /* \"--CODEGEN--\":1304:1306   */\n      0x40\n        /* \"--CODEGEN--\":1322:1375   */\n      tag_53\n        /* \"--CODEGEN--\":1367:1374   */\n      dup7\n        /* \"--CODEGEN--\":1358:1364   */\n      dup3\n        /* \"--CODEGEN--\":1347:1356   */\n      dup8\n        /* \"--CODEGEN--\":1343:1365   */\n      add\n        /* \"--CODEGEN--\":1322:1375   */\n      jump(tag_42)\n    tag_53:\n        /* \"--CODEGEN--\":1312:1375   */\n      swap2\n      pop\n        /* \"--CODEGEN--\":1283:1381   */\n      pop\n        /* \"--CODEGEN--\":1000:1391   */\n      swap3\n      pop\n      swap3\n      pop\n      swap3\n      jump\n        /* \"--CODEGEN--\":1398:1639   */\n    tag_26:\n      0x00\n        /* \"--CODEGEN--\":1502:1504   */\n      0x20\n        /* \"--CODEGEN--\":1490:1499   */\n      dup3\n        /* \"--CODEGEN--\":1481:1488   */\n      dup5\n        /* \"--CODEGEN--\":1477:1500   */\n      sub\n        /* \"--CODEGEN--\":1473:1505   */\n      slt\n        /* \"--CODEGEN--\":1470:1472   */\n      iszero\n      tag_54\n      jumpi\n        /* \"--CODEGEN--\":1518:1519   */\n      0x00\n        /* \"--CODEGEN--\":1515:1516   */\n      dup1\n        /* \"--CODEGEN--\":1508:1520   */\n      revert\n        /* \"--CODEGEN--\":1470:1472   */\n    tag_54:\n        /* \"--CODEGEN--\":1553:1554   */\n      0x00\n        /* \"--CODEGEN--\":1570:1623   */\n      tag_55\n        /* \"--CODEGEN--\":1615:1622   */\n      dup5\n        /* \"--CODEGEN--\":1606:1612   */\n      dup3\n        /* \"--CODEGEN--\":1595:1604   */\n      dup6\n        /* \"--CODEGEN--\":1591:1613   */\n      add\n        /* \"--CODEGEN--\":1570:1623   */\n      jump(tag_42)\n    tag_55:\n        /* \"--CODEGEN--\":1560:1623   */\n      swap2\n      pop\n        /* \"--CODEGEN--\":1532:1629   */\n      pop\n        /* \"--CODEGEN--\":1464:1639   */\n      swap3\n      swap2\n      pop\n      pop\n      jump\n        /* \"--CODEGEN--\":1646:1759   */\n    tag_56:\n        /* \"--CODEGEN--\":1729:1753   */\n      tag_57\n        /* \"--CODEGEN--\":1747:1752   */\n      dup2\n        /* \"--CODEGEN--\":1729:1753   */\n      jump(tag_58)\n    tag_57:\n        /* \"--CODEGEN--\":1724:1727   */\n      dup3\n        /* \"--CODEGEN--\":1717:1754   */\n      mstore\n        /* \"--CODEGEN--\":1711:1759   */\n      pop\n      pop\n      jump\n        /* \"--CODEGEN--\":1766:1870   */\n    tag_59:\n        /* \"--CODEGEN--\":1843:1864   */\n      tag_60\n        /* \"--CODEGEN--\":1858:1863   */\n      dup2\n        /* \"--CODEGEN--\":1843:1864   */\n      jump(tag_61)\n    tag_60:\n        /* \"--CODEGEN--\":1838:1841   */\n      dup3\n        /* \"--CODEGEN--\":1831:1865   */\n      mstore\n        /* \"--CODEGEN--\":1825:1870   */\n      pop\n      pop\n      jump\n        /* \"--CODEGEN--\":1878:2210   */\n    tag_62:\n      0x00\n        /* \"--CODEGEN--\":2038:2105   */\n      tag_63\n        /* \"--CODEGEN--\":2102:2104   */\n      0x20\n        /* \"--CODEGEN--\":2097:2100   */\n      dup4\n        /* \"--CODEGEN--\":2038:2105   */\n      jump(tag_64)\n    tag_63:\n        /* \"--CODEGEN--\":2031:2105   */\n      swap2\n      pop\n        /* \"--CODEGEN--\":2138:2172   */\n      0x417574683a206f6e6c79206f776e657220697320617574686f72697a65642e20\n        /* \"--CODEGEN--\":2134:2135   */\n      0x00\n        /* \"--CODEGEN--\":2129:2132   */\n      dup4\n        /* \"--CODEGEN--\":2125:2136   */\n      add\n        /* \"--CODEGEN--\":2118:2173   */\n      mstore\n        /* \"--CODEGEN--\":2201:2203   */\n      0x20\n        /* \"--CODEGEN--\":2196:2199   */\n      dup3\n        /* \"--CODEGEN--\":2192:2204   */\n      add\n        /* \"--CODEGEN--\":2185:2204   */\n      swap1\n      pop\n        /* \"--CODEGEN--\":2024:2210   */\n      swap2\n      swap1\n      pop\n      jump\n        /* \"--CODEGEN--\":2218:2331   */\n    tag_65:\n        /* \"--CODEGEN--\":2301:2325   */\n      tag_66\n        /* \"--CODEGEN--\":2319:2324   */\n      dup2\n        /* \"--CODEGEN--\":2301:2325   */\n      jump(tag_67)\n    tag_66:\n        /* \"--CODEGEN--\":2296:2299   */\n      dup3\n        /* \"--CODEGEN--\":2289:2326   */\n      mstore\n        /* \"--CODEGEN--\":2283:2331   */\n      pop\n      pop\n      jump\n        /* \"--CODEGEN--\":2338:2773   */\n    tag_36:\n      0x00\n        /* \"--CODEGEN--\":2512:2514   */\n      0x60\n        /* \"--CODEGEN--\":2501:2510   */\n      dup3\n        /* \"--CODEGEN--\":2497:2515   */\n      add\n        /* \"--CODEGEN--\":2489:2515   */\n      swap1\n      pop\n        /* \"--CODEGEN--\":2526:2597   */\n      tag_68\n        /* \"--CODEGEN--\":2594:2595   */\n      0x00\n        /* \"--CODEGEN--\":2583:2592   */\n      dup4\n        /* \"--CODEGEN--\":2579:2596   */\n      add\n        /* \"--CODEGEN--\":2570:2576   */\n      dup7\n        /* \"--CODEGEN--\":2526:2597   */\n      jump(tag_56)\n    tag_68:\n        /* \"--CODEGEN--\":2608:2680   */\n      tag_69\n        /* \"--CODEGEN--\":2676:2678   */\n      0x20\n        /* \"--CODEGEN--\":2665:2674   */\n      dup4\n        /* \"--CODEGEN--\":2661:2679   */\n      add\n        /* \"--CODEGEN--\":2652:2658   */\n      dup6\n        /* \"--CODEGEN--\":2608:2680   */\n      jump(tag_65)\n    tag_69:\n        /* \"--CODEGEN--\":2691:2763   */\n      tag_70\n        /* \"--CODEGEN--\":2759:2761   */\n      0x40\n        /* \"--CODEGEN--\":2748:2757   */\n      dup4\n        /* \"--CODEGEN--\":2744:2762   */\n      add\n        /* \"--CODEGEN--\":2735:2741   */\n      dup5\n        /* \"--CODEGEN--\":2691:2763   */\n      jump(tag_65)\n    tag_70:\n        /* \"--CODEGEN--\":2483:2773   */\n      swap5\n      swap4\n      pop\n      pop\n      pop\n      pop\n      jump\n        /* \"--CODEGEN--\":2780:2981   */\n    tag_23:\n      0x00\n        /* \"--CODEGEN--\":2892:2894   */\n      0x20\n        /* \"--CODEGEN--\":2881:2890   */\n      dup3\n        /* \"--CODEGEN--\":2877:2895   */\n      add\n        /* \"--CODEGEN--\":2869:2895   */\n      swap1\n      pop\n        /* \"--CODEGEN--\":2906:2971   */\n      tag_71\n        /* \"--CODEGEN--\":2968:2969   */\n      0x00\n        /* \"--CODEGEN--\":2957:2966   */\n      dup4\n        /* \"--CODEGEN--\":2953:2970   */\n      add\n        /* \"--CODEGEN--\":2944:2950   */\n      dup5\n        /* \"--CODEGEN--\":2906:2971   */\n      jump(tag_59)\n    tag_71:\n        /* \"--CODEGEN--\":2863:2981   */\n      swap3\n      swap2\n      pop\n      pop\n      jump\n        /* \"--CODEGEN--\":2988:3395   */\n    tag_33:\n      0x00\n        /* \"--CODEGEN--\":3179:3181   */\n      0x20\n        /* \"--CODEGEN--\":3168:3177   */\n      dup3\n        /* \"--CODEGEN--\":3164:3182   */\n      add\n        /* \"--CODEGEN--\":3156:3182   */\n      swap1\n      pop\n        /* \"--CODEGEN--\":3229:3238   */\n      dup2\n        /* \"--CODEGEN--\":3223:3227   */\n      dup2\n        /* \"--CODEGEN--\":3219:3239   */\n      sub\n        /* \"--CODEGEN--\":3215:3216   */\n      0x00\n        /* \"--CODEGEN--\":3204:3213   */\n      dup4\n        /* \"--CODEGEN--\":3200:3217   */\n      add\n        /* \"--CODEGEN--\":3193:3240   */\n      mstore\n        /* \"--CODEGEN--\":3254:3385   */\n      tag_72\n        /* \"--CODEGEN--\":3380:3384   */\n      dup2\n        /* \"--CODEGEN--\":3254:3385   */\n      jump(tag_62)\n    tag_72:\n        /* \"--CODEGEN--\":3246:3385   */\n      swap1\n      pop\n        /* \"--CODEGEN--\":3150:3395   */\n      swap2\n      swap1\n      pop\n      jump\n        /* \"--CODEGEN--\":3402:3615   */\n    tag_12:\n      0x00\n        /* \"--CODEGEN--\":3520:3522   */\n      0x20\n        /* \"--CODEGEN--\":3509:3518   */\n      dup3\n        /* \"--CODEGEN--\":3505:3523   */\n      add\n        /* \"--CODEGEN--\":3497:3523   */\n      swap1\n      pop\n        /* \"--CODEGEN--\":3534:3605   */\n      tag_73\n        /* \"--CODEGEN--\":3602:3603   */\n      0x00\n        /* \"--CODEGEN--\":3591:3600   */\n      dup4\n        /* \"--CODEGEN--\":3587:3604   */\n      add\n        /* \"--CODEGEN--\":3578:3584   */\n      dup5\n        /* \"--CODEGEN--\":3534:3605   */\n      jump(tag_65)\n    tag_73:\n        /* \"--CODEGEN--\":3491:3615   */\n      swap3\n      swap2\n      pop\n      pop\n      jump\n        /* \"--CODEGEN--\":3623:3786   */\n    tag_64:\n      0x00\n        /* \"--CODEGEN--\":3738:3744   */\n      dup3\n        /* \"--CODEGEN--\":3733:3736   */\n      dup3\n        /* \"--CODEGEN--\":3726:3745   */\n      mstore\n        /* \"--CODEGEN--\":3775:3779   */\n      0x20\n        /* \"--CODEGEN--\":3770:3773   */\n      dup3\n        /* \"--CODEGEN--\":3766:3780   */\n      add\n        /* \"--CODEGEN--\":3751:3780   */\n      swap1\n      pop\n        /* \"--CODEGEN--\":3719:3786   */\n      swap3\n      swap2\n      pop\n      pop\n      jump\n        /* \"--CODEGEN--\":3794:3885   */\n    tag_58:\n      0x00\n        /* \"--CODEGEN--\":3856:3880   */\n      tag_74\n        /* \"--CODEGEN--\":3874:3879   */\n      dup3\n        /* \"--CODEGEN--\":3856:3880   */\n      jump(tag_75)\n    tag_74:\n        /* \"--CODEGEN--\":3845:3880   */\n      swap1\n      pop\n        /* \"--CODEGEN--\":3839:3885   */\n      swap2\n      swap1\n      pop\n      jump\n        /* \"--CODEGEN--\":3892:3977   */\n    tag_61:\n      0x00\n        /* \"--CODEGEN--\":3965:3970   */\n      dup2\n        /* \"--CODEGEN--\":3958:3971   */\n      iszero\n        /* \"--CODEGEN--\":3951:3972   */\n      iszero\n        /* \"--CODEGEN--\":3940:3972   */\n      swap1\n      pop\n        /* \"--CODEGEN--\":3934:3977   */\n      swap2\n      swap1\n      pop\n      jump\n        /* \"--CODEGEN--\":3984:4105   */\n    tag_75:\n      0x00\n        /* \"--CODEGEN--\":4057:4099   */\n      0xffffffffffffffffffffffffffffffffffffffff\n        /* \"--CODEGEN--\":4050:4055   */\n      dup3\n        /* \"--CODEGEN--\":4046:4100   */\n      and\n        /* \"--CODEGEN--\":4035:4100   */\n      swap1\n      pop\n        /* \"--CODEGEN--\":4029:4105   */\n      swap2\n      swap1\n      pop\n      jump\n        /* \"--CODEGEN--\":4112:4184   */\n    tag_67:\n      0x00\n        /* \"--CODEGEN--\":4174:4179   */\n      dup2\n        /* \"--CODEGEN--\":4163:4179   */\n      swap1\n      pop\n        /* \"--CODEGEN--\":4157:4184   */\n      swap2\n      swap1\n      pop\n      jump\n        /* \"--CODEGEN--\":4191:4308   */\n    tag_41:\n        /* \"--CODEGEN--\":4260:4284   */\n      tag_76\n        /* \"--CODEGEN--\":4278:4283   */\n      dup2\n        /* \"--CODEGEN--\":4260:4284   */\n      jump(tag_58)\n    tag_76:\n        /* \"--CODEGEN--\":4253:4258   */\n      dup2\n        /* \"--CODEGEN--\":4250:4285   */\n      eq\n        /* \"--CODEGEN--\":4240:4242   */\n      tag_77\n      jumpi\n        /* \"--CODEGEN--\":4299:4300   */\n      0x00\n        /* \"--CODEGEN--\":4296:4297   */\n      dup1\n        /* \"--CODEGEN--\":4289:4301   */\n      revert\n        /* \"--CODEGEN--\":4240:4242   */\n    tag_77:\n        /* \"--CODEGEN--\":4234:4308   */\n      pop\n      jump\n        /* \"--CODEGEN--\":4315:4432   */\n    tag_44:\n        /* \"--CODEGEN--\":4384:4408   */\n      tag_78\n        /* \"--CODEGEN--\":4402:4407   */\n      dup2\n        /* \"--CODEGEN--\":4384:4408   */\n      jump(tag_67)\n    tag_78:\n        /* \"--CODEGEN--\":4377:4382   */\n      dup2\n        /* \"--CODEGEN--\":4374:4409   */\n      eq\n        /* \"--CODEGEN--\":4364:4366   */\n      tag_79\n      jumpi\n        /* \"--CODEGEN--\":4423:4424   */\n      0x00\n        /* \"--CODEGEN--\":4420:4421   */\n      dup1\n        /* \"--CODEGEN--\":4413:4425   */\n      revert\n        /* \"--CODEGEN--\":4364:4366   */\n    tag_79:\n        /* \"--CODEGEN--\":4358:4432   */\n      pop\n      jump\n\n    auxdata: 0xa365627a7a7231582025493dc4ff2e6f2766bc577185646cefe8ce5ef6d45bdf0506c05d27d22153e86c6578706572696d656e74616cf564736f6c63430005110040\n}\n",
				"bytecode": {
					"linkReferences": {},
					"object": "608060405234801561001057600080fd5b50336000806101000a81548173ffffffffffffffffffffffffffffffffffffffff021916908373ffffffffffffffffffffffffffffffffffffffff160217905550610658806100606000396000f3fe608060405234801561001057600080fd5b506004361061004c5760003560e01c80631e10f2fe1461005157806370a0823114610081578063a802e5b4146100b1578063ffb5e276146100e1575b600080fd5b61006b600480360361006691908101906103e0565b610111565b6040516100789190610573565b60405180910390f35b61009b600480360361009691908101906103b7565b6101ef565b6040516100a89190610573565b60405180910390f35b6100cb60048036036100c6919081019061041c565b610207565b6040516100d89190610538565b60405180910390f35b6100fb60048036036100f6919081019061046b565b610333565b6040516101089190610573565b60405180910390f35b6000600160003373ffffffffffffffffffffffffffffffffffffffff1673ffffffffffffffffffffffffffffffffffffffff168152602001908152602001600020600083815260200190815260200160002054600260008573ffffffffffffffffffffffffffffffffffffffff1673ffffffffffffffffffffffffffffffffffffffff16815260200190815260200160002081905550600260008473ffffffffffffffffffffffffffffffffffffffff1673ffffffffffffffffffffffffffffffffffffffff16815260200190815260200160002054905092915050565b60026020528060005260406000206000915090505481565b60003373ffffffffffffffffffffffffffffffffffffffff166000809054906101000a900473ffffffffffffffffffffffffffffffffffffffff1673ffffffffffffffffffffffffffffffffffffffff1614610298576040517f08c379a000000000000000000000000000000000000000000000000000000000815260040161028f90610553565b60405180910390fd5b81600160008673ffffffffffffffffffffffffffffffffffffffff1673ffffffffffffffffffffffffffffffffffffffff1681526020019081526020016000206000858152602001908152602001600020819055507f96c8d057dd3d2164b8d3a868d84050c504b2c3ae4c9c0b5dc33501660c1f09ad84848460405161032093929190610501565b60405180910390a1600190509392505050565b6000600160003373ffffffffffffffffffffffffffffffffffffffff1673ffffffffffffffffffffffffffffffffffffffff1681526020019081526020016000206000838152602001908152602001600020549050919050565b60008135905061039c816105e7565b92915050565b6000813590506103b1816105fe565b92915050565b6000602082840312156103c957600080fd5b60006103d78482850161038d565b91505092915050565b600080604083850312156103f357600080fd5b60006104018582860161038d565b9250506020610412858286016103a2565b9150509250929050565b60008060006060848603121561043157600080fd5b600061043f8682870161038d565b9350506020610450868287016103a2565b9250506040610461868287016103a2565b9150509250925092565b60006020828403121561047d57600080fd5b600061048b848285016103a2565b91505092915050565b61049d8161059f565b82525050565b6104ac816105b1565b82525050565b60006104bf60208361058e565b91507f417574683a206f6e6c79206f776e657220697320617574686f72697a65642e206000830152602082019050919050565b6104fb816105dd565b82525050565b60006060820190506105166000830186610494565b61052360208301856104f2565b61053060408301846104f2565b949350505050565b600060208201905061054d60008301846104a3565b92915050565b6000602082019050818103600083015261056c816104b2565b9050919050565b600060208201905061058860008301846104f2565b92915050565b600082825260208201905092915050565b60006105aa826105bd565b9050919050565b60008115159050919050565b600073ffffffffffffffffffffffffffffffffffffffff82169050919050565b6000819050919050565b6105f08161059f565b81146105fb57600080fd5b50565b610607816105dd565b811461061257600080fd5b5056fea365627a7a7231582025493dc4ff2e6f2766bc577185646cefe8ce5ef6d45bdf0506c05d27d22153e86c6578706572696d656e74616cf564736f6c63430005110040",
					"opcodes": "PUSH1 0x80 PUSH1 0x40 MSTORE CALLVALUE DUP1 ISZERO PUSH2 0x10 JUMPI PUSH1 0x0 DUP1 REVERT JUMPDEST POP CALLER PUSH1 0x0 DUP1 PUSH2 0x100 EXP DUP2 SLOAD DUP2 PUSH20 0xFFFFFFFFFFFFFFFFFFFFFFFFFFFFFFFFFFFFFFFF MUL NOT AND SWAP1 DUP4 PUSH20 0xFFFFFFFFFFFFFFFFFFFFFFFFFFFFFFFFFFFFFFFF AND MUL OR SWAP1 SSTORE POP PUSH2 0x658 DUP1 PUSH2 0x60 PUSH1 0x0 CODECOPY PUSH1 0x0 RETURN INVALID PUSH1 0x80 PUSH1 0x40 MSTORE CALLVALUE DUP1 ISZERO PUSH2 0x10 JUMPI PUSH1 0x0 DUP1 REVERT JUMPDEST POP PUSH1 0x4 CALLDATASIZE LT PUSH2 0x4C JUMPI PUSH1 0x0 CALLDATALOAD PUSH1 0xE0 SHR DUP1 PUSH4 0x1E10F2FE EQ PUSH2 0x51 JUMPI DUP1 PUSH4 0x70A08231 EQ PUSH2 0x81 JUMPI DUP1 PUSH4 0xA802E5B4 EQ PUSH2 0xB1 JUMPI DUP1 PUSH4 0xFFB5E276 EQ PUSH2 0xE1 JUMPI JUMPDEST PUSH1 0x0 DUP1 REVERT JUMPDEST PUSH2 0x6B PUSH1 0x4 DUP1 CALLDATASIZE SUB PUSH2 0x66 SWAP2 SWAP1 DUP2 ADD SWAP1 PUSH2 0x3E0 JUMP JUMPDEST PUSH2 0x111 JUMP JUMPDEST PUSH1 0x40 MLOAD PUSH2 0x78 SWAP2 SWAP1 PUSH2 0x573 JUMP JUMPDEST PUSH1 0x40 MLOAD DUP1 SWAP2 SUB SWAP1 RETURN JUMPDEST PUSH2 0x9B PUSH1 0x4 DUP1 CALLDATASIZE SUB PUSH2 0x96 SWAP2 SWAP1 DUP2 ADD SWAP1 PUSH2 0x3B7 JUMP JUMPDEST PUSH2 0x1EF JUMP JUMPDEST PUSH1 0x40 MLOAD PUSH2 0xA8 SWAP2 SWAP1 PUSH2 0x573 JUMP JUMPDEST PUSH1 0x40 MLOAD DUP1 SWAP2 SUB SWAP1 RETURN JUMPDEST PUSH2 0xCB PUSH1 0x4 DUP1 CALLDATASIZE SUB PUSH2 0xC6 SWAP2 SWAP1 DUP2 ADD SWAP1 PUSH2 0x41C JUMP JUMPDEST PUSH2 0x207 JUMP JUMPDEST PUSH1 0x40 MLOAD PUSH2 0xD8 SWAP2 SWAP1 PUSH2 0x538 JUMP JUMPDEST PUSH1 0x40 MLOAD DUP1 SWAP2 SUB SWAP1 RETURN JUMPDEST PUSH2 0xFB PUSH1 0x4 DUP1 CALLDATASIZE SUB PUSH2 0xF6 SWAP2 SWAP1 DUP2 ADD SWAP1 PUSH2 0x46B JUMP JUMPDEST PUSH2 0x333 JUMP JUMPDEST PUSH1 0x40 MLOAD PUSH2 0x108 SWAP2 SWAP1 PUSH2 0x573 JUMP JUMPDEST PUSH1 0x40 MLOAD DUP1 SWAP2 SUB SWAP1 RETURN JUMPDEST PUSH1 0x0 PUSH1 0x1 PUSH1 0x0 CALLER PUSH20 0xFFFFFFFFFFFFFFFFFFFFFFFFFFFFFFFFFFFFFFFF AND PUSH20 0xFFFFFFFFFFFFFFFFFFFFFFFFFFFFFFFFFFFFFFFF AND DUP2 MSTORE PUSH1 0x20 ADD SWAP1 DUP2 MSTORE PUSH1 0x20 ADD PUSH1 0x0 KECCAK256 PUSH1 0x0 DUP4 DUP2 MSTORE PUSH1 0x20 ADD SWAP1 DUP2 MSTORE PUSH1 0x20 ADD PUSH1 0x0 KECCAK256 SLOAD PUSH1 0x2 PUSH1 0x0 DUP6 PUSH20 0xFFFFFFFFFFFFFFFFFFFFFFFFFFFFFFFFFFFFFFFF AND PUSH20 0xFFFFFFFFFFFFFFFFFFFFFFFFFFFFFFFFFFFFFFFF AND DUP2 MSTORE PUSH1 0x20 ADD SWAP1 DUP2 MSTORE PUSH1 0x20 ADD PUSH1 0x0 KECCAK256 DUP2 SWAP1 SSTORE POP PUSH1 0x2 PUSH1 0x0 DUP5 PUSH20 0xFFFFFFFFFFFFFFFFFFFFFFFFFFFFFFFFFFFFFFFF AND PUSH20 0xFFFFFFFFFFFFFFFFFFFFFFFFFFFFFFFFFFFFFFFF AND DUP2 MSTORE PUSH1 0x20 ADD SWAP1 DUP2 MSTORE PUSH1 0x20 ADD PUSH1 0x0 KECCAK256 SLOAD SWAP1 POP SWAP3 SWAP2 POP POP JUMP JUMPDEST PUSH1 0x2 PUSH1 0x20 MSTORE DUP1 PUSH1 0x0 MSTORE PUSH1 0x40 PUSH1 0x0 KECCAK256 PUSH1 0x0 SWAP2 POP SWAP1 POP SLOAD DUP2 JUMP JUMPDEST PUSH1 0x0 CALLER PUSH20 0xFFFFFFFFFFFFFFFFFFFFFFFFFFFFFFFFFFFFFFFF AND PUSH1 0x0 DUP1 SWAP1 SLOAD SWAP1 PUSH2 0x100 EXP SWAP1 DIV PUSH20 0xFFFFFFFFFFFFFFFFFFFFFFFFFFFFFFFFFFFFFFFF AND PUSH20 0xFFFFFFFFFFFFFFFFFFFFFFFFFFFFFFFFFFFFFFFF AND EQ PUSH2 0x298 JUMPI PUSH1 0x40 MLOAD PUSH32 0x8C379A000000000000000000000000000000000000000000000000000000000 DUP2 MSTORE PUSH1 0x4 ADD PUSH2 0x28F SWAP1 PUSH2 0x553 JUMP JUMPDEST PUSH1 0x40 MLOAD DUP1 SWAP2 SUB SWAP1 REVERT JUMPDEST DUP2 PUSH1 0x1 PUSH1 0x0 DUP7 PUSH20 0xFFFFFFFFFFFFFFFFFFFFFFFFFFFFFFFFFFFFFFFF AND PUSH20 0xFFFFFFFFFFFFFFFFFFFFFFFFFFFFFFFFFFFFFFFF AND DUP2 MSTORE PUSH1 0x20 ADD SWAP1 DUP2 MSTORE PUSH1 0x20 ADD PUSH1 0x0 KECCAK256 PUSH1 0x0 DUP6 DUP2 MSTORE PUSH1 0x20 ADD SWAP1 DUP2 MSTORE PUSH1 0x20 ADD PUSH1 0x0 KECCAK256 DUP2 SWAP1 SSTORE POP PUSH32 0x96C8D057DD3D2164B8D3A868D84050C504B2C3AE4C9C0B5DC33501660C1F09AD DUP5 DUP5 DUP5 PUSH1 0x40 MLOAD PUSH2 0x320 SWAP4 SWAP3 SWAP2 SWAP1 PUSH2 0x501 JUMP JUMPDEST PUSH1 0x40 MLOAD DUP1 SWAP2 SUB SWAP1 LOG1 PUSH1 0x1 SWAP1 POP SWAP4 SWAP3 POP POP POP JUMP JUMPDEST PUSH1 0x0 PUSH1 0x1 PUSH1 0x0 CALLER PUSH20 0xFFFFFFFFFFFFFFFFFFFFFFFFFFFFFFFFFFFFFFFF AND PUSH20 0xFFFFFFFFFFFFFFFFFFFFFFFFFFFFFFFFFFFFFFFF AND DUP2 MSTORE PUSH1 0x20 ADD SWAP1 DUP2 MSTORE PUSH1 0x20 ADD PUSH1 0x0 KECCAK256 PUSH1 0x0 DUP4 DUP2 MSTORE PUSH1 0x20 ADD SWAP1 DUP2 MSTORE PUSH1 0x20 ADD PUSH1 0x0 KECCAK256 SLOAD SWAP1 POP SWAP2 SWAP1 POP JUMP JUMPDEST PUSH1 0x0 DUP2 CALLDATALOAD SWAP1 POP PUSH2 0x39C DUP2 PUSH2 0x5E7 JUMP JUMPDEST SWAP3 SWAP2 POP POP JUMP JUMPDEST PUSH1 0x0 DUP2 CALLDATALOAD SWAP1 POP PUSH2 0x3B1 DUP2 PUSH2 0x5FE JUMP JUMPDEST SWAP3 SWAP2 POP POP JUMP JUMPDEST PUSH1 0x0 PUSH1 0x20 DUP3 DUP5 SUB SLT ISZERO PUSH2 0x3C9 JUMPI PUSH1 0x0 DUP1 REVERT JUMPDEST PUSH1 0x0 PUSH2 0x3D7 DUP5 DUP3 DUP6 ADD PUSH2 0x38D JUMP JUMPDEST SWAP2 POP POP SWAP3 SWAP2 POP POP JUMP JUMPDEST PUSH1 0x0 DUP1 PUSH1 0x40 DUP4 DUP6 SUB SLT ISZERO PUSH2 0x3F3 JUMPI PUSH1 0x0 DUP1 REVERT JUMPDEST PUSH1 0x0 PUSH2 0x401 DUP6 DUP3 DUP7 ADD PUSH2 0x38D JUMP JUMPDEST SWAP3 POP POP PUSH1 0x20 PUSH2 0x412 DUP6 DUP3 DUP7 ADD PUSH2 0x3A2 JUMP JUMPDEST SWAP2 POP POP SWAP3 POP SWAP3 SWAP1 POP JUMP JUMPDEST PUSH1 0x0 DUP1 PUSH1 0x0 PUSH1 0x60 DUP5 DUP7 SUB SLT ISZERO PUSH2 0x431 JUMPI PUSH1 0x0 DUP1 REVERT JUMPDEST PUSH1 0x0 PUSH2 0x43F DUP7 DUP3 DUP8 ADD PUSH2 0x38D JUMP JUMPDEST SWAP4 POP POP PUSH1 0x20 PUSH2 0x450 DUP7 DUP3 DUP8 ADD PUSH2 0x3A2 JUMP JUMPDEST SWAP3 POP POP PUSH1 0x40 PUSH2 0x461 DUP7 DUP3 DUP8 ADD PUSH2 0x3A2 JUMP JUMPDEST SWAP2 POP POP SWAP3 POP SWAP3 POP SWAP3 JUMP JUMPDEST PUSH1 0x0 PUSH1 0x20 DUP3 DUP5 SUB SLT ISZERO PUSH2 0x47D JUMPI PUSH1 0x0 DUP1 REVERT JUMPDEST PUSH1 0x0 PUSH2 0x48B DUP5 DUP3 DUP6 ADD PUSH2 0x3A2 JUMP JUMPDEST SWAP2 POP POP SWAP3 SWAP2 POP POP JUMP JUMPDEST PUSH2 0x49D DUP2 PUSH2 0x59F JUMP JUMPDEST DUP3 MSTORE POP POP JUMP JUMPDEST PUSH2 0x4AC DUP2 PUSH2 0x5B1 JUMP JUMPDEST DUP3 MSTORE POP POP JUMP JUMPDEST PUSH1 0x0 PUSH2 0x4BF PUSH1 0x20 DUP4 PUSH2 0x58E JUMP JUMPDEST SWAP2 POP PUSH32 0x417574683A206F6E6C79206F776E657220697320617574686F72697A65642E20 PUSH1 0x0 DUP4 ADD MSTORE PUSH1 0x20 DUP3 ADD SWAP1 POP SWAP2 SWAP1 POP JUMP JUMPDEST PUSH2 0x4FB DUP2 PUSH2 0x5DD JUMP JUMPDEST DUP3 MSTORE POP POP JUMP JUMPDEST PUSH1 0x0 PUSH1 0x60 DUP3 ADD SWAP1 POP PUSH2 0x516 PUSH1 0x0 DUP4 ADD DUP7 PUSH2 0x494 JUMP JUMPDEST PUSH2 0x523 PUSH1 0x20 DUP4 ADD DUP6 PUSH2 0x4F2 JUMP JUMPDEST PUSH2 0x530 PUSH1 0x40 DUP4 ADD DUP5 PUSH2 0x4F2 JUMP JUMPDEST SWAP5 SWAP4 POP POP POP POP JUMP JUMPDEST PUSH1 0x0 PUSH1 0x20 DUP3 ADD SWAP1 POP PUSH2 0x54D PUSH1 0x0 DUP4 ADD DUP5 PUSH2 0x4A3 JUMP JUMPDEST SWAP3 SWAP2 POP POP JUMP JUMPDEST PUSH1 0x0 PUSH1 0x20 DUP3 ADD SWAP1 POP DUP2 DUP2 SUB PUSH1 0x0 DUP4 ADD MSTORE PUSH2 0x56C DUP2 PUSH2 0x4B2 JUMP JUMPDEST SWAP1 POP SWAP2 SWAP1 POP JUMP JUMPDEST PUSH1 0x0 PUSH1 0x20 DUP3 ADD SWAP1 POP PUSH2 0x588 PUSH1 0x0 DUP4 ADD DUP5 PUSH2 0x4F2 JUMP JUMPDEST SWAP3 SWAP2 POP POP JUMP JUMPDEST PUSH1 0x0 DUP3 DUP3 MSTORE PUSH1 0x20 DUP3 ADD SWAP1 POP SWAP3 SWAP2 POP POP JUMP JUMPDEST PUSH1 0x0 PUSH2 0x5AA DUP3 PUSH2 0x5BD JUMP JUMPDEST SWAP1 POP SWAP2 SWAP1 POP JUMP JUMPDEST PUSH1 0x0 DUP2 ISZERO ISZERO SWAP1 POP SWAP2 SWAP1 POP JUMP JUMPDEST PUSH1 0x0 PUSH20 0xFFFFFFFFFFFFFFFFFFFFFFFFFFFFFFFFFFFFFFFF DUP3 AND SWAP1 POP SWAP2 SWAP1 POP JUMP JUMPDEST PUSH1 0x0 DUP2 SWAP1 POP SWAP2 SWAP1 POP JUMP JUMPDEST PUSH2 0x5F0 DUP2 PUSH2 0x59F JUMP JUMPDEST DUP2 EQ PUSH2 0x5FB JUMPI PUSH1 0x0 DUP1 REVERT JUMPDEST POP JUMP JUMPDEST PUSH2 0x607 DUP2 PUSH2 0x5DD JUMP JUMPDEST DUP2 EQ PUSH2 0x612 JUMPI PUSH1 0x0 DUP1 REVERT JUMPDEST POP JUMP INVALID LOG3 PUSH6 0x627A7A723158 KECCAK256 0x25 0x49 RETURNDATASIZE 0xC4 SELFDESTRUCT 0x2E PUSH16 0x2766BC577185646CEFE8CE5EF6D45BDF SDIV MOD 0xC0 0x5D 0x27 0xD2 0x21 MSTORE8 0xE8 PUSH13 0x6578706572696D656E74616CF5 PUSH5 0x736F6C6343 STOP SDIV GT STOP BLOCKHASH "
				},
				"gasEstimates": {
					"creation": {
						"codeDepositCost": "324800",
						"executionCost": "21228",
						"totalCost": "346028"
					},
					"external": {
						"balanceOf(address)": "1514",
						"getPermission(uint256)": "infinite",
						"setBlance(address,uint256)": "infinite",
						"setPermission(address,uint256,uint256)": "infinite"
					}
				},
				"methodIdentifiers": {
					"balanceOf(address)": "70a08231",
					"getPermission(uint256)": "ffb5e276",
					"setBlance(address,uint256)": "1e10f2fe",
					"setPermission(address,uint256,uint256)": "a802e5b4"
				}
			},
			"storageLayout": {
				"storage": [
					{
						"astId": 4,
						"contract": "contracts/RBAC Oracle/storageteuxt.sol:RolePermissionBySol",
						"label": "_owner",
						"offset": 0,
						"slot": "0",
						"type": "t_address"
					},
					{
						"astId": 10,
						"contract": "contracts/RBAC Oracle/storageteuxt.sol:RolePermissionBySol",
						"label": "_permission",
						"offset": 0,
						"slot": "1",
						"type": "t_mapping(t_address,t_mapping(t_uint256,t_uint256))"
					},
					{
						"astId": 88,
						"contract": "contracts/RBAC Oracle/storageteuxt.sol:RolePermissionBySol",
						"label": "balanceOf",
						"offset": 0,
						"slot": "2",
						"type": "t_mapping(t_address,t_uint256)"
					}
				],
				"types": {
					"t_address": {
						"encoding": "inplace",
						"label": "address",
						"numberOfBytes": "20"
					},
					"t_mapping(t_address,t_mapping(t_uint256,t_uint256))": {
						"encoding": "mapping",
						"key": "t_address",
						"label": "mapping(address => mapping(uint256 => uint256))",
						"numberOfBytes": "32",
						"value": "t_mapping(t_uint256,t_uint256)"
					},
					"t_mapping(t_address,t_uint256)": {
						"encoding": "mapping",
						"key": "t_address",
						"label": "mapping(address => uint256)",
						"numberOfBytes": "32",
						"value": "t_uint256"
					},
					"t_mapping(t_uint256,t_uint256)": {
						"encoding": "mapping",
						"key": "t_uint256",
						"label": "mapping(uint256 => uint256)",
						"numberOfBytes": "32",
						"value": "t_uint256"
					},
					"t_uint256": {
						"encoding": "inplace",
						"label": "uint256",
						"numberOfBytes": "32"
					}
				}
			},
			"userdoc": {
				"methods": {}
			}
		}
	}
}