{
	"contracts/RBAC Oracle/storageteuxt.sol": {
		"Evidence": {
			"abi": [
				{
					"anonymous": false,
					"inputs": [
						{
							"indexed": false,
							"internalType": "string",
							"name": "fileHash",
							"type": "string"
						},
						{
							"indexed": false,
							"internalType": "string",
							"name": "author",
							"type": "string"
						},
						{
							"indexed": false,
							"internalType": "string",
							"name": "fileName",
							"type": "string"
						},
						{
							"indexed": false,
							"internalType": "string",
							"name": "time",
							"type": "string"
						}
					],
					"name": "updateInfo",
					"type": "event"
				},
				{
					"constant": false,
					"inputs": [
						{
							"internalType": "address",
							"name": "_rolePermissionBySolAddr",
							"type": "address"
						},
						{
							"internalType": "uint256",
							"name": "RoleID",
							"type": "uint256"
						}
					],
					"name": "getEvidence",
					"outputs": [
						{
							"internalType": "uint256",
							"name": "",
							"type": "uint256"
						}
					],
					"payable": false,
					"stateMutability": "nonpayable",
					"type": "function"
				},
				{
					"constant": false,
					"inputs": [
						{
							"internalType": "string",
							"name": "fileHash",
							"type": "string"
						},
						{
							"internalType": "string",
							"name": "author",
							"type": "string"
						},
						{
							"internalType": "string",
							"name": "fileName",
							"type": "string"
						},
						{
							"internalType": "string",
							"name": "time",
							"type": "string"
						}
					],
					"name": "saveEvidence",
					"outputs": [
						{
							"internalType": "uint256",
							"name": "code",
							"type": "uint256"
						}
					],
					"payable": false,
					"stateMutability": "nonpayable",
					"type": "function"
				},
				{
					"constant": true,
					"inputs": [
						{
							"internalType": "address",
							"name": "",
							"type": "address"
						}
					],
					"name": "tmp",
					"outputs": [
						{
							"internalType": "uint256",
							"name": "",
							"type": "uint256"
						}
					],
					"payable": false,
					"stateMutability": "view",
					"type": "function"
				}
			],
			"devdoc": {
				"methods": {}
			},
			"evm": {
				"assembly": "    /* \"contracts/RBAC Oracle/storageteuxt.sol\":1431:3423  contract Evidence{... */\n  mstore(0x40, 0x80)\n    /* \"contracts/RBAC Oracle/storageteuxt.sol\":1474:1475  0 */\n  0x00\n    /* \"contracts/RBAC Oracle/storageteuxt.sol\":1454:1475  uint CODE_SUCCESS = 0 */\n  dup1\n  sstore\n    /* \"contracts/RBAC Oracle/storageteuxt.sol\":1503:1507  3002 */\n  0x0bba\n    /* \"contracts/RBAC Oracle/storageteuxt.sol\":1481:1507  uint FILE_NOT_EXIST = 3002 */\n  0x01\n  sstore\n    /* \"contracts/RBAC Oracle/storageteuxt.sol\":1540:1544  3003 */\n  0x0bbb\n    /* \"contracts/RBAC Oracle/storageteuxt.sol\":1513:1544  uint FILE_ALREADY_EXIST  = 3003 */\n  0x02\n  sstore\n    /* \"contracts/RBAC Oracle/storageteuxt.sol\":1572:1576  3004 */\n  0x0bbc\n    /* \"contracts/RBAC Oracle/storageteuxt.sol\":1550:1576  uint USER_NOT_EXIST = 3004 */\n  0x03\n  sstore\n    /* \"contracts/RBAC Oracle/storageteuxt.sol\":1431:3423  contract Evidence{... */\n  callvalue\n    /* \"--CODEGEN--\":8:17   */\n  dup1\n    /* \"--CODEGEN--\":5:7   */\n  iszero\n  tag_1\n  jumpi\n    /* \"--CODEGEN--\":30:31   */\n  0x00\n    /* \"--CODEGEN--\":27:28   */\n  dup1\n    /* \"--CODEGEN--\":20:32   */\n  revert\n    /* \"--CODEGEN--\":5:7   */\ntag_1:\n    /* \"contracts/RBAC Oracle/storageteuxt.sol\":1431:3423  contract Evidence{... */\n  pop\n  dataSize(sub_0)\n  dup1\n  dataOffset(sub_0)\n  0x00\n  codecopy\n  0x00\n  return\nstop\n\nsub_0: assembly {\n        /* \"contracts/RBAC Oracle/storageteuxt.sol\":1431:3423  contract Evidence{... */\n      mstore(0x40, 0x80)\n      callvalue\n        /* \"--CODEGEN--\":8:17   */\n      dup1\n        /* \"--CODEGEN--\":5:7   */\n      iszero\n      tag_1\n      jumpi\n        /* \"--CODEGEN--\":30:31   */\n      0x00\n        /* \"--CODEGEN--\":27:28   */\n      dup1\n        /* \"--CODEGEN--\":20:32   */\n      revert\n        /* \"--CODEGEN--\":5:7   */\n    tag_1:\n        /* \"contracts/RBAC Oracle/storageteuxt.sol\":1431:3423  contract Evidence{... */\n      pop\n      jumpi(tag_2, lt(calldatasize, 0x04))\n      shr(0xe0, calldataload(0x00))\n      dup1\n      0x23e46965\n      eq\n      tag_3\n      jumpi\n      dup1\n      0x67f245cf\n      eq\n      tag_4\n      jumpi\n      dup1\n      0xb254ee4a\n      eq\n      tag_5\n      jumpi\n    tag_2:\n      0x00\n      dup1\n      revert\n        /* \"contracts/RBAC Oracle/storageteuxt.sol\":2549:2585  mapping (address => uint) public tmp */\n    tag_3:\n      tag_6\n      0x04\n      dup1\n      calldatasize\n      sub\n      tag_7\n      swap2\n      swap1\n      dup2\n      add\n      swap1\n      jump(tag_8)\n    tag_7:\n      tag_9\n      jump\t// in\n    tag_6:\n      mload(0x40)\n      tag_10\n      swap2\n      swap1\n      jump(tag_11)\n    tag_10:\n      mload(0x40)\n      dup1\n      swap2\n      sub\n      swap1\n      return\n        /* \"contracts/RBAC Oracle/storageteuxt.sol\":1975:2543  function saveEvidence(string memory fileHash,string memory author, string memory fileName,string memory time) public returns(uint code){... */\n    tag_4:\n      tag_12\n      0x04\n      dup1\n      calldatasize\n      sub\n      tag_13\n      swap2\n      swap1\n      dup2\n      add\n      swap1\n      jump(tag_14)\n    tag_13:\n      tag_15\n      jump\t// in\n    tag_12:\n      mload(0x40)\n      tag_16\n      swap2\n      swap1\n      jump(tag_11)\n    tag_16:\n      mload(0x40)\n      dup1\n      swap2\n      sub\n      swap1\n      return\n        /* \"contracts/RBAC Oracle/storageteuxt.sol\":2935:3420  function getEvidence(address _rolePermissionBySolAddr, uint RoleID)  public returns(uint) {... */\n    tag_5:\n      tag_17\n      0x04\n      dup1\n      calldatasize\n      sub\n      tag_18\n      swap2\n      swap1\n      dup2\n      add\n      swap1\n      jump(tag_19)\n    tag_18:\n      tag_20\n      jump\t// in\n    tag_17:\n      mload(0x40)\n      tag_21\n      swap2\n      swap1\n      jump(tag_11)\n    tag_21:\n      mload(0x40)\n      dup1\n      swap2\n      sub\n      swap1\n      return\n        /* \"contracts/RBAC Oracle/storageteuxt.sol\":2549:2585  mapping (address => uint) public tmp */\n    tag_9:\n      mstore(0x20, 0x06)\n      dup1\n      0x00\n      mstore\n      keccak256(0x00, 0x40)\n      0x00\n      swap2\n      pop\n      swap1\n      pop\n      sload\n      dup2\n      jump\t// out\n        /* \"contracts/RBAC Oracle/storageteuxt.sol\":1975:2543  function saveEvidence(string memory fileHash,string memory author, string memory fileName,string memory time) public returns(uint code){... */\n    tag_15:\n        /* \"contracts/RBAC Oracle/storageteuxt.sol\":2100:2109  uint code */\n      0x00\n        /* \"contracts/RBAC Oracle/storageteuxt.sol\":2155:2188  FileEvidence storage fileEvidence */\n      dup1\n        /* \"contracts/RBAC Oracle/storageteuxt.sol\":2191:2198  filemap */\n      0x04\n        /* \"contracts/RBAC Oracle/storageteuxt.sol\":2199:2207  fileName */\n      dup5\n        /* \"contracts/RBAC Oracle/storageteuxt.sol\":2191:2208  filemap[fileName] */\n      mload(0x40)\n      tag_23\n      swap2\n      swap1\n      jump(tag_24)\n    tag_23:\n      swap1\n      dup2\n      mstore\n      0x20\n      add\n      mload(0x40)\n      dup1\n      swap2\n      sub\n      swap1\n      keccak256\n        /* \"contracts/RBAC Oracle/storageteuxt.sol\":2155:2208  FileEvidence storage fileEvidence = filemap[fileName] */\n      swap1\n      pop\n        /* \"contracts/RBAC Oracle/storageteuxt.sol\":2242:2250  fileHash */\n      dup6\n        /* \"contracts/RBAC Oracle/storageteuxt.sol\":2218:2230  fileEvidence */\n      dup2\n        /* \"contracts/RBAC Oracle/storageteuxt.sol\":2218:2239  fileEvidence.fileHash */\n      0x00\n      add\n        /* \"contracts/RBAC Oracle/storageteuxt.sol\":2218:2250  fileEvidence.fileHash = fileHash */\n      swap1\n      dup1\n      mload\n      swap1\n      0x20\n      add\n      swap1\n      tag_25\n      swap3\n      swap2\n      swap1\n      tag_26\n      jump\t// in\n    tag_25:\n      pop\n        /* \"contracts/RBAC Oracle/storageteuxt.sol\":2282:2288  author */\n      dup5\n        /* \"contracts/RBAC Oracle/storageteuxt.sol\":2260:2272  fileEvidence */\n      dup2\n        /* \"contracts/RBAC Oracle/storageteuxt.sol\":2260:2279  fileEvidence.author */\n      0x01\n      add\n        /* \"contracts/RBAC Oracle/storageteuxt.sol\":2260:2288  fileEvidence.author = author */\n      swap1\n      dup1\n      mload\n      swap1\n      0x20\n      add\n      swap1\n      tag_27\n      swap3\n      swap2\n      swap1\n      tag_26\n      jump\t// in\n    tag_27:\n      pop\n        /* \"contracts/RBAC Oracle/storageteuxt.sol\":2318:2322  time */\n      dup3\n        /* \"contracts/RBAC Oracle/storageteuxt.sol\":2298:2310  fileEvidence */\n      dup2\n        /* \"contracts/RBAC Oracle/storageteuxt.sol\":2298:2315  fileEvidence.time */\n      0x02\n      add\n        /* \"contracts/RBAC Oracle/storageteuxt.sol\":2298:2322  fileEvidence.time = time */\n      swap1\n      dup1\n      mload\n      swap1\n      0x20\n      add\n      swap1\n      tag_28\n      swap3\n      swap2\n      swap1\n      tag_26\n      jump\t// in\n    tag_28:\n      pop\n        /* \"contracts/RBAC Oracle/storageteuxt.sol\":2356:2364  fileName */\n      dup4\n        /* \"contracts/RBAC Oracle/storageteuxt.sol\":2332:2344  fileEvidence */\n      dup2\n        /* \"contracts/RBAC Oracle/storageteuxt.sol\":2332:2353  fileEvidence.fileName */\n      0x03\n      add\n        /* \"contracts/RBAC Oracle/storageteuxt.sol\":2332:2364  fileEvidence.fileName = fileName */\n      swap1\n      dup1\n      mload\n      swap1\n      0x20\n      add\n      swap1\n      tag_29\n      swap3\n      swap2\n      swap1\n      tag_26\n      jump\t// in\n    tag_29:\n      pop\n        /* \"contracts/RBAC Oracle/storageteuxt.sol\":2524:2536  CODE_SUCCESS */\n      sload(0x00)\n        /* \"contracts/RBAC Oracle/storageteuxt.sol\":2517:2536  return CODE_SUCCESS */\n      swap2\n      pop\n      pop\n        /* \"contracts/RBAC Oracle/storageteuxt.sol\":1975:2543  function saveEvidence(string memory fileHash,string memory author, string memory fileName,string memory time) public returns(uint code){... */\n      swap5\n      swap4\n      pop\n      pop\n      pop\n      pop\n      jump\t// out\n        /* \"contracts/RBAC Oracle/storageteuxt.sol\":2935:3420  function getEvidence(address _rolePermissionBySolAddr, uint RoleID)  public returns(uint) {... */\n    tag_20:\n        /* \"contracts/RBAC Oracle/storageteuxt.sol\":3019:3023  uint */\n      0x00\n        /* \"contracts/RBAC Oracle/storageteuxt.sol\":3187:3211  _rolePermissionBySolAddr */\n      dup3\n        /* \"contracts/RBAC Oracle/storageteuxt.sol\":3145:3164  rolePermissionBySol */\n      0x07\n      0x00\n        /* \"contracts/RBAC Oracle/storageteuxt.sol\":3145:3212  rolePermissionBySol = RolePermissionBySol(_rolePermissionBySolAddr) */\n      0x0100\n      exp\n      dup2\n      sload\n      dup2\n      0xffffffffffffffffffffffffffffffffffffffff\n      mul\n      not\n      and\n      swap1\n      dup4\n      0xffffffffffffffffffffffffffffffffffffffff\n      and\n      mul\n      or\n      swap1\n      sstore\n      pop\n        /* \"contracts/RBAC Oracle/storageteuxt.sol\":3254:3273  rolePermissionBySol */\n      0x07\n      0x00\n      swap1\n      sload\n      swap1\n      0x0100\n      exp\n      swap1\n      div\n      0xffffffffffffffffffffffffffffffffffffffff\n      and\n        /* \"contracts/RBAC Oracle/storageteuxt.sol\":3254:3283  rolePermissionBySol.setBlance */\n      0xffffffffffffffffffffffffffffffffffffffff\n      and\n      0x1e10f2fe\n        /* \"contracts/RBAC Oracle/storageteuxt.sol\":3284:3294  msg.sender */\n      caller\n        /* \"contracts/RBAC Oracle/storageteuxt.sol\":3296:3302  RoleID */\n      dup5\n        /* \"contracts/RBAC Oracle/storageteuxt.sol\":3254:3303  rolePermissionBySol.setBlance(msg.sender, RoleID) */\n      mload(0x40)\n      dup4\n      0xffffffff\n      and\n      0xe0\n      shl\n      dup2\n      mstore\n      0x04\n      add\n      tag_31\n      swap3\n      swap2\n      swap1\n      jump(tag_32)\n    tag_31:\n      0x20\n      mload(0x40)\n      dup1\n      dup4\n      sub\n      dup2\n      0x00\n      dup8\n      dup1\n      extcodesize\n      iszero\n        /* \"--CODEGEN--\":8:17   */\n      dup1\n        /* \"--CODEGEN--\":5:7   */\n      iszero\n      tag_33\n      jumpi\n        /* \"--CODEGEN--\":30:31   */\n      0x00\n        /* \"--CODEGEN--\":27:28   */\n      dup1\n        /* \"--CODEGEN--\":20:32   */\n      revert\n        /* \"--CODEGEN--\":5:7   */\n    tag_33:\n        /* \"contracts/RBAC Oracle/storageteuxt.sol\":3254:3303  rolePermissionBySol.setBlance(msg.sender, RoleID) */\n      pop\n      gas\n      call\n      iszero\n        /* \"--CODEGEN--\":8:17   */\n      dup1\n        /* \"--CODEGEN--\":5:7   */\n      iszero\n      tag_34\n      jumpi\n        /* \"--CODEGEN--\":45:61   */\n      returndatasize\n        /* \"--CODEGEN--\":42:43   */\n      0x00\n        /* \"--CODEGEN--\":39:40   */\n      dup1\n        /* \"--CODEGEN--\":24:62   */\n      returndatacopy\n        /* \"--CODEGEN--\":77:93   */\n      returndatasize\n        /* \"--CODEGEN--\":74:75   */\n      0x00\n        /* \"--CODEGEN--\":67:94   */\n      revert\n        /* \"--CODEGEN--\":5:7   */\n    tag_34:\n        /* \"contracts/RBAC Oracle/storageteuxt.sol\":3254:3303  rolePermissionBySol.setBlance(msg.sender, RoleID) */\n      pop\n      pop\n      pop\n      pop\n      mload(0x40)\n      returndatasize\n        /* \"--CODEGEN--\":101:105   */\n      0x1f\n        /* \"--CODEGEN--\":97:106   */\n      not\n        /* \"--CODEGEN--\":90:94   */\n      0x1f\n        /* \"--CODEGEN--\":84:88   */\n      dup3\n        /* \"--CODEGEN--\":80:95   */\n      add\n        /* \"--CODEGEN--\":76:107   */\n      and\n        /* \"--CODEGEN--\":69:74   */\n      dup3\n        /* \"--CODEGEN--\":65:108   */\n      add\n        /* \"--CODEGEN--\":126:132   */\n      dup1\n        /* \"--CODEGEN--\":120:124   */\n      0x40\n        /* \"--CODEGEN--\":113:133   */\n      mstore\n        /* \"--CODEGEN--\":0:138   */\n      pop\n        /* \"contracts/RBAC Oracle/storageteuxt.sol\":3254:3303  rolePermissionBySol.setBlance(msg.sender, RoleID) */\n      tag_35\n      swap2\n      swap1\n      dup2\n      add\n      swap1\n      jump(tag_36)\n    tag_35:\n        /* \"contracts/RBAC Oracle/storageteuxt.sol\":3222:3225  tmp */\n      0x06\n        /* \"contracts/RBAC Oracle/storageteuxt.sol\":3222:3251  tmp[_rolePermissionBySolAddr] */\n      0x00\n        /* \"contracts/RBAC Oracle/storageteuxt.sol\":3226:3250  _rolePermissionBySolAddr */\n      dup6\n        /* \"contracts/RBAC Oracle/storageteuxt.sol\":3222:3251  tmp[_rolePermissionBySolAddr] */\n      0xffffffffffffffffffffffffffffffffffffffff\n      and\n      0xffffffffffffffffffffffffffffffffffffffff\n      and\n      dup2\n      mstore\n      0x20\n      add\n      swap1\n      dup2\n      mstore\n      0x20\n      add\n      0x00\n      keccak256\n        /* \"contracts/RBAC Oracle/storageteuxt.sol\":3222:3303  tmp[_rolePermissionBySolAddr] = rolePermissionBySol.setBlance(msg.sender, RoleID) */\n      dup2\n      swap1\n      sstore\n      pop\n        /* \"contracts/RBAC Oracle/storageteuxt.sol\":3384:3387  tmp */\n      0x06\n        /* \"contracts/RBAC Oracle/storageteuxt.sol\":3384:3413  tmp[_rolePermissionBySolAddr] */\n      0x00\n        /* \"contracts/RBAC Oracle/storageteuxt.sol\":3388:3412  _rolePermissionBySolAddr */\n      dup5\n        /* \"contracts/RBAC Oracle/storageteuxt.sol\":3384:3413  tmp[_rolePermissionBySolAddr] */\n      0xffffffffffffffffffffffffffffffffffffffff\n      and\n      0xffffffffffffffffffffffffffffffffffffffff\n      and\n      dup2\n      mstore\n      0x20\n      add\n      swap1\n      dup2\n      mstore\n      0x20\n      add\n      0x00\n      keccak256\n      sload\n        /* \"contracts/RBAC Oracle/storageteuxt.sol\":3377:3413  return tmp[_rolePermissionBySolAddr] */\n      swap1\n      pop\n        /* \"contracts/RBAC Oracle/storageteuxt.sol\":2935:3420  function getEvidence(address _rolePermissionBySolAddr, uint RoleID)  public returns(uint) {... */\n      swap3\n      swap2\n      pop\n      pop\n      jump\t// out\n        /* \"contracts/RBAC Oracle/storageteuxt.sol\":1431:3423  contract Evidence{... */\n    tag_26:\n      dup3\n      dup1\n      sload\n      0x01\n      dup2\n      0x01\n      and\n      iszero\n      0x0100\n      mul\n      sub\n      and\n      0x02\n      swap1\n      div\n      swap1\n      0x00\n      mstore\n      keccak256(0x00, 0x20)\n      swap1\n      0x1f\n      add\n      0x20\n      swap1\n      div\n      dup2\n      add\n      swap3\n      dup3\n      0x1f\n      lt\n      tag_38\n      jumpi\n      dup1\n      mload\n      not(0xff)\n      and\n      dup4\n      dup1\n      add\n      or\n      dup6\n      sstore\n      jump(tag_37)\n    tag_38:\n      dup3\n      dup1\n      add\n      0x01\n      add\n      dup6\n      sstore\n      dup3\n      iszero\n      tag_37\n      jumpi\n      swap2\n      dup3\n      add\n    tag_39:\n      dup3\n      dup2\n      gt\n      iszero\n      tag_40\n      jumpi\n      dup3\n      mload\n      dup3\n      sstore\n      swap2\n      0x20\n      add\n      swap2\n      swap1\n      0x01\n      add\n      swap1\n      jump(tag_39)\n    tag_40:\n    tag_37:\n      pop\n      swap1\n      pop\n      tag_41\n      swap2\n      swap1\n      tag_42\n      jump\t// in\n    tag_41:\n      pop\n      swap1\n      jump\t// out\n    tag_42:\n      tag_43\n      swap2\n      swap1\n    tag_44:\n      dup1\n      dup3\n      gt\n      iszero\n      tag_45\n      jumpi\n      0x00\n      dup2\n      0x00\n      swap1\n      sstore\n      pop\n      0x01\n      add\n      jump(tag_44)\n    tag_45:\n      pop\n      swap1\n      jump\n    tag_43:\n      swap1\n      jump\t// out\n        /* \"--CODEGEN--\":5:135   */\n    tag_47:\n      0x00\n        /* \"--CODEGEN--\":85:91   */\n      dup2\n        /* \"--CODEGEN--\":72:92   */\n      calldataload\n        /* \"--CODEGEN--\":63:92   */\n      swap1\n      pop\n        /* \"--CODEGEN--\":97:130   */\n      tag_48\n        /* \"--CODEGEN--\":124:129   */\n      dup2\n        /* \"--CODEGEN--\":97:130   */\n      jump(tag_49)\n    tag_48:\n        /* \"--CODEGEN--\":57:135   */\n      swap3\n      swap2\n      pop\n      pop\n      jump\n        /* \"--CODEGEN--\":143:585   */\n    tag_50:\n      0x00\n        /* \"--CODEGEN--\":245:248   */\n      dup3\n        /* \"--CODEGEN--\":238:242   */\n      0x1f\n        /* \"--CODEGEN--\":230:236   */\n      dup4\n        /* \"--CODEGEN--\":226:243   */\n      add\n        /* \"--CODEGEN--\":222:249   */\n      slt\n        /* \"--CODEGEN--\":212:214   */\n      tag_51\n      jumpi\n        /* \"--CODEGEN--\":263:264   */\n      0x00\n        /* \"--CODEGEN--\":260:261   */\n      dup1\n        /* \"--CODEGEN--\":253:265   */\n      revert\n        /* \"--CODEGEN--\":212:214   */\n    tag_51:\n        /* \"--CODEGEN--\":300:306   */\n      dup2\n        /* \"--CODEGEN--\":287:307   */\n      calldataload\n        /* \"--CODEGEN--\":322:387   */\n      tag_52\n        /* \"--CODEGEN--\":337:386   */\n      tag_53\n        /* \"--CODEGEN--\":379:385   */\n      dup3\n        /* \"--CODEGEN--\":337:386   */\n      jump(tag_54)\n    tag_53:\n        /* \"--CODEGEN--\":322:387   */\n      jump(tag_55)\n    tag_52:\n        /* \"--CODEGEN--\":313:387   */\n      swap2\n      pop\n        /* \"--CODEGEN--\":407:413   */\n      dup1\n        /* \"--CODEGEN--\":400:405   */\n      dup3\n        /* \"--CODEGEN--\":393:414   */\n      mstore\n        /* \"--CODEGEN--\":443:447   */\n      0x20\n        /* \"--CODEGEN--\":435:441   */\n      dup4\n        /* \"--CODEGEN--\":431:448   */\n      add\n        /* \"--CODEGEN--\":476:480   */\n      0x20\n        /* \"--CODEGEN--\":469:474   */\n      dup4\n        /* \"--CODEGEN--\":465:481   */\n      add\n        /* \"--CODEGEN--\":511:514   */\n      dup6\n        /* \"--CODEGEN--\":502:508   */\n      dup4\n        /* \"--CODEGEN--\":497:500   */\n      dup4\n        /* \"--CODEGEN--\":493:509   */\n      add\n        /* \"--CODEGEN--\":490:515   */\n      gt\n        /* \"--CODEGEN--\":487:489   */\n      iszero\n      tag_56\n      jumpi\n        /* \"--CODEGEN--\":528:529   */\n      0x00\n        /* \"--CODEGEN--\":525:526   */\n      dup1\n        /* \"--CODEGEN--\":518:530   */\n      revert\n        /* \"--CODEGEN--\":487:489   */\n    tag_56:\n        /* \"--CODEGEN--\":538:579   */\n      tag_57\n        /* \"--CODEGEN--\":572:578   */\n      dup4\n        /* \"--CODEGEN--\":567:570   */\n      dup3\n        /* \"--CODEGEN--\":562:565   */\n      dup5\n        /* \"--CODEGEN--\":538:579   */\n      jump(tag_58)\n    tag_57:\n        /* \"--CODEGEN--\":205:585   */\n      pop\n      pop\n      pop\n      swap3\n      swap2\n      pop\n      pop\n      jump\n        /* \"--CODEGEN--\":593:723   */\n    tag_59:\n      0x00\n        /* \"--CODEGEN--\":673:679   */\n      dup2\n        /* \"--CODEGEN--\":660:680   */\n      calldataload\n        /* \"--CODEGEN--\":651:680   */\n      swap1\n      pop\n        /* \"--CODEGEN--\":685:718   */\n      tag_60\n        /* \"--CODEGEN--\":712:717   */\n      dup2\n        /* \"--CODEGEN--\":685:718   */\n      jump(tag_61)\n    tag_60:\n        /* \"--CODEGEN--\":645:723   */\n      swap3\n      swap2\n      pop\n      pop\n      jump\n        /* \"--CODEGEN--\":730:864   */\n    tag_62:\n      0x00\n        /* \"--CODEGEN--\":814:820   */\n      dup2\n        /* \"--CODEGEN--\":808:821   */\n      mload\n        /* \"--CODEGEN--\":799:821   */\n      swap1\n      pop\n        /* \"--CODEGEN--\":826:859   */\n      tag_63\n        /* \"--CODEGEN--\":853:858   */\n      dup2\n        /* \"--CODEGEN--\":826:859   */\n      jump(tag_61)\n    tag_63:\n        /* \"--CODEGEN--\":793:864   */\n      swap3\n      swap2\n      pop\n      pop\n      jump\n        /* \"--CODEGEN--\":871:1112   */\n    tag_8:\n      0x00\n        /* \"--CODEGEN--\":975:977   */\n      0x20\n        /* \"--CODEGEN--\":963:972   */\n      dup3\n        /* \"--CODEGEN--\":954:961   */\n      dup5\n        /* \"--CODEGEN--\":950:973   */\n      sub\n        /* \"--CODEGEN--\":946:978   */\n      slt\n        /* \"--CODEGEN--\":943:945   */\n      iszero\n      tag_64\n      jumpi\n        /* \"--CODEGEN--\":991:992   */\n      0x00\n        /* \"--CODEGEN--\":988:989   */\n      dup1\n        /* \"--CODEGEN--\":981:993   */\n      revert\n        /* \"--CODEGEN--\":943:945   */\n    tag_64:\n        /* \"--CODEGEN--\":1026:1027   */\n      0x00\n        /* \"--CODEGEN--\":1043:1096   */\n      tag_65\n        /* \"--CODEGEN--\":1088:1095   */\n      dup5\n        /* \"--CODEGEN--\":1079:1085   */\n      dup3\n        /* \"--CODEGEN--\":1068:1077   */\n      dup6\n        /* \"--CODEGEN--\":1064:1086   */\n      add\n        /* \"--CODEGEN--\":1043:1096   */\n      jump(tag_47)\n    tag_65:\n        /* \"--CODEGEN--\":1033:1096   */\n      swap2\n      pop\n        /* \"--CODEGEN--\":1005:1102   */\n      pop\n        /* \"--CODEGEN--\":937:1112   */\n      swap3\n      swap2\n      pop\n      pop\n      jump\n        /* \"--CODEGEN--\":1119:1485   */\n    tag_19:\n      0x00\n      dup1\n        /* \"--CODEGEN--\":1240:1242   */\n      0x40\n        /* \"--CODEGEN--\":1228:1237   */\n      dup4\n        /* \"--CODEGEN--\":1219:1226   */\n      dup6\n        /* \"--CODEGEN--\":1215:1238   */\n      sub\n        /* \"--CODEGEN--\":1211:1243   */\n      slt\n        /* \"--CODEGEN--\":1208:1210   */\n      iszero\n      tag_66\n      jumpi\n        /* \"--CODEGEN--\":1256:1257   */\n      0x00\n        /* \"--CODEGEN--\":1253:1254   */\n      dup1\n        /* \"--CODEGEN--\":1246:1258   */\n      revert\n        /* \"--CODEGEN--\":1208:1210   */\n    tag_66:\n        /* \"--CODEGEN--\":1291:1292   */\n      0x00\n        /* \"--CODEGEN--\":1308:1361   */\n      tag_67\n        /* \"--CODEGEN--\":1353:1360   */\n      dup6\n        /* \"--CODEGEN--\":1344:1350   */\n      dup3\n        /* \"--CODEGEN--\":1333:1342   */\n      dup7\n        /* \"--CODEGEN--\":1329:1351   */\n      add\n        /* \"--CODEGEN--\":1308:1361   */\n      jump(tag_47)\n    tag_67:\n        /* \"--CODEGEN--\":1298:1361   */\n      swap3\n      pop\n        /* \"--CODEGEN--\":1270:1367   */\n      pop\n        /* \"--CODEGEN--\":1398:1400   */\n      0x20\n        /* \"--CODEGEN--\":1416:1469   */\n      tag_68\n        /* \"--CODEGEN--\":1461:1468   */\n      dup6\n        /* \"--CODEGEN--\":1452:1458   */\n      dup3\n        /* \"--CODEGEN--\":1441:1450   */\n      dup7\n        /* \"--CODEGEN--\":1437:1459   */\n      add\n        /* \"--CODEGEN--\":1416:1469   */\n      jump(tag_59)\n    tag_68:\n        /* \"--CODEGEN--\":1406:1469   */\n      swap2\n      pop\n        /* \"--CODEGEN--\":1377:1475   */\n      pop\n        /* \"--CODEGEN--\":1202:1485   */\n      swap3\n      pop\n      swap3\n      swap1\n      pop\n      jump\n        /* \"--CODEGEN--\":1492:2533   */\n    tag_14:\n      0x00\n      dup1\n      0x00\n      dup1\n        /* \"--CODEGEN--\":1687:1690   */\n      0x80\n        /* \"--CODEGEN--\":1675:1684   */\n      dup6\n        /* \"--CODEGEN--\":1666:1673   */\n      dup8\n        /* \"--CODEGEN--\":1662:1685   */\n      sub\n        /* \"--CODEGEN--\":1658:1691   */\n      slt\n        /* \"--CODEGEN--\":1655:1657   */\n      iszero\n      tag_69\n      jumpi\n        /* \"--CODEGEN--\":1704:1705   */\n      0x00\n        /* \"--CODEGEN--\":1701:1702   */\n      dup1\n        /* \"--CODEGEN--\":1694:1706   */\n      revert\n        /* \"--CODEGEN--\":1655:1657   */\n    tag_69:\n        /* \"--CODEGEN--\":1767:1768   */\n      0x00\n        /* \"--CODEGEN--\":1756:1765   */\n      dup6\n        /* \"--CODEGEN--\":1752:1769   */\n      add\n        /* \"--CODEGEN--\":1739:1770   */\n      calldataload\n        /* \"--CODEGEN--\":1790:1808   */\n      0xffffffffffffffff\n        /* \"--CODEGEN--\":1782:1788   */\n      dup2\n        /* \"--CODEGEN--\":1779:1809   */\n      gt\n        /* \"--CODEGEN--\":1776:1778   */\n      iszero\n      tag_70\n      jumpi\n        /* \"--CODEGEN--\":1822:1823   */\n      0x00\n        /* \"--CODEGEN--\":1819:1820   */\n      dup1\n        /* \"--CODEGEN--\":1812:1824   */\n      revert\n        /* \"--CODEGEN--\":1776:1778   */\n    tag_70:\n        /* \"--CODEGEN--\":1842:1905   */\n      tag_71\n        /* \"--CODEGEN--\":1897:1904   */\n      dup8\n        /* \"--CODEGEN--\":1888:1894   */\n      dup3\n        /* \"--CODEGEN--\":1877:1886   */\n      dup9\n        /* \"--CODEGEN--\":1873:1895   */\n      add\n        /* \"--CODEGEN--\":1842:1905   */\n      jump(tag_50)\n    tag_71:\n        /* \"--CODEGEN--\":1832:1905   */\n      swap5\n      pop\n        /* \"--CODEGEN--\":1718:1911   */\n      pop\n        /* \"--CODEGEN--\":1970:1972   */\n      0x20\n        /* \"--CODEGEN--\":1959:1968   */\n      dup6\n        /* \"--CODEGEN--\":1955:1973   */\n      add\n        /* \"--CODEGEN--\":1942:1974   */\n      calldataload\n        /* \"--CODEGEN--\":1994:2012   */\n      0xffffffffffffffff\n        /* \"--CODEGEN--\":1986:1992   */\n      dup2\n        /* \"--CODEGEN--\":1983:2013   */\n      gt\n        /* \"--CODEGEN--\":1980:1982   */\n      iszero\n      tag_72\n      jumpi\n        /* \"--CODEGEN--\":2026:2027   */\n      0x00\n        /* \"--CODEGEN--\":2023:2024   */\n      dup1\n        /* \"--CODEGEN--\":2016:2028   */\n      revert\n        /* \"--CODEGEN--\":1980:1982   */\n    tag_72:\n        /* \"--CODEGEN--\":2046:2109   */\n      tag_73\n        /* \"--CODEGEN--\":2101:2108   */\n      dup8\n        /* \"--CODEGEN--\":2092:2098   */\n      dup3\n        /* \"--CODEGEN--\":2081:2090   */\n      dup9\n        /* \"--CODEGEN--\":2077:2099   */\n      add\n        /* \"--CODEGEN--\":2046:2109   */\n      jump(tag_50)\n    tag_73:\n        /* \"--CODEGEN--\":2036:2109   */\n      swap4\n      pop\n        /* \"--CODEGEN--\":1921:2115   */\n      pop\n        /* \"--CODEGEN--\":2174:2176   */\n      0x40\n        /* \"--CODEGEN--\":2163:2172   */\n      dup6\n        /* \"--CODEGEN--\":2159:2177   */\n      add\n        /* \"--CODEGEN--\":2146:2178   */\n      calldataload\n        /* \"--CODEGEN--\":2198:2216   */\n      0xffffffffffffffff\n        /* \"--CODEGEN--\":2190:2196   */\n      dup2\n        /* \"--CODEGEN--\":2187:2217   */\n      gt\n        /* \"--CODEGEN--\":2184:2186   */\n      iszero\n      tag_74\n      jumpi\n        /* \"--CODEGEN--\":2230:2231   */\n      0x00\n        /* \"--CODEGEN--\":2227:2228   */\n      dup1\n        /* \"--CODEGEN--\":2220:2232   */\n      revert\n        /* \"--CODEGEN--\":2184:2186   */\n    tag_74:\n        /* \"--CODEGEN--\":2250:2313   */\n      tag_75\n        /* \"--CODEGEN--\":2305:2312   */\n      dup8\n        /* \"--CODEGEN--\":2296:2302   */\n      dup3\n        /* \"--CODEGEN--\":2285:2294   */\n      dup9\n        /* \"--CODEGEN--\":2281:2303   */\n      add\n        /* \"--CODEGEN--\":2250:2313   */\n      jump(tag_50)\n    tag_75:\n        /* \"--CODEGEN--\":2240:2313   */\n      swap3\n      pop\n        /* \"--CODEGEN--\":2125:2319   */\n      pop\n        /* \"--CODEGEN--\":2378:2380   */\n      0x60\n        /* \"--CODEGEN--\":2367:2376   */\n      dup6\n        /* \"--CODEGEN--\":2363:2381   */\n      add\n        /* \"--CODEGEN--\":2350:2382   */\n      calldataload\n        /* \"--CODEGEN--\":2402:2420   */\n      0xffffffffffffffff\n        /* \"--CODEGEN--\":2394:2400   */\n      dup2\n        /* \"--CODEGEN--\":2391:2421   */\n      gt\n        /* \"--CODEGEN--\":2388:2390   */\n      iszero\n      tag_76\n      jumpi\n        /* \"--CODEGEN--\":2434:2435   */\n      0x00\n        /* \"--CODEGEN--\":2431:2432   */\n      dup1\n        /* \"--CODEGEN--\":2424:2436   */\n      revert\n        /* \"--CODEGEN--\":2388:2390   */\n    tag_76:\n        /* \"--CODEGEN--\":2454:2517   */\n      tag_77\n        /* \"--CODEGEN--\":2509:2516   */\n      dup8\n        /* \"--CODEGEN--\":2500:2506   */\n      dup3\n        /* \"--CODEGEN--\":2489:2498   */\n      dup9\n        /* \"--CODEGEN--\":2485:2507   */\n      add\n        /* \"--CODEGEN--\":2454:2517   */\n      jump(tag_50)\n    tag_77:\n        /* \"--CODEGEN--\":2444:2517   */\n      swap2\n      pop\n        /* \"--CODEGEN--\":2329:2523   */\n      pop\n        /* \"--CODEGEN--\":1649:2533   */\n      swap3\n      swap6\n      swap2\n      swap5\n      pop\n      swap3\n      pop\n      jump\n        /* \"--CODEGEN--\":2540:2803   */\n    tag_36:\n      0x00\n        /* \"--CODEGEN--\":2655:2657   */\n      0x20\n        /* \"--CODEGEN--\":2643:2652   */\n      dup3\n        /* \"--CODEGEN--\":2634:2641   */\n      dup5\n        /* \"--CODEGEN--\":2630:2653   */\n      sub\n        /* \"--CODEGEN--\":2626:2658   */\n      slt\n        /* \"--CODEGEN--\":2623:2625   */\n      iszero\n      tag_78\n      jumpi\n        /* \"--CODEGEN--\":2671:2672   */\n      0x00\n        /* \"--CODEGEN--\":2668:2669   */\n      dup1\n        /* \"--CODEGEN--\":2661:2673   */\n      revert\n        /* \"--CODEGEN--\":2623:2625   */\n    tag_78:\n        /* \"--CODEGEN--\":2706:2707   */\n      0x00\n        /* \"--CODEGEN--\":2723:2787   */\n      tag_79\n        /* \"--CODEGEN--\":2779:2786   */\n      dup5\n        /* \"--CODEGEN--\":2770:2776   */\n      dup3\n        /* \"--CODEGEN--\":2759:2768   */\n      dup6\n        /* \"--CODEGEN--\":2755:2777   */\n      add\n        /* \"--CODEGEN--\":2723:2787   */\n      jump(tag_62)\n    tag_79:\n        /* \"--CODEGEN--\":2713:2787   */\n      swap2\n      pop\n        /* \"--CODEGEN--\":2685:2793   */\n      pop\n        /* \"--CODEGEN--\":2617:2803   */\n      swap3\n      swap2\n      pop\n      pop\n      jump\n        /* \"--CODEGEN--\":2810:2952   */\n    tag_80:\n        /* \"--CODEGEN--\":2901:2946   */\n      tag_81\n        /* \"--CODEGEN--\":2940:2945   */\n      dup2\n        /* \"--CODEGEN--\":2901:2946   */\n      jump(tag_82)\n    tag_81:\n        /* \"--CODEGEN--\":2896:2899   */\n      dup3\n        /* \"--CODEGEN--\":2889:2947   */\n      mstore\n        /* \"--CODEGEN--\":2883:2952   */\n      pop\n      pop\n      jump\n        /* \"--CODEGEN--\":2959:3319   */\n    tag_83:\n      0x00\n        /* \"--CODEGEN--\":3089:3128   */\n      tag_84\n        /* \"--CODEGEN--\":3122:3127   */\n      dup3\n        /* \"--CODEGEN--\":3089:3128   */\n      jump(tag_85)\n    tag_84:\n        /* \"--CODEGEN--\":3140:3229   */\n      tag_86\n        /* \"--CODEGEN--\":3222:3228   */\n      dup2\n        /* \"--CODEGEN--\":3217:3220   */\n      dup6\n        /* \"--CODEGEN--\":3140:3229   */\n      jump(tag_87)\n    tag_86:\n        /* \"--CODEGEN--\":3133:3229   */\n      swap4\n      pop\n        /* \"--CODEGEN--\":3234:3286   */\n      tag_88\n        /* \"--CODEGEN--\":3279:3285   */\n      dup2\n        /* \"--CODEGEN--\":3274:3277   */\n      dup6\n        /* \"--CODEGEN--\":3267:3271   */\n      0x20\n        /* \"--CODEGEN--\":3260:3265   */\n      dup7\n        /* \"--CODEGEN--\":3256:3272   */\n      add\n        /* \"--CODEGEN--\":3234:3286   */\n      jump(tag_89)\n    tag_88:\n        /* \"--CODEGEN--\":3307:3313   */\n      dup1\n        /* \"--CODEGEN--\":3302:3305   */\n      dup5\n        /* \"--CODEGEN--\":3298:3314   */\n      add\n        /* \"--CODEGEN--\":3291:3314   */\n      swap2\n      pop\n        /* \"--CODEGEN--\":3069:3319   */\n      pop\n      swap3\n      swap2\n      pop\n      pop\n      jump\n        /* \"--CODEGEN--\":3326:3439   */\n    tag_90:\n        /* \"--CODEGEN--\":3409:3433   */\n      tag_91\n        /* \"--CODEGEN--\":3427:3432   */\n      dup2\n        /* \"--CODEGEN--\":3409:3433   */\n      jump(tag_92)\n    tag_91:\n        /* \"--CODEGEN--\":3404:3407   */\n      dup3\n        /* \"--CODEGEN--\":3397:3434   */\n      mstore\n        /* \"--CODEGEN--\":3391:3439   */\n      pop\n      pop\n      jump\n        /* \"--CODEGEN--\":3446:3712   */\n    tag_24:\n      0x00\n        /* \"--CODEGEN--\":3592:3687   */\n      tag_93\n        /* \"--CODEGEN--\":3683:3686   */\n      dup3\n        /* \"--CODEGEN--\":3674:3680   */\n      dup5\n        /* \"--CODEGEN--\":3592:3687   */\n      jump(tag_83)\n    tag_93:\n        /* \"--CODEGEN--\":3585:3687   */\n      swap2\n      pop\n        /* \"--CODEGEN--\":3704:3707   */\n      dup2\n        /* \"--CODEGEN--\":3697:3707   */\n      swap1\n      pop\n        /* \"--CODEGEN--\":3573:3712   */\n      swap3\n      swap2\n      pop\n      pop\n      jump\n        /* \"--CODEGEN--\":3719:4059   */\n    tag_32:\n      0x00\n        /* \"--CODEGEN--\":3873:3875   */\n      0x40\n        /* \"--CODEGEN--\":3862:3871   */\n      dup3\n        /* \"--CODEGEN--\":3858:3876   */\n      add\n        /* \"--CODEGEN--\":3850:3876   */\n      swap1\n      pop\n        /* \"--CODEGEN--\":3887:3966   */\n      tag_94\n        /* \"--CODEGEN--\":3963:3964   */\n      0x00\n        /* \"--CODEGEN--\":3952:3961   */\n      dup4\n        /* \"--CODEGEN--\":3948:3965   */\n      add\n        /* \"--CODEGEN--\":3939:3945   */\n      dup6\n        /* \"--CODEGEN--\":3887:3966   */\n      jump(tag_80)\n    tag_94:\n        /* \"--CODEGEN--\":3977:4049   */\n      tag_95\n        /* \"--CODEGEN--\":4045:4047   */\n      0x20\n        /* \"--CODEGEN--\":4034:4043   */\n      dup4\n        /* \"--CODEGEN--\":4030:4048   */\n      add\n        /* \"--CODEGEN--\":4021:4027   */\n      dup5\n        /* \"--CODEGEN--\":3977:4049   */\n      jump(tag_90)\n    tag_95:\n        /* \"--CODEGEN--\":3844:4059   */\n      swap4\n      swap3\n      pop\n      pop\n      pop\n      jump\n        /* \"--CODEGEN--\":4066:4279   */\n    tag_11:\n      0x00\n        /* \"--CODEGEN--\":4184:4186   */\n      0x20\n        /* \"--CODEGEN--\":4173:4182   */\n      dup3\n        /* \"--CODEGEN--\":4169:4187   */\n      add\n        /* \"--CODEGEN--\":4161:4187   */\n      swap1\n      pop\n        /* \"--CODEGEN--\":4198:4269   */\n      tag_96\n        /* \"--CODEGEN--\":4266:4267   */\n      0x00\n        /* \"--CODEGEN--\":4255:4264   */\n      dup4\n        /* \"--CODEGEN--\":4251:4268   */\n      add\n        /* \"--CODEGEN--\":4242:4248   */\n      dup5\n        /* \"--CODEGEN--\":4198:4269   */\n      jump(tag_90)\n    tag_96:\n        /* \"--CODEGEN--\":4155:4279   */\n      swap3\n      swap2\n      pop\n      pop\n      jump\n        /* \"--CODEGEN--\":4286:4542   */\n    tag_55:\n      0x00\n        /* \"--CODEGEN--\":4348:4350   */\n      0x40\n        /* \"--CODEGEN--\":4342:4351   */\n      mload\n        /* \"--CODEGEN--\":4332:4351   */\n      swap1\n      pop\n        /* \"--CODEGEN--\":4386:4390   */\n      dup2\n        /* \"--CODEGEN--\":4378:4384   */\n      dup2\n        /* \"--CODEGEN--\":4374:4391   */\n      add\n        /* \"--CODEGEN--\":4485:4491   */\n      dup2\n        /* \"--CODEGEN--\":4473:4483   */\n      dup2\n        /* \"--CODEGEN--\":4470:4492   */\n      lt\n        /* \"--CODEGEN--\":4449:4467   */\n      0xffffffffffffffff\n        /* \"--CODEGEN--\":4437:4447   */\n      dup3\n        /* \"--CODEGEN--\":4434:4468   */\n      gt\n        /* \"--CODEGEN--\":4431:4493   */\n      or\n        /* \"--CODEGEN--\":4428:4430   */\n      iszero\n      tag_97\n      jumpi\n        /* \"--CODEGEN--\":4506:4507   */\n      0x00\n        /* \"--CODEGEN--\":4503:4504   */\n      dup1\n        /* \"--CODEGEN--\":4496:4508   */\n      revert\n        /* \"--CODEGEN--\":4428:4430   */\n    tag_97:\n        /* \"--CODEGEN--\":4526:4536   */\n      dup1\n        /* \"--CODEGEN--\":4522:4524   */\n      0x40\n        /* \"--CODEGEN--\":4515:4537   */\n      mstore\n        /* \"--CODEGEN--\":4326:4542   */\n      pop\n      swap2\n      swap1\n      pop\n      jump\n        /* \"--CODEGEN--\":4549:4871   */\n    tag_54:\n      0x00\n        /* \"--CODEGEN--\":4693:4711   */\n      0xffffffffffffffff\n        /* \"--CODEGEN--\":4685:4691   */\n      dup3\n        /* \"--CODEGEN--\":4682:4712   */\n      gt\n        /* \"--CODEGEN--\":4679:4681   */\n      iszero\n      tag_98\n      jumpi\n        /* \"--CODEGEN--\":4725:4726   */\n      0x00\n        /* \"--CODEGEN--\":4722:4723   */\n      dup1\n        /* \"--CODEGEN--\":4715:4727   */\n      revert\n        /* \"--CODEGEN--\":4679:4681   */\n    tag_98:\n        /* \"--CODEGEN--\":4792:4796   */\n      0x1f\n        /* \"--CODEGEN--\":4788:4797   */\n      not\n        /* \"--CODEGEN--\":4781:4785   */\n      0x1f\n        /* \"--CODEGEN--\":4773:4779   */\n      dup4\n        /* \"--CODEGEN--\":4769:4786   */\n      add\n        /* \"--CODEGEN--\":4765:4798   */\n      and\n        /* \"--CODEGEN--\":4757:4798   */\n      swap1\n      pop\n        /* \"--CODEGEN--\":4856:4860   */\n      0x20\n        /* \"--CODEGEN--\":4850:4854   */\n      dup2\n        /* \"--CODEGEN--\":4846:4861   */\n      add\n        /* \"--CODEGEN--\":4838:4861   */\n      swap1\n      pop\n        /* \"--CODEGEN--\":4616:4871   */\n      swap2\n      swap1\n      pop\n      jump\n        /* \"--CODEGEN--\":4878:5000   */\n    tag_85:\n      0x00\n        /* \"--CODEGEN--\":4972:4977   */\n      dup2\n        /* \"--CODEGEN--\":4966:4978   */\n      mload\n        /* \"--CODEGEN--\":4956:4978   */\n      swap1\n      pop\n        /* \"--CODEGEN--\":4937:5000   */\n      swap2\n      swap1\n      pop\n      jump\n        /* \"--CODEGEN--\":5008:5153   */\n    tag_87:\n      0x00\n        /* \"--CODEGEN--\":5144:5147   */\n      dup2\n        /* \"--CODEGEN--\":5129:5147   */\n      swap1\n      pop\n        /* \"--CODEGEN--\":5122:5153   */\n      swap3\n      swap2\n      pop\n      pop\n      jump\n        /* \"--CODEGEN--\":5161:5252   */\n    tag_99:\n      0x00\n        /* \"--CODEGEN--\":5223:5247   */\n      tag_100\n        /* \"--CODEGEN--\":5241:5246   */\n      dup3\n        /* \"--CODEGEN--\":5223:5247   */\n      jump(tag_101)\n    tag_100:\n        /* \"--CODEGEN--\":5212:5247   */\n      swap1\n      pop\n        /* \"--CODEGEN--\":5206:5252   */\n      swap2\n      swap1\n      pop\n      jump\n        /* \"--CODEGEN--\":5259:5380   */\n    tag_101:\n      0x00\n        /* \"--CODEGEN--\":5332:5374   */\n      0xffffffffffffffffffffffffffffffffffffffff\n        /* \"--CODEGEN--\":5325:5330   */\n      dup3\n        /* \"--CODEGEN--\":5321:5375   */\n      and\n        /* \"--CODEGEN--\":5310:5375   */\n      swap1\n      pop\n        /* \"--CODEGEN--\":5304:5380   */\n      swap2\n      swap1\n      pop\n      jump\n        /* \"--CODEGEN--\":5387:5459   */\n    tag_92:\n      0x00\n        /* \"--CODEGEN--\":5449:5454   */\n      dup2\n        /* \"--CODEGEN--\":5438:5454   */\n      swap1\n      pop\n        /* \"--CODEGEN--\":5432:5459   */\n      swap2\n      swap1\n      pop\n      jump\n        /* \"--CODEGEN--\":5466:5595   */\n    tag_82:\n      0x00\n        /* \"--CODEGEN--\":5553:5590   */\n      tag_102\n        /* \"--CODEGEN--\":5584:5589   */\n      dup3\n        /* \"--CODEGEN--\":5553:5590   */\n      jump(tag_103)\n    tag_102:\n        /* \"--CODEGEN--\":5540:5590   */\n      swap1\n      pop\n        /* \"--CODEGEN--\":5534:5595   */\n      swap2\n      swap1\n      pop\n      jump\n        /* \"--CODEGEN--\":5602:5723   */\n    tag_103:\n      0x00\n        /* \"--CODEGEN--\":5681:5718   */\n      tag_104\n        /* \"--CODEGEN--\":5712:5717   */\n      dup3\n        /* \"--CODEGEN--\":5681:5718   */\n      jump(tag_105)\n    tag_104:\n        /* \"--CODEGEN--\":5668:5718   */\n      swap1\n      pop\n        /* \"--CODEGEN--\":5662:5723   */\n      swap2\n      swap1\n      pop\n      jump\n        /* \"--CODEGEN--\":5730:5838   */\n    tag_105:\n      0x00\n        /* \"--CODEGEN--\":5809:5833   */\n      tag_106\n        /* \"--CODEGEN--\":5827:5832   */\n      dup3\n        /* \"--CODEGEN--\":5809:5833   */\n      jump(tag_101)\n    tag_106:\n        /* \"--CODEGEN--\":5796:5833   */\n      swap1\n      pop\n        /* \"--CODEGEN--\":5790:5838   */\n      swap2\n      swap1\n      pop\n      jump\n        /* \"--CODEGEN--\":5846:5991   */\n    tag_58:\n        /* \"--CODEGEN--\":5927:5933   */\n      dup3\n        /* \"--CODEGEN--\":5922:5925   */\n      dup2\n        /* \"--CODEGEN--\":5917:5920   */\n      dup4\n        /* \"--CODEGEN--\":5904:5934   */\n      calldatacopy\n        /* \"--CODEGEN--\":5983:5984   */\n      0x00\n        /* \"--CODEGEN--\":5974:5980   */\n      dup4\n        /* \"--CODEGEN--\":5969:5972   */\n      dup4\n        /* \"--CODEGEN--\":5965:5981   */\n      add\n        /* \"--CODEGEN--\":5958:5985   */\n      mstore\n        /* \"--CODEGEN--\":5897:5991   */\n      pop\n      pop\n      pop\n      jump\n        /* \"--CODEGEN--\":6000:6268   */\n    tag_89:\n        /* \"--CODEGEN--\":6065:6066   */\n      0x00\n        /* \"--CODEGEN--\":6072:6173   */\n    tag_107:\n        /* \"--CODEGEN--\":6086:6092   */\n      dup4\n        /* \"--CODEGEN--\":6083:6084   */\n      dup2\n        /* \"--CODEGEN--\":6080:6093   */\n      lt\n        /* \"--CODEGEN--\":6072:6173   */\n      iszero\n      tag_109\n      jumpi\n        /* \"--CODEGEN--\":6162:6163   */\n      dup1\n        /* \"--CODEGEN--\":6157:6160   */\n      dup3\n        /* \"--CODEGEN--\":6153:6164   */\n      add\n        /* \"--CODEGEN--\":6147:6165   */\n      mload\n        /* \"--CODEGEN--\":6143:6144   */\n      dup2\n        /* \"--CODEGEN--\":6138:6141   */\n      dup5\n        /* \"--CODEGEN--\":6134:6145   */\n      add\n        /* \"--CODEGEN--\":6127:6166   */\n      mstore\n        /* \"--CODEGEN--\":6108:6110   */\n      0x20\n        /* \"--CODEGEN--\":6105:6106   */\n      dup2\n        /* \"--CODEGEN--\":6101:6111   */\n      add\n        /* \"--CODEGEN--\":6096:6111   */\n      swap1\n      pop\n        /* \"--CODEGEN--\":6072:6173   */\n      jump(tag_107)\n    tag_109:\n        /* \"--CODEGEN--\":6188:6194   */\n      dup4\n        /* \"--CODEGEN--\":6185:6186   */\n      dup2\n        /* \"--CODEGEN--\":6182:6195   */\n      gt\n        /* \"--CODEGEN--\":6179:6181   */\n      iszero\n      tag_110\n      jumpi\n        /* \"--CODEGEN--\":6253:6254   */\n      0x00\n        /* \"--CODEGEN--\":6244:6250   */\n      dup5\n        /* \"--CODEGEN--\":6239:6242   */\n      dup5\n        /* \"--CODEGEN--\":6235:6251   */\n      add\n        /* \"--CODEGEN--\":6228:6255   */\n      mstore\n        /* \"--CODEGEN--\":6179:6181   */\n    tag_110:\n        /* \"--CODEGEN--\":6049:6268   */\n      pop\n      pop\n      pop\n      pop\n      jump\n        /* \"--CODEGEN--\":6276:6393   */\n    tag_49:\n        /* \"--CODEGEN--\":6345:6369   */\n      tag_111\n        /* \"--CODEGEN--\":6363:6368   */\n      dup2\n        /* \"--CODEGEN--\":6345:6369   */\n      jump(tag_99)\n    tag_111:\n        /* \"--CODEGEN--\":6338:6343   */\n      dup2\n        /* \"--CODEGEN--\":6335:6370   */\n      eq\n        /* \"--CODEGEN--\":6325:6327   */\n      tag_112\n      jumpi\n        /* \"--CODEGEN--\":6384:6385   */\n      0x00\n        /* \"--CODEGEN--\":6381:6382   */\n      dup1\n        /* \"--CODEGEN--\":6374:6386   */\n      revert\n        /* \"--CODEGEN--\":6325:6327   */\n    tag_112:\n        /* \"--CODEGEN--\":6319:6393   */\n      pop\n      jump\n        /* \"--CODEGEN--\":6400:6517   */\n    tag_61:\n        /* \"--CODEGEN--\":6469:6493   */\n      tag_113\n        /* \"--CODEGEN--\":6487:6492   */\n      dup2\n        /* \"--CODEGEN--\":6469:6493   */\n      jump(tag_92)\n    tag_113:\n        /* \"--CODEGEN--\":6462:6467   */\n      dup2\n        /* \"--CODEGEN--\":6459:6494   */\n      eq\n        /* \"--CODEGEN--\":6449:6451   */\n      tag_114\n      jumpi\n        /* \"--CODEGEN--\":6508:6509   */\n      0x00\n        /* \"--CODEGEN--\":6505:6506   */\n      dup1\n        /* \"--CODEGEN--\":6498:6510   */\n      revert\n        /* \"--CODEGEN--\":6449:6451   */\n    tag_114:\n        /* \"--CODEGEN--\":6443:6517   */\n      pop\n      jump\n\n    auxdata: 0xa365627a7a7231582076e848fb7205916d04ee3a85a3b8cddbb3ba3965032c2354d413a660a4efefc36c6578706572696d656e74616cf564736f6c63430005110040\n}\n",
				"bytecode": {
					"linkReferences": {},
					"object": "608060405260008055610bba600155610bbb600255610bbc60035534801561002657600080fd5b506107c7806100366000396000f3fe608060405234801561001057600080fd5b50600436106100415760003560e01c806323e469651461004657806367f245cf14610076578063b254ee4a146100a6575b600080fd5b610060600480360361005b9190810190610438565b6100d6565b60405161006d9190610618565b60405180910390f35b610090600480360361008b919081019061049d565b6100ee565b60405161009d9190610618565b60405180910390f35b6100c060048036036100bb9190810190610461565b610183565b6040516100cd9190610618565b60405180910390f35b60066020528060005260406000206000915090505481565b60008060048460405161010191906105d8565b9081526020016040518091039020905085816000019080519060200190610129929190610300565b5084816001019080519060200190610142929190610300565b508281600201908051906020019061015b929190610300565b5083816003019080519060200190610174929190610300565b50600054915050949350505050565b600082600760006101000a81548173ffffffffffffffffffffffffffffffffffffffff021916908373ffffffffffffffffffffffffffffffffffffffff160217905550600760009054906101000a900473ffffffffffffffffffffffffffffffffffffffff1673ffffffffffffffffffffffffffffffffffffffff16631e10f2fe33846040518363ffffffff1660e01b81526004016102239291906105ef565b602060405180830381600087803b15801561023d57600080fd5b505af1158015610251573d6000803e3d6000fd5b505050506040513d601f19601f820116820180604052506102759190810190610560565b600660008573ffffffffffffffffffffffffffffffffffffffff1673ffffffffffffffffffffffffffffffffffffffff16815260200190815260200160002081905550600660008473ffffffffffffffffffffffffffffffffffffffff1673ffffffffffffffffffffffffffffffffffffffff16815260200190815260200160002054905092915050565b828054600181600116156101000203166002900490600052602060002090601f016020900481019282601f1061034157805160ff191683800117855561036f565b8280016001018555821561036f579182015b8281111561036e578251825591602001919060010190610353565b5b50905061037c9190610380565b5090565b6103a291905b8082111561039e576000816000905550600101610386565b5090565b90565b6000813590506103b481610756565b92915050565b600082601f8301126103cb57600080fd5b81356103de6103d982610660565b610633565b915080825260208301602083018583830111156103fa57600080fd5b610405838284610714565b50505092915050565b60008135905061041d8161076d565b92915050565b6000815190506104328161076d565b92915050565b60006020828403121561044a57600080fd5b6000610458848285016103a5565b91505092915050565b6000806040838503121561047457600080fd5b6000610482858286016103a5565b92505060206104938582860161040e565b9150509250929050565b600080600080608085870312156104b357600080fd5b600085013567ffffffffffffffff8111156104cd57600080fd5b6104d9878288016103ba565b945050602085013567ffffffffffffffff8111156104f657600080fd5b610502878288016103ba565b935050604085013567ffffffffffffffff81111561051f57600080fd5b61052b878288016103ba565b925050606085013567ffffffffffffffff81111561054857600080fd5b610554878288016103ba565b91505092959194509250565b60006020828403121561057257600080fd5b600061058084828501610423565b91505092915050565b610592816106de565b82525050565b60006105a38261068c565b6105ad8185610697565b93506105bd818560208601610723565b80840191505092915050565b6105d2816106d4565b82525050565b60006105e48284610598565b915081905092915050565b60006040820190506106046000830185610589565b61061160208301846105c9565b9392505050565b600060208201905061062d60008301846105c9565b92915050565b6000604051905081810181811067ffffffffffffffff8211171561065657600080fd5b8060405250919050565b600067ffffffffffffffff82111561067757600080fd5b601f19601f8301169050602081019050919050565b600081519050919050565b600081905092915050565b60006106ad826106b4565b9050919050565b600073ffffffffffffffffffffffffffffffffffffffff82169050919050565b6000819050919050565b60006106e9826106f0565b9050919050565b60006106fb82610702565b9050919050565b600061070d826106b4565b9050919050565b82818337600083830152505050565b60005b83811015610741578082015181840152602081019050610726565b83811115610750576000848401525b50505050565b61075f816106a2565b811461076a57600080fd5b50565b610776816106d4565b811461078157600080fd5b5056fea365627a7a7231582076e848fb7205916d04ee3a85a3b8cddbb3ba3965032c2354d413a660a4efefc36c6578706572696d656e74616cf564736f6c63430005110040",
					"opcodes": "PUSH1 0x80 PUSH1 0x40 MSTORE PUSH1 0x0 DUP1 SSTORE PUSH2 0xBBA PUSH1 0x1 SSTORE PUSH2 0xBBB PUSH1 0x2 SSTORE PUSH2 0xBBC PUSH1 0x3 SSTORE CALLVALUE DUP1 ISZERO PUSH2 0x26 JUMPI PUSH1 0x0 DUP1 REVERT JUMPDEST POP PUSH2 0x7C7 DUP1 PUSH2 0x36 PUSH1 0x0 CODECOPY PUSH1 0x0 RETURN INVALID PUSH1 0x80 PUSH1 0x40 MSTORE CALLVALUE DUP1 ISZERO PUSH2 0x10 JUMPI PUSH1 0x0 DUP1 REVERT JUMPDEST POP PUSH1 0x4 CALLDATASIZE LT PUSH2 0x41 JUMPI PUSH1 0x0 CALLDATALOAD PUSH1 0xE0 SHR DUP1 PUSH4 0x23E46965 EQ PUSH2 0x46 JUMPI DUP1 PUSH4 0x67F245CF EQ PUSH2 0x76 JUMPI DUP1 PUSH4 0xB254EE4A EQ PUSH2 0xA6 JUMPI JUMPDEST PUSH1 0x0 DUP1 REVERT JUMPDEST PUSH2 0x60 PUSH1 0x4 DUP1 CALLDATASIZE SUB PUSH2 0x5B SWAP2 SWAP1 DUP2 ADD SWAP1 PUSH2 0x438 JUMP JUMPDEST PUSH2 0xD6 JUMP JUMPDEST PUSH1 0x40 MLOAD PUSH2 0x6D SWAP2 SWAP1 PUSH2 0x618 JUMP JUMPDEST PUSH1 0x40 MLOAD DUP1 SWAP2 SUB SWAP1 RETURN JUMPDEST PUSH2 0x90 PUSH1 0x4 DUP1 CALLDATASIZE SUB PUSH2 0x8B SWAP2 SWAP1 DUP2 ADD SWAP1 PUSH2 0x49D JUMP JUMPDEST PUSH2 0xEE JUMP JUMPDEST PUSH1 0x40 MLOAD PUSH2 0x9D SWAP2 SWAP1 PUSH2 0x618 JUMP JUMPDEST PUSH1 0x40 MLOAD DUP1 SWAP2 SUB SWAP1 RETURN JUMPDEST PUSH2 0xC0 PUSH1 0x4 DUP1 CALLDATASIZE SUB PUSH2 0xBB SWAP2 SWAP1 DUP2 ADD SWAP1 PUSH2 0x461 JUMP JUMPDEST PUSH2 0x183 JUMP JUMPDEST PUSH1 0x40 MLOAD PUSH2 0xCD SWAP2 SWAP1 PUSH2 0x618 JUMP JUMPDEST PUSH1 0x40 MLOAD DUP1 SWAP2 SUB SWAP1 RETURN JUMPDEST PUSH1 0x6 PUSH1 0x20 MSTORE DUP1 PUSH1 0x0 MSTORE PUSH1 0x40 PUSH1 0x0 KECCAK256 PUSH1 0x0 SWAP2 POP SWAP1 POP SLOAD DUP2 JUMP JUMPDEST PUSH1 0x0 DUP1 PUSH1 0x4 DUP5 PUSH1 0x40 MLOAD PUSH2 0x101 SWAP2 SWAP1 PUSH2 0x5D8 JUMP JUMPDEST SWAP1 DUP2 MSTORE PUSH1 0x20 ADD PUSH1 0x40 MLOAD DUP1 SWAP2 SUB SWAP1 KECCAK256 SWAP1 POP DUP6 DUP2 PUSH1 0x0 ADD SWAP1 DUP1 MLOAD SWAP1 PUSH1 0x20 ADD SWAP1 PUSH2 0x129 SWAP3 SWAP2 SWAP1 PUSH2 0x300 JUMP JUMPDEST POP DUP5 DUP2 PUSH1 0x1 ADD SWAP1 DUP1 MLOAD SWAP1 PUSH1 0x20 ADD SWAP1 PUSH2 0x142 SWAP3 SWAP2 SWAP1 PUSH2 0x300 JUMP JUMPDEST POP DUP3 DUP2 PUSH1 0x2 ADD SWAP1 DUP1 MLOAD SWAP1 PUSH1 0x20 ADD SWAP1 PUSH2 0x15B SWAP3 SWAP2 SWAP1 PUSH2 0x300 JUMP JUMPDEST POP DUP4 DUP2 PUSH1 0x3 ADD SWAP1 DUP1 MLOAD SWAP1 PUSH1 0x20 ADD SWAP1 PUSH2 0x174 SWAP3 SWAP2 SWAP1 PUSH2 0x300 JUMP JUMPDEST POP PUSH1 0x0 SLOAD SWAP2 POP POP SWAP5 SWAP4 POP POP POP POP JUMP JUMPDEST PUSH1 0x0 DUP3 PUSH1 0x7 PUSH1 0x0 PUSH2 0x100 EXP DUP2 SLOAD DUP2 PUSH20 0xFFFFFFFFFFFFFFFFFFFFFFFFFFFFFFFFFFFFFFFF MUL NOT AND SWAP1 DUP4 PUSH20 0xFFFFFFFFFFFFFFFFFFFFFFFFFFFFFFFFFFFFFFFF AND MUL OR SWAP1 SSTORE POP PUSH1 0x7 PUSH1 0x0 SWAP1 SLOAD SWAP1 PUSH2 0x100 EXP SWAP1 DIV PUSH20 0xFFFFFFFFFFFFFFFFFFFFFFFFFFFFFFFFFFFFFFFF AND PUSH20 0xFFFFFFFFFFFFFFFFFFFFFFFFFFFFFFFFFFFFFFFF AND PUSH4 0x1E10F2FE CALLER DUP5 PUSH1 0x40 MLOAD DUP4 PUSH4 0xFFFFFFFF AND PUSH1 0xE0 SHL DUP2 MSTORE PUSH1 0x4 ADD PUSH2 0x223 SWAP3 SWAP2 SWAP1 PUSH2 0x5EF JUMP JUMPDEST PUSH1 0x20 PUSH1 0x40 MLOAD DUP1 DUP4 SUB DUP2 PUSH1 0x0 DUP8 DUP1 EXTCODESIZE ISZERO DUP1 ISZERO PUSH2 0x23D JUMPI PUSH1 0x0 DUP1 REVERT JUMPDEST POP GAS CALL ISZERO DUP1 ISZERO PUSH2 0x251 JUMPI RETURNDATASIZE PUSH1 0x0 DUP1 RETURNDATACOPY RETURNDATASIZE PUSH1 0x0 REVERT JUMPDEST POP POP POP POP PUSH1 0x40 MLOAD RETURNDATASIZE PUSH1 0x1F NOT PUSH1 0x1F DUP3 ADD AND DUP3 ADD DUP1 PUSH1 0x40 MSTORE POP PUSH2 0x275 SWAP2 SWAP1 DUP2 ADD SWAP1 PUSH2 0x560 JUMP JUMPDEST PUSH1 0x6 PUSH1 0x0 DUP6 PUSH20 0xFFFFFFFFFFFFFFFFFFFFFFFFFFFFFFFFFFFFFFFF AND PUSH20 0xFFFFFFFFFFFFFFFFFFFFFFFFFFFFFFFFFFFFFFFF AND DUP2 MSTORE PUSH1 0x20 ADD SWAP1 DUP2 MSTORE PUSH1 0x20 ADD PUSH1 0x0 KECCAK256 DUP2 SWAP1 SSTORE POP PUSH1 0x6 PUSH1 0x0 DUP5 PUSH20 0xFFFFFFFFFFFFFFFFFFFFFFFFFFFFFFFFFFFFFFFF AND PUSH20 0xFFFFFFFFFFFFFFFFFFFFFFFFFFFFFFFFFFFFFFFF AND DUP2 MSTORE PUSH1 0x20 ADD SWAP1 DUP2 MSTORE PUSH1 0x20 ADD PUSH1 0x0 KECCAK256 SLOAD SWAP1 POP SWAP3 SWAP2 POP POP JUMP JUMPDEST DUP3 DUP1 SLOAD PUSH1 0x1 DUP2 PUSH1 0x1 AND ISZERO PUSH2 0x100 MUL SUB AND PUSH1 0x2 SWAP1 DIV SWAP1 PUSH1 0x0 MSTORE PUSH1 0x20 PUSH1 0x0 KECCAK256 SWAP1 PUSH1 0x1F ADD PUSH1 0x20 SWAP1 DIV DUP2 ADD SWAP3 DUP3 PUSH1 0x1F LT PUSH2 0x341 JUMPI DUP1 MLOAD PUSH1 0xFF NOT AND DUP4 DUP1 ADD OR DUP6 SSTORE PUSH2 0x36F JUMP JUMPDEST DUP3 DUP1 ADD PUSH1 0x1 ADD DUP6 SSTORE DUP3 ISZERO PUSH2 0x36F JUMPI SWAP2 DUP3 ADD JUMPDEST DUP3 DUP2 GT ISZERO PUSH2 0x36E JUMPI DUP3 MLOAD DUP3 SSTORE SWAP2 PUSH1 0x20 ADD SWAP2 SWAP1 PUSH1 0x1 ADD SWAP1 PUSH2 0x353 JUMP JUMPDEST JUMPDEST POP SWAP1 POP PUSH2 0x37C SWAP2 SWAP1 PUSH2 0x380 JUMP JUMPDEST POP SWAP1 JUMP JUMPDEST PUSH2 0x3A2 SWAP2 SWAP1 JUMPDEST DUP1 DUP3 GT ISZERO PUSH2 0x39E JUMPI PUSH1 0x0 DUP2 PUSH1 0x0 SWAP1 SSTORE POP PUSH1 0x1 ADD PUSH2 0x386 JUMP JUMPDEST POP SWAP1 JUMP JUMPDEST SWAP1 JUMP JUMPDEST PUSH1 0x0 DUP2 CALLDATALOAD SWAP1 POP PUSH2 0x3B4 DUP2 PUSH2 0x756 JUMP JUMPDEST SWAP3 SWAP2 POP POP JUMP JUMPDEST PUSH1 0x0 DUP3 PUSH1 0x1F DUP4 ADD SLT PUSH2 0x3CB JUMPI PUSH1 0x0 DUP1 REVERT JUMPDEST DUP2 CALLDATALOAD PUSH2 0x3DE PUSH2 0x3D9 DUP3 PUSH2 0x660 JUMP JUMPDEST PUSH2 0x633 JUMP JUMPDEST SWAP2 POP DUP1 DUP3 MSTORE PUSH1 0x20 DUP4 ADD PUSH1 0x20 DUP4 ADD DUP6 DUP4 DUP4 ADD GT ISZERO PUSH2 0x3FA JUMPI PUSH1 0x0 DUP1 REVERT JUMPDEST PUSH2 0x405 DUP4 DUP3 DUP5 PUSH2 0x714 JUMP JUMPDEST POP POP POP SWAP3 SWAP2 POP POP JUMP JUMPDEST PUSH1 0x0 DUP2 CALLDATALOAD SWAP1 POP PUSH2 0x41D DUP2 PUSH2 0x76D JUMP JUMPDEST SWAP3 SWAP2 POP POP JUMP JUMPDEST PUSH1 0x0 DUP2 MLOAD SWAP1 POP PUSH2 0x432 DUP2 PUSH2 0x76D JUMP JUMPDEST SWAP3 SWAP2 POP POP JUMP JUMPDEST PUSH1 0x0 PUSH1 0x20 DUP3 DUP5 SUB SLT ISZERO PUSH2 0x44A JUMPI PUSH1 0x0 DUP1 REVERT JUMPDEST PUSH1 0x0 PUSH2 0x458 DUP5 DUP3 DUP6 ADD PUSH2 0x3A5 JUMP JUMPDEST SWAP2 POP POP SWAP3 SWAP2 POP POP JUMP JUMPDEST PUSH1 0x0 DUP1 PUSH1 0x40 DUP4 DUP6 SUB SLT ISZERO PUSH2 0x474 JUMPI PUSH1 0x0 DUP1 REVERT JUMPDEST PUSH1 0x0 PUSH2 0x482 DUP6 DUP3 DUP7 ADD PUSH2 0x3A5 JUMP JUMPDEST SWAP3 POP POP PUSH1 0x20 PUSH2 0x493 DUP6 DUP3 DUP7 ADD PUSH2 0x40E JUMP JUMPDEST SWAP2 POP POP SWAP3 POP SWAP3 SWAP1 POP JUMP JUMPDEST PUSH1 0x0 DUP1 PUSH1 0x0 DUP1 PUSH1 0x80 DUP6 DUP8 SUB SLT ISZERO PUSH2 0x4B3 JUMPI PUSH1 0x0 DUP1 REVERT JUMPDEST PUSH1 0x0 DUP6 ADD CALLDATALOAD PUSH8 0xFFFFFFFFFFFFFFFF DUP2 GT ISZERO PUSH2 0x4CD JUMPI PUSH1 0x0 DUP1 REVERT JUMPDEST PUSH2 0x4D9 DUP8 DUP3 DUP9 ADD PUSH2 0x3BA JUMP JUMPDEST SWAP5 POP POP PUSH1 0x20 DUP6 ADD CALLDATALOAD PUSH8 0xFFFFFFFFFFFFFFFF DUP2 GT ISZERO PUSH2 0x4F6 JUMPI PUSH1 0x0 DUP1 REVERT JUMPDEST PUSH2 0x502 DUP8 DUP3 DUP9 ADD PUSH2 0x3BA JUMP JUMPDEST SWAP4 POP POP PUSH1 0x40 DUP6 ADD CALLDATALOAD PUSH8 0xFFFFFFFFFFFFFFFF DUP2 GT ISZERO PUSH2 0x51F JUMPI PUSH1 0x0 DUP1 REVERT JUMPDEST PUSH2 0x52B DUP8 DUP3 DUP9 ADD PUSH2 0x3BA JUMP JUMPDEST SWAP3 POP POP PUSH1 0x60 DUP6 ADD CALLDATALOAD PUSH8 0xFFFFFFFFFFFFFFFF DUP2 GT ISZERO PUSH2 0x548 JUMPI PUSH1 0x0 DUP1 REVERT JUMPDEST PUSH2 0x554 DUP8 DUP3 DUP9 ADD PUSH2 0x3BA JUMP JUMPDEST SWAP2 POP POP SWAP3 SWAP6 SWAP2 SWAP5 POP SWAP3 POP JUMP JUMPDEST PUSH1 0x0 PUSH1 0x20 DUP3 DUP5 SUB SLT ISZERO PUSH2 0x572 JUMPI PUSH1 0x0 DUP1 REVERT JUMPDEST PUSH1 0x0 PUSH2 0x580 DUP5 DUP3 DUP6 ADD PUSH2 0x423 JUMP JUMPDEST SWAP2 POP POP SWAP3 SWAP2 POP POP JUMP JUMPDEST PUSH2 0x592 DUP2 PUSH2 0x6DE JUMP JUMPDEST DUP3 MSTORE POP POP JUMP JUMPDEST PUSH1 0x0 PUSH2 0x5A3 DUP3 PUSH2 0x68C JUMP JUMPDEST PUSH2 0x5AD DUP2 DUP6 PUSH2 0x697 JUMP JUMPDEST SWAP4 POP PUSH2 0x5BD DUP2 DUP6 PUSH1 0x20 DUP7 ADD PUSH2 0x723 JUMP JUMPDEST DUP1 DUP5 ADD SWAP2 POP POP SWAP3 SWAP2 POP POP JUMP JUMPDEST PUSH2 0x5D2 DUP2 PUSH2 0x6D4 JUMP JUMPDEST DUP3 MSTORE POP POP JUMP JUMPDEST PUSH1 0x0 PUSH2 0x5E4 DUP3 DUP5 PUSH2 0x598 JUMP JUMPDEST SWAP2 POP DUP2 SWAP1 POP SWAP3 SWAP2 POP POP JUMP JUMPDEST PUSH1 0x0 PUSH1 0x40 DUP3 ADD SWAP1 POP PUSH2 0x604 PUSH1 0x0 DUP4 ADD DUP6 PUSH2 0x589 JUMP JUMPDEST PUSH2 0x611 PUSH1 0x20 DUP4 ADD DUP5 PUSH2 0x5C9 JUMP JUMPDEST SWAP4 SWAP3 POP POP POP JUMP JUMPDEST PUSH1 0x0 PUSH1 0x20 DUP3 ADD SWAP1 POP PUSH2 0x62D PUSH1 0x0 DUP4 ADD DUP5 PUSH2 0x5C9 JUMP JUMPDEST SWAP3 SWAP2 POP POP JUMP JUMPDEST PUSH1 0x0 PUSH1 0x40 MLOAD SWAP1 POP DUP2 DUP2 ADD DUP2 DUP2 LT PUSH8 0xFFFFFFFFFFFFFFFF DUP3 GT OR ISZERO PUSH2 0x656 JUMPI PUSH1 0x0 DUP1 REVERT JUMPDEST DUP1 PUSH1 0x40 MSTORE POP SWAP2 SWAP1 POP JUMP JUMPDEST PUSH1 0x0 PUSH8 0xFFFFFFFFFFFFFFFF DUP3 GT ISZERO PUSH2 0x677 JUMPI PUSH1 0x0 DUP1 REVERT JUMPDEST PUSH1 0x1F NOT PUSH1 0x1F DUP4 ADD AND SWAP1 POP PUSH1 0x20 DUP2 ADD SWAP1 POP SWAP2 SWAP1 POP JUMP JUMPDEST PUSH1 0x0 DUP2 MLOAD SWAP1 POP SWAP2 SWAP1 POP JUMP JUMPDEST PUSH1 0x0 DUP2 SWAP1 POP SWAP3 SWAP2 POP POP JUMP JUMPDEST PUSH1 0x0 PUSH2 0x6AD DUP3 PUSH2 0x6B4 JUMP JUMPDEST SWAP1 POP SWAP2 SWAP1 POP JUMP JUMPDEST PUSH1 0x0 PUSH20 0xFFFFFFFFFFFFFFFFFFFFFFFFFFFFFFFFFFFFFFFF DUP3 AND SWAP1 POP SWAP2 SWAP1 POP JUMP JUMPDEST PUSH1 0x0 DUP2 SWAP1 POP SWAP2 SWAP1 POP JUMP JUMPDEST PUSH1 0x0 PUSH2 0x6E9 DUP3 PUSH2 0x6F0 JUMP JUMPDEST SWAP1 POP SWAP2 SWAP1 POP JUMP JUMPDEST PUSH1 0x0 PUSH2 0x6FB DUP3 PUSH2 0x702 JUMP JUMPDEST SWAP1 POP SWAP2 SWAP1 POP JUMP JUMPDEST PUSH1 0x0 PUSH2 0x70D DUP3 PUSH2 0x6B4 JUMP JUMPDEST SWAP1 POP SWAP2 SWAP1 POP JUMP JUMPDEST DUP3 DUP2 DUP4 CALLDATACOPY PUSH1 0x0 DUP4 DUP4 ADD MSTORE POP POP POP JUMP JUMPDEST PUSH1 0x0 JUMPDEST DUP4 DUP2 LT ISZERO PUSH2 0x741 JUMPI DUP1 DUP3 ADD MLOAD DUP2 DUP5 ADD MSTORE PUSH1 0x20 DUP2 ADD SWAP1 POP PUSH2 0x726 JUMP JUMPDEST DUP4 DUP2 GT ISZERO PUSH2 0x750 JUMPI PUSH1 0x0 DUP5 DUP5 ADD MSTORE JUMPDEST POP POP POP POP JUMP JUMPDEST PUSH2 0x75F DUP2 PUSH2 0x6A2 JUMP JUMPDEST DUP2 EQ PUSH2 0x76A JUMPI PUSH1 0x0 DUP1 REVERT JUMPDEST POP JUMP JUMPDEST PUSH2 0x776 DUP2 PUSH2 0x6D4 JUMP JUMPDEST DUP2 EQ PUSH2 0x781 JUMPI PUSH1 0x0 DUP1 REVERT JUMPDEST POP JUMP INVALID LOG3 PUSH6 0x627A7A723158 KECCAK256 PUSH23 0xE848FB7205916D04EE3A85A3B8CDDBB3BA3965032C2354 0xD4 SGT 0xA6 PUSH1 0xA4 0xEF 0xEF 0xC3 PUSH13 0x6578706572696D656E74616CF5 PUSH5 0x736F6C6343 STOP SDIV GT STOP BLOCKHASH "
				},
				"gasEstimates": {
					"creation": {
						"codeDepositCost": "398200",
						"executionCost": "65460",
						"totalCost": "463660"
					},
					"external": {
						"getEvidence(address,uint256)": "infinite",
						"saveEvidence(string,string,string,string)": "infinite",
						"tmp(address)": "1492"
					}
				},
				"methodIdentifiers": {
					"getEvidence(address,uint256)": "b254ee4a",
					"saveEvidence(string,string,string,string)": "67f245cf",
					"tmp(address)": "23e46965"
				}
			},
			"storageLayout": {
				"storage": [
					{
						"astId": 117,
						"contract": "contracts/RBAC Oracle/storageteuxt.sol:Evidence",
						"label": "CODE_SUCCESS",
						"offset": 0,
						"slot": "0",
						"type": "t_uint256"
					},
					{
						"astId": 120,
						"contract": "contracts/RBAC Oracle/storageteuxt.sol:Evidence",
						"label": "FILE_NOT_EXIST",
						"offset": 0,
						"slot": "1",
						"type": "t_uint256"
					},
					{
						"astId": 123,
						"contract": "contracts/RBAC Oracle/storageteuxt.sol:Evidence",
						"label": "FILE_ALREADY_EXIST",
						"offset": 0,
						"slot": "2",
						"type": "t_uint256"
					},
					{
						"astId": 126,
						"contract": "contracts/RBAC Oracle/storageteuxt.sol:Evidence",
						"label": "USER_NOT_EXIST",
						"offset": 0,
						"slot": "3",
						"type": "t_uint256"
					},
					{
						"astId": 139,
						"contract": "contracts/RBAC Oracle/storageteuxt.sol:Evidence",
						"label": "filemap",
						"offset": 0,
						"slot": "4",
						"type": "t_mapping(t_string_memory,t_struct(FileEvidence)135_storage)"
					},
					{
						"astId": 152,
						"contract": "contracts/RBAC Oracle/storageteuxt.sol:Evidence",
						"label": "userList",
						"offset": 0,
						"slot": "5",
						"type": "t_array(t_address)dyn_storage"
					},
					{
						"astId": 202,
						"contract": "contracts/RBAC Oracle/storageteuxt.sol:Evidence",
						"label": "tmp",
						"offset": 0,
						"slot": "6",
						"type": "t_mapping(t_address,t_uint256)"
					},
					{
						"astId": 204,
						"contract": "contracts/RBAC Oracle/storageteuxt.sol:Evidence",
						"label": "rolePermissionBySol",
						"offset": 0,
						"slot": "7",
						"type": "t_contract(RolePermissionBySol)114"
					}
				],
				"types": {
					"t_address": {
						"encoding": "inplace",
						"label": "address",
						"numberOfBytes": "20"
					},
					"t_array(t_address)dyn_storage": {
						"base": "t_address",
						"encoding": "dynamic_array",
						"label": "address[]",
						"numberOfBytes": "32"
					},
					"t_contract(RolePermissionBySol)114": {
						"encoding": "inplace",
						"label": "contract RolePermissionBySol",
						"numberOfBytes": "20"
					},
					"t_mapping(t_address,t_uint256)": {
						"encoding": "mapping",
						"key": "t_address",
						"label": "mapping(address => uint256)",
						"numberOfBytes": "32",
						"value": "t_uint256"
					},
					"t_mapping(t_string_memory,t_struct(FileEvidence)135_storage)": {
						"encoding": "mapping",
						"key": "t_string_memory",
						"label": "mapping(string => struct Evidence.FileEvidence)",
						"numberOfBytes": "32",
						"value": "t_struct(FileEvidence)135_storage"
					},
					"t_string_memory": {
						"encoding": "bytes",
						"label": "string",
						"numberOfBytes": "32"
					},
					"t_string_storage": {
						"encoding": "bytes",
						"label": "string",
						"numberOfBytes": "32"
					},
					"t_struct(FileEvidence)135_storage": {
						"encoding": "inplace",
						"label": "struct Evidence.FileEvidence",
						"members": [
							{
								"astId": 128,
								"contract": "contracts/RBAC Oracle/storageteuxt.sol:Evidence",
								"label": "fileHash",
								"offset": 0,
								"slot": "0",
								"type": "t_string_storage"
							},
							{
								"astId": 130,
								"contract": "contracts/RBAC Oracle/storageteuxt.sol:Evidence",
								"label": "author",
								"offset": 0,
								"slot": "1",
								"type": "t_string_storage"
							},
							{
								"astId": 132,
								"contract": "contracts/RBAC Oracle/storageteuxt.sol:Evidence",
								"label": "time",
								"offset": 0,
								"slot": "2",
								"type": "t_string_storage"
							},
							{
								"astId": 134,
								"contract": "contracts/RBAC Oracle/storageteuxt.sol:Evidence",
								"label": "fileName",
								"offset": 0,
								"slot": "3",
								"type": "t_string_storage"
							}
						],
						"numberOfBytes": "128"
					},
					"t_uint256": {
						"encoding": "inplace",
						"label": "uint256",
						"numberOfBytes": "32"
					}
				}
			},
			"userdoc": {
				"methods": {}
			}
		}
	}
}